:020000040800F2
:1000000038150020D9000008813F0008F9250008B4
:1000100000000000000000000000000000000000E0
:10002000000000000000000000000000955B0008D8
:100030000000000000000000A1410008A55E0008CB
:10004000EB000008EB000008EB000008EB000008E4
:10005000EB000008EB000008ED0F0008F50F0008AA
:10006000F70F0008EB000008EB000008EB000008A9
:10007000EB000008EB000008EB000008EB000008B4
:10008000415F0008EB000008615F0008EB0000081A
:10009000E92B00083D040008EB000008EB00000815
:1000A000EB000008EB000008EB000008EB00000884
:1000B000EB000008ED2D0008EB000008EB00000845
:1000C0000448854600F086F8004800479D840008F3
:1000D000C046C04638150020044880470448004701
:1000E000FEE7FEE7FEE7FEE7FEE7FEE7CD5E00087F
:1000F000C100000830B50B46014600202022012433
:1001000009E00D46D5409D4205D31D469540491B4B
:100110002546954040191546521E002DF1DC30BD94
:1001200070B500242546002801DA01244042002948
:1001300001DA01254942FFF7DDFFAC4200D0404221
:10014000002C00D0494270BD03460B439B0703D0EF
:1001500009E008C9121F08C0042AFAD203E00B788C
:100160000370401C491C521EF9D27047D2B201E004
:100170000270401C491EFBD270470022F6E710B502
:1001800013460A4604461946FFF7F0FF204610BD05
:1001900030B505460020034600E05B1C934205D2C3
:1001A000EC5CC85C201A01D1002CF6D130BD0321D3
:1001B000001D401E037812021A43491EF9D510464D
:1001C0007047034603220870000A491C521EFAD5E4
:1001D00018467047064C0125064E05E0E36807CC3B
:1001E0002B430C3C98471034B442F7D3FFF76CFF15
:1001F00080960008A096000870B58C180578401C01
:100200006B075B0F01D10378401C2A1106D10278DD
:10021000401C03E006780E70401C491C5B1EF9D19F
:100220002B0705D40023521E0DD40B70491CFAE78E
:100230000378401CCB1A921C03E01D780D70491CFA
:100240005B1C521EF9D5A142D8D3002070BD00001E
:1002500004480088002804D002480088401E014954
:1002600008807047D002002002688A43026070470D
:1002700070B505460C46002D08D10021FF20013045
:1002800003F0EAFF204603F0D9FF06E001212046F3
:1002900003F0E2FF002003F0D1FF70BDF0B504468B
:1002A00000200025072914DD20690E46083EB7000E
:1002B0000F26BE4035460646AE4330460E46083E43
:1002C000B6001F46B7403D4606462E4330462061E5
:1002D0000FE060698F000F26BE4035460646AE43EC
:1002E00030468E001F46B7403D4606462E433046F8
:1002F0006061072A14DAA06B561EB700F7190F26A3
:10030000BE4035460646AE433046561EB700F61987
:100310000F46B7403D4606462E433046A0632CE0CC
:100320000D2A14DA606BD61FB700F7190F26BE40EE
:1003300035460646AE433046D61FB700F6190F467F
:10034000B7403D4606462E433046606315E0206BBD
:1003500016460D3EB700F7190F26BE403546064635
:10036000AE43304616460D3EB700F6190F46B7406D
:100370003D4606462E4330462063F0BD002904D09A
:10038000826801231A43826003E0826852085200A7
:1003900082607047002905D0826805231B051A4337
:1003A000826004E0826805231B059A4382607047DF
:1003B00000B587B001210C2004F056F801A801F027
:1003C000D7FE40200190032002900020039001A955
:1003D0000C4801F0D9FD012001900320029000207B
:1003E000039001A9084801F0CFFD202001900320CF
:1003F00002900020039001A9024801F0C5FD07B05A
:1004000000BD000000080140000C01400146086DDD
:1004100080B270470246002013680B40002B01D0C9
:10042000012000E00020704702460020536D0B4081
:10043000002B01D0012000E00020704710B5022100
:100440008448FFF711FF10218248FFF70DFF814814
:10045000FFF7DCFF80490880084602887F48407B20
:10046000122148437D49183943187C48417B1220AA
:1004700041437A4818380818007C40001A527748DF
:10048000407B12214843754918394018007C401CB4
:10049000C2B27248407B1221484370491839401853
:1004A00002746E48407B122148436C491839401849
:1004B000007C08287ED100226848407B12214843F6
:1004C00066491839401802746448407B1221484339
:1004D00062491839095A6148407B12225043604AE8
:1004E000126811525D48407B122148435B4918391C
:1004F000401841885948407B12225043584A12689C
:10050000801841805548407B12214843534918398F
:10051000401881885148407B12225043504A12684B
:10052000801881804D48407B122148434B4918393F
:100530004018C1884948407B12225043484A1268FB
:100540008018C1804548407B1221484343491839EF
:10055000401801894148407B12225043404A1268AA
:10056000801801813D48407B122148433B4918399E
:10057000401841893948407B12225043384A12685A
:10058000801841813548407B12214843334918394E
:10059000401881893148407B12225043304A12680A
:1005A000801881812D48407B122148432B491839FE
:1005B000401800E031E0C1892848407B12225043B6
:1005C000274A12688018C1812448407B1221484381
:1005D000224918394018017C2048407B12225043A0
:1005E0001F4A1268801801741C48407B122148433E
:1005F0001A4918394018417C1848407B1222504350
:10060000174A12688018417401211448407B122255
:100610005043134A1268801841741048407B401CB4
:10062000C1B20E484173407B022802DB00210B4817
:1006300041730A48407B0B49095C08480173024634
:10064000107B203A11688847044920394868804760
:1006500010BD000000080240280200209404002081
:1006600080020020FC95000830B5024600200023DF
:100670005068FF2501350446AC4320460C7824021F
:100680002043506090680C4C20404D688C682C438F
:100690004D786D002C4320439060106B0F252D0585
:1006A0000446AC4320460C7B641EE4B223431C0585
:1006B0002043106330BD0000FDF7F1FF10B5024686
:1006C0000020506D0B78002B02D00123184301E06D
:1006D000400840004B78002B02D00223184303E06F
:1006E00002240346A34318468B78002B03D0012332
:1006F0005B02184304E0012464020346A343184646
:10070000CB78002B03D0FF230133184304E0FF24F0
:1007100001340346A343184610240346A343184656
:100720000B79012B01D110231843506510BD000037
:1007300070B5044602211048FFF76CFE0546012DF6
:1007400017D102210C48FFF78FFD10210A48FFF74F
:100750008BFD0948FFF75AFE20800623012208215D
:100760000548FFF79BFD01210348FFF713FE012019
:1007700070BD0020FCE70000000802400146012097
:100780008002814205DB08480088401C064A108030
:1007900002E00020044A108003480088642801DB3E
:1007A000012070470020FCE79202002000B587B0CE
:1007B00001A801F0DDFC022001900320029000203E
:1007C000039001A9024801F0DFFB07B000BD000063
:1007D000000C014000B587B001A801F0C9FC02205F
:1007E0000190012002900020039001A9024801F02D
:1007F000CBFB07B000BD0000000C014010B5044663
:10080000002C04D00221044801F0CCFC03E00221BA
:10081000014801F0C5FC10BD000C014010B50121DC
:10082000082003F021FE10BD10B501210C2003F0BB
:100830001BFE0121080303F0E7FD012003F024FE65
:1008400003F05AFF0446012C01D000BFFEE7072148
:10085000C902002003F0D8FC08210020FFF708FDA2
:1008600010BD000010B504468D2202492046FFF756
:100870006BFC10BD140600200449897C0222114340
:10088000024A917411468039087570479406002019
:1008900010B501F0FFF80348807C022108430149AC
:1008A000887410BD940600200449897C02221143FB
:1008B000024A91741146803988747047940600206A
:1008C0000449897C02221143024A917411468039FD
:1008D000487570479406002010B504460548807C92
:1008E00002210843034988747C392046FFF769FCDC
:1008F00010BD0000940600200149C8717047000037
:10090000940600200449897C02221143024A917412
:1009100011468039887570479406002010B504464A
:100920000548807C022108430349887478392046B1
:10093000FFF747FC10BD0000940600200449897CA5
:1009400002221143024A9174114680390876704799
:10095000940600200549897C02221143034A9174C0
:10096000114680390874020A4A74704794060020C0
:100970000449897C02221143024A9174114680394C
:10098000C87570479406002010B504460548807C61
:10099000012108430349887474392046FFF711FC8C
:1009A00010BD00009406002030B5A5B005462846CD
:1009B00004F07CFD002404E0295D08A80155601CBA
:1009C000C4B2072CF8DB01A801F070F8012805D1AA
:1009D0000348807C022108430149887425B030BD5A
:1009E0009406002010B501F085F80348807C0221B0
:1009F00008430149887410BD9406002010B5A4B0C6
:100A00000446204604F052FD00230DE0E15C07A8F7
:100A1000C154C15C09488079C200121A0748643881
:100A20001018C154581CC3B2072BEFDB0348807C5D
:100A3000022108430149887424B010BD94060020A7
:100A40000449897C02221143024A9174114680397B
:100A500048767047940600200449897C022211439D
:100A6000024A917411468039C87670479406002076
:100A700010B504460548807C022108430349887468
:100A800080392046FFF79DFB10BD00009406002032
:100A90000449897C02221143024A917411468871EB
:100AA000704700009406002004498979CA00521A50
:100AB000024964395118887170470000940600207B
:100AC00010B5002406F03EFB002800D110BD00BF89
:100AD000EFF310800446012006F012FB1448007B5F
:100AE000012803D1204606F00BFBEFE70121104857
:100AF0000173204606F004FB0D48807C022108406B
:100B0000002806D00A48807C88430949887401F08F
:100B10007FF800BFEFF310800446012006F0F0FAE2
:100B2000002103480173204606F0EAFA00BFCDE732
:100B30009406002010B501F043F910BDF3B583B061
:100B400004460025022C02DB002005B0F0BD00BFEA
:100B5000EFF310800546012006F0CFFA1220604323
:100B600018494018407C0190284606F0C6FA0198C2
:100B7000002825D000BFEFF310800546012006F0C5
:100B8000BCFA0021122060430E4A801841740027ED
:100B9000002608E0122060430A4940187100405ABC
:100BA000C719701CC6B2082EF4DB284606F0A5FA59
:100BB0007803000C02900499029808800120C4E791
:100BC0000020C2E7F00500202A490978002906D054
:100BD00001290ED0022921D0032948D129E0264934
:100BE000884205DC0121234A11700A21234A118021
:100BF0003EE02249098800290FD11F49884209DCBB
:100C000002211C4A11701E490978032211431C4A13
:100C1000117002E00021174A117029E001218902B8
:100C2000884205DD0321134A11706421134A1180A3
:100C30001EE012490988002918D101218902884241
:100C400011DD00210B4A11700D4909780222114370
:100C50000B4A1170114609784908490011700021AA
:100C6000044A117002E00221024A117000E000BF44
:100C700000BF704784020020C70300008A020020E2
:100C80008802002010B5024808F08CFC10BD00005E
:100C9000D000002070B50446207E012802D100203B
:100CA000207601E001202076207EFFF747FE201D00
:100CB000FFF77DFAFF2805D02046FFF778FA1C4998
:100CC000884202D100F05EF931E02046FFF76FFA6A
:100CD0000646201DFFF76BFA361820460C30FFF74A
:100CE00066FA351A21460C312846FFF76AFA204683
:100CF000FFF75DFA0646201DFFF759FA3618204621
:100D00000830FFF754FA351A214608312846FFF714
:100D100058FA20460C30FFF74AFA0546FFF734FE32
:100D200020460830FFF743FA0546FFF7F7FD70BD90
:100D300000FFFF001CB5454840790F2802DD002167
:100D40004248417141484079002801D101201CBD31
:100D5000002474E0E1000A1B3C49643950186946DC
:100D600003F0D8FE3A484079C007C00F002806D1EA
:100D70006846807836498978884200D05DE06846C8
:100D8000C0783349C978884200D056E06846007977
:100D90002F490979884200D04FE068464079000722
:100DA000000F2B4949790907090F884200D044E018
:100DB00028480078002807D027480078401EA04225
:100DC00002D0002023490870601C23490870234882
:100DD00000780978884206D01F4800781F490870BB
:100DE0002046FFF755FE684680791949897988427F
:100DF00007D16846C0791649C979884201D10020D7
:100E0000A5E768468079124989790840002806D10B
:100E10006846C0790E49C9790840002801D00020F1
:100E200095E70B494878FFF73FFE0D480078012809
:100E300001D102208BE7032089E7601CC4B203487C
:100E40004079A04286DC012081E7000020090020D3
:100E5000680200200F0300200E030020230300205F
:100E60000703002010B5114800780F2803DA0F4857
:100E70000078012801DA002010BD0D4840780D49A6
:100E80000A4A1278895C88420ED00948407809499C
:100E9000064A1278885406494878FFF705FEAA20CA
:100EA000054908700120E7E70020E5E70E03002070
:100EB00068020020140300201103002030B5104800
:100EC0000078401EC5002D1A0E482818827912029B
:100ED0000D4883791B02012100240DE010460840D3
:100EE000002805D118460840002801D0012030BD57
:100EF0004804010C601CC4B2102CEFDB0020F6E7A4
:100F00000E030020BC0800206802002002460020DA
:100F100003E0135C0B54431CD8B20228F9DB704782
:100F20000246002003E0135C0B54431CD8B2042893
:100F3000F9DB7047002905D0054A126B0243044BC8
:100F40001A6304E0024A126B8243014B1A63704732
:100F50000070004004480088002804D0024800883F
:100F6000401E014908807047CE02002000B50346AC
:100F700004E07D20C00007F09FF95B1E002BF8D134
:100F800000BD000010B50748FFF772FDFF20FFF716
:100F9000A3FC0120C005FFF7C1FC0120C005FFF73D
:100FA000F3FC10BD00FFFF00002104484171817176
:100FB000807C022108430149887470479406002010
:100FC00010B5FF20FFF788FC0120C005FFF7A6FC45
:100FD00010BD000010B50448FFF74AFD0120C00510
:100FE000FFF79CFC10BD000000FFFF0010B504F0EF
:100FF000E3FE10BD704710B50120C00200F018F8E4
:10100000002805D00120C00200F00CF803F074FCA9
:10101000802000F00DF8002802D0802000F002F8B7
:1010200010BD000001494861704700000004014004
:10103000014600200022074B1B680B401A46054B57
:101040005B690B40002B03D0002A01D0012000E097
:101050000020704700040140002120498279002AC5
:1010600035D00A46126803689A430B461A600A464E
:10107000526803689A430B465A60027951180A680D
:1010800003681A430A60154A926803689A43134B2F
:101090009A601A46D26803689A43104BDA60427924
:1010A000102A0CD11A46926803681A430B4B9A60B7
:1010B0001A46D26803681A43084BDA600DE0074904
:1010C000427951180A6803681A430A6005E00279F8
:1010D00051180A6803689A430A6070470004014087
:1010E0000249C9680143014AD160704700200240AB
:1010F00030B5044607253420FFF7F2FF0B2000042B
:1011000000F07EF80546042D17D10D480069022134
:1011100008430B49086108464461006940210843BF
:10112000074908610B20000400F06AF805460448EE
:1011300000690449084002490861284630BD0000A2
:1011400000200240FD3F000007200D49C968C90783
:10115000C90F002901D0012010E00949C968042203
:101160001140002901D0022008E00549C968102279
:101170001140002901D0032000E004207047000046
:1011800000200240034800698021084301490861AA
:10119000704700000020024078B504460D4607263F
:1011A000002000903420FFF79BFF0120400300F057
:1011B00027F80646042E10D109480069012108438A
:1011C000074908612560F00200F01AF80646044855
:1011D00000690449084002490861304678BD0000B2
:1011E00000200240FE3F00000248034948600348D7
:1011F000486070472301674500200240AB89EFCD6E
:1012000010B503460724FFF79FFF044603E0FFF7EE
:101210009BFF04465B1E012C01D1002BF7D1002B54
:1012200000D10624204610BDFEB504460E46656872
:101230000027206801900020009000BF15E0010108
:10124000695AB1420FD1010149194A6801998A428C
:1012500009D10121009101014919CF680101491902
:101260008968029104E0411C88B221898142E6DC50
:1012700000BF0098002804D0002F00D0B847029883
:101280002060FEBD10B50446204600F013F8052886
:1012900001D1002010BD002020800120FAE710B508
:1012A0000446204600F038F8042801D1002010BD83
:1012B0000120FCE770B504460025002C01D1012077
:1012C00070BD00BFEFF310800546012005F00FFF51
:1012D000104840780F490978884216D0284605F012
:1012E00006FF0C48407841000A48801C405A208084
:1012F00008494978481CC117C90E09184911490104
:10130000411A044A51700520DAE7284605F0EFFE3D
:101310000320D5E70804002070B504461349097876
:10132000481CC117C90E091849114901411ACDB20B
:1013300000BFEFF310800646012005F0D8FE0B48F1
:101340004078A8420CD0304605F0D1FE074800781E
:1013500041000648801C4452801E0570042070BD68
:10136000304605F0C4FE0220F9E700000804002022
:1013700000200249487008707047000008040020EF
:1013800008B5002000906846FFF77CFF002804D1D4
:10139000684601880148FFF747FF08BD4C0400205C
:1013A00010B504462046FFF77AFF10BDF8B5044695
:1013B0000D4616461F46656027602681FFF7D8FF59
:1013C000F8BD000010B5024808F0ECF810BD0000B0
:1013D000C000002010B50D48FEF7E9FE04460B489A
:1013E000001FFEF7E4FE84420AD80848001FFEF7FB
:1013F000DEFE04460548FEF7DAFE201A182803D25E
:1014000000F0D4F800F02AF910BD00001806002002
:1014100010B5FF20F530FFF7A9FD05F09DFE00F0A7
:10142000E3F9FFF74DFB00F005F800F09FFB00F03B
:10143000C3F910BD0548407B002803D101210348B2
:10144000417302E000210148417370479406002077
:1014500010B5554840790F280DDD002152484171E3
:101460000830FEF7A4FE01214903084304464E4913
:101470000831FEF7A6FE4C484079002802D1002131
:1014800049488171FFF7A6FF47488038807D0128D1
:101490000FDD012044498039887508468830FEF701
:1014A00086FE01214902084304463F490831FEF700
:1014B00088FE3D488038007D04280EDB00203A4934
:1014C0008039087508468830FEF771FE8021084390
:1014D000044635490831FEF774FE33488038407DB4
:1014E00004280FDB012030498039487508468830D0
:1014F000FEF75DFEFF210131084304462A49083109
:10150000FEF75FFE28488038C07C20280EDB0020D4
:1015100025498039C87408468830FEF748FE4021C6
:101520000843044620490831FEF74BFE1E48803828
:10153000007E01280FDD00201B498039087608460F
:101540008830FEF734FE0121C902084304461649DB
:101550000831FEF736FE14498039487C097C0002C8
:101560000843A0280FDD4B210F488038017400216B
:1015700041748830FEF71BFE1021084304460A49D7
:101580000831FEF71EFE00F025F807488038407E3F
:10159000642804DC04488038407E322803DA4B207B
:1015A00001498039487610BD9406002010B50849DD
:1015B0000120C005FEF705FE05487C30FEF7F7FD6B
:1015C00008210843044602497C31FEF7FAFD10BDAC
:1015D0002006002010B50B48FEF7E9FDFF2806D0D5
:1015E0000848001FFEF7E3FD0749884204D10020A8
:1015F0000449091F887603E001200249091F887603
:1016000010BD00001806002000FFFF0010B500F01C
:101610000FF9012803D000F0DDF800F055F800F0D4
:10162000B3F9012804D003490120C005FEF7C9FD24
:1016300010BD00002006002070B504460648C475A1
:101640008830FEF7B4FD01218902084305460249AE
:101650008831FEF7B6FD70BD1406002010B518499C
:101660001848FEF7AEFD1649091DFF20FEF7A9FD3B
:10167000134908310120C005FEF7A3FD104888304A
:10168000FEF795FD0121084304460D498831FEF718
:1016900098FD0B488830FEF78AFD02210843044676
:1016A00007498831FEF78DFD05488830FEF77FFD3C
:1016B00004210843044602498831FEF782FD10BD2B
:1016C0001406002000FFFF0070B500240DE0002587
:1016D00007E00021E000021B184810184155681C63
:1016E000C5B2072DF5DB601CC4B20F2CEFDBFFF792
:1016F000B5FF0021114864304171FFF76BFF0020F6
:101700000E491C39C8740120887500200875012015
:1017100048754B20087400204874802088744B2042
:10172000C87648760020FFF787FF04486430807C45
:101730000221084301496431887470BD30060020DD
:1017400000B58BB0202103A8FEF717FD0020019003
:101750000290174800F094F98A21039808430390F7
:101760005B2109020398084303901B218904039815
:10177000084303907D21090603980843039003A9B9
:101780000B4800F0E7F9042201A9094805F014FF0D
:10179000FFF79AFF00210748417301460E310020F0
:1017A000FEF70FFD00F0E2F900F014F80BB000BDF9
:1017B00000EC00089406002010B50448407B40026D
:1017C000034A8418204600F05BF910BD94060020FF
:1017D00000E4000810B5FFF7E9FE10BD01460888D7
:1017E00070470146086870471CB5002000900190C2
:1017F000042269460D4805F0DFFE684600788A2815
:101800000ED1684640785B280AD1684680786C28FB
:1018100006D16846C0787D2802D1FFF7F7FE01E0C7
:10182000FFF78EFFFFF714FE1CBD000000EC000860
:10183000F0B5A7B000202690902102A8FEF79DFCED
:101840004F48019000278E2202A9019805F0B4FEAE
:101850008D2102A806F012FD20A9497D884202D1FF
:101860000120269001E0781CC7B2269801287DD17E
:101870001CA90331C97809061CAA03329278120404
:1018800011431CAA033252781202114318AAD27CC7
:10189000114308463B49FEF794FC1DA90331C97862
:1018A00009061DAA03329278120411431DAA0332BD
:1018B00052781202114318AAD27D114308463149C9
:1018C000091DFEF77EFC1EA90331C97809061EAA70
:1018D00003329278120411431EAA03325278120284
:1018E000114318AAD27E1143084626490831FEF753
:1018F00068FC20AA507823498874501F4078000261
:1019000018AAD17E08431F490874000A487420AA07
:101910009078C874D07808751079487550798875B2
:101920009079C875D0790876107A4876507AC8765A
:10193000907A887618AA517C124880304171917C47
:1019400081710026002514E000240AE0A01902A9F4
:10195000095CE800421B0B481C3010180155601C44
:10196000C4B2072CF2DBF01DC6B200E006E0681C32
:10197000C5B20F2DE8DB012027B0F0BD0020FBE74A
:1019800000E80008140600207CB500260020009026
:10199000019006226946354805F00EFE052168468D
:1019A00006F06CFC69464979884201D000207CBD74
:1019B0006A4611782E484173694609790906D2783A
:1019C000120411436A469278120211436A46527811
:1019D0001143084626490E31FEF7F3FB2448407BAD
:1019E0004002244A8018044607226946204605F032
:1019F000E3FD0621684606F041FC6A46917988427B
:101A000001D1012601E0681CC5B2012E2CD16A4625
:101A1000117817488079C200121A154864381018D6
:101A200081716946097909066A46D2781204114320
:101A30006A469278120211436A4652781143084668
:101A40000B497439FEF7BDFB6A4651790848C171EC
:101A5000C0793040084908700548C0790221084023
:101A6000064908700120A2E70020A0E700F0000866
:101A70009406002000E400085902002058020020CB
:101A800010B50446FFF7B0FB2046FFF731FBFFF728
:101A900079FB10BD10B500210348817141716922A5
:101AA0006438FEF76CFB10BD9406002010B50246AA
:101AB0000F4840790F2801DD002010BD00210CE007
:101AC00010461C30435C0A484079C400241A084878
:101AD000643820184354481CC1B20729F0DB04487D
:101AE0004079401CC3B2024843710120E5E7000081
:101AF0009406002010B5164A5279002A00D110BD74
:101B0000134A907914E000210EE0421CD3009B1A86
:101B10000F4A643A9A18535CC200141A0C4A643A89
:101B2000A21853544A1CD1B20729EEDB421CD0B292
:101B3000074A5279521E8242E5DC0023044A93711F
:101B40005279521ED3B2024A537100BFD7E7000048
:101B50009406002070B505460C46FFF745FB284665
:101B60002168FFF719FBFFF70DFB70BD1FB50024BF
:101B7000002002900390009001902348FFF780FF1F
:101B80002248417B6846017220480E30FEF70FFB69
:101B9000C1B2684641721D480E30FEF708FB0004D2
:101BA000010E6846817219480E30FEF700FB0002F4
:101BB000010E6846C17215480E30FEF7F8FA010EA4
:101BC00068460173052102A806F058FB6946487370
:101BD00007E002AA11190C4AA018FFF7BBFF201D4D
:101BE000C4B2062CF5DB06226946074805F0E4FC82
:101BF0000622694602A8FEF7CBFA002802D101208E
:101C000004B010BD0020FBE700F00008940600209F
:101C1000F0B5C9B000204890902124A8FEF7ADFA95
:101C200090216846FEF7A9FA00204890002413E0AE
:101C300000250DE0E000011B5F480818415D24AA63
:101C4000489811544898401CC0B24890681CC5B2CE
:101C5000072DEFDB601CC4B20F2CE9DB3EA903317A
:101C600055481C38FFF75CF93FA903315248183832
:101C7000FFF756F940A903314F481438FFF750F9E0
:101C80004D491C39487C097C00020843642815D062
:101C900049491C39487C097C000208434B280DD077
:101CA00045491C39487C097C00020843322805D08C
:101CB0004B2141481C380174002141743E48643076
:101CC000417938A841763C486430817938A88176DA
:101CD00039491C39487C097C00020843C1B240A83C
:101CE000C17135491C39487C097C00020843011246
:101CF00040A8017230481C38817C40A841722E48AF
:101D00001C38C17C40A881722B481C38017D40A83A
:101D1000C17229481C38417D40A8017326481C38EF
:101D2000817D40A8417324481C38C17D40A881733F
:101D300021481C38017E40A8C1731F481C38417ED1
:101D400040A801741C481C38C17E40A841741A4840
:101D50001C38817E40A881748D2124A806F08EFA5B
:101D600040A948770026154F00BF3846FFF788FE88
:101D7000002406E024AA11193819FFF7EBFE201DF4
:101D8000C4B28E2CF6DB8E226946384605F014FC70
:101D90008E22694624A8FEF7FBF9002804D0701CA7
:101DA000C0B206460328E0DB032E02DB002049B068
:101DB000F0BD0120FBE700003006002000E800082D
:101DC0007FB50024002002900390009001902E48DF
:101DD0008079C100091A2C4864380818817968464E
:101DE000017229487438FEF7E2F9C1B268464172BF
:101DF00025487438FEF7DBF90004010E684681724D
:101E000021487438FEF7D3F90002010E6846C1720A
:101E10001D487438FEF7CBF9010E684601731A4865
:101E2000C17968464173062102A806F027FA69467F
:101E3000887300251448407B4002144A861800BF6E
:101E4000002406E002AA11193019FFF783FE201DB5
:101E5000C4B2072CF6DB07226946304605F0ACFB1E
:101E60000722694602A8FEF793F9002804D0681CEF
:101E7000C0B205460328E3DB032D02DB002004B0DB
:101E800070BD0120FBE700009406002000E400087C
:101E90007047000030B502460D4B8C10A4001B5952
:101EA0008C07250F0F24AC40A343094C8D10AD00C7
:101EB000635123468C10A4001B598C07250F144630
:101EC000AC402343024C8D10AD00635130BD000087
:101ED0000800014000B587B00121042002F0C4FAD7
:101EE00001A800F045F9FF20013001900120029087
:101EF00001A9224800F048F8FF2101311F4800F0F5
:101F000051F90121042002F0AFFA01A800F030F9E4
:101F100001208002019000200290039001A917483F
:101F200000F032F80121042002F09EFA01A800F02E
:101F30001FF901204002019000200290039001A9A6
:101F40000E4800F021F8012149020C4800F01EF96A
:101F5000002801D0012000E000200949087001217B
:101F60008902064800F012F9002801D0012000E0A3
:101F700000200449087007B000BD000000080140BF
:101F8000590200205802002070B503460A4600217D
:101F900000240020DCE001268E40156835402C46E8
:101FA000002C7DD05568022D02D05568122D20D10D
:101FB00008250D40002D0ED0586A4D07EE0E0F2556
:101FC000B5400646AE4330464E07F60E5569B5405D
:101FD000284358620DE0186A4D07EE0E0F25B540F4
:101FE0000646AE4330464E07F60E5569B5402843C7
:101FF00018625568012D08D05568112D05D0556817
:10200000022D02D05568122D0BD1586801258D4044
:102010000646AE4330461579ED06ED0F8D40284358
:10202000586018684E000325B5400646AE4330465A
:102030001579AD07AD0F4E00B54028431860D8683C
:102040004E000325B5400646AE4330464E00956827
:10205000B5402843D860986801258D400646AE43B8
:102060003046D5688D4028439860D86A01258D4058
:102070000646AE43304615698D402843D862012696
:10208000360755683540B54261D1344D8E08B600EB
:10209000A8598D072E0F0F25B5400646AE4300E028
:1020A00055E030462E4DAB4201D100250AE02D4DC2
:1020B000AB4201D1012505E02B4DAB4201D10225F8
:1020C00000E005258E07360FB5402843234D8E08C6
:1020D000B600A851254D28680546A5432846012687
:1020E000360455683540B54202D105462543284699
:1020F0001E4D286068680546A543284601267604DB
:1021000055683540B54202D1054625432846174D4E
:102110006860A8680546A543284601263605556827
:102120003540B54202D10546254328460F4DA860EB
:10213000E8680546A54328460126760555683540DA
:10214000B54202D1054625432846084DE860491CA2
:102150001568CD40002D00D01DE770BD080001407E
:1021600000080140000C0140001001400004014043
:10217000054901600F214161002141608160012119
:10218000C160002101617047FFFF0000024600208E
:1021900013690B40002B01D0012000E000207047A4
:1021A000816270478161704700211D4800780128D5
:1021B00000D101431B480078012801D102200143CE
:1021C000194800788007800F174A10701046007871
:1021D0008006000E107010460078401810701348EA
:1021E0001278805C012802D1114A107008E00F4873
:1021F0000D4A1278805CFF2802D100200C4A107032
:102200000C48007E002805D00748007810221043B3
:10221000054A10700548044A1278805C7047000037
:102220005902002058020020F80200201C960008E5
:10223000F0020020A008002010B51C4800780128FA
:102240000DD11B4800681B49884205D21848006818
:10225000401C1749086002E01648154908601348F9
:102260000078FF280CD112480068FF2805D91048D3
:102270000068401E0E49086002E0FF200C4908601B
:1022800007F018F809490978884205D00A4880897A
:10229000801C0949888108E007488089002804DDFE
:1022A00005488089401E0449888110BDE80200204D
:1022B000EC02002000FFFF0090080020F8B5044663
:1022C00020460C30FDF773FF0646201DFDF76FFF1B
:1022D000864201D8002523E020460C30FDF767FF39
:1022E00006462046FDF763FF864201D3642517E0CA
:1022F0002046FDF75CFF0746201DFDF758FF3E1AFC
:1023000020460C30FDF753FF0746201DFDF74FFF19
:10231000381A6421484331460090FDF7EBFEC5B200
:10232000A07E002800D1FF252846F8BD0146487E42
:10233000642801D103207047487E4B2801D1022038
:10234000F9E7487E322801D10120F4E70020F2E7C6
:102350000948407E642801DB084870470648407EF3
:102360004B2801DB0648F8E70348407E322801DBB2
:102370000448F2E70148F0E714060020880E000048
:10238000140D0000E60A0000002005E00021820094
:10239000054B9950411CC8B20428F7DB0021024AC2
:1023A00011745174704700008C05002010B504466C
:1023B000002C05D0FF2101310448FFF7F3FE04E0B3
:1023C000FF2101310148FFF7EBFE10BD000801407D
:1023D00010B5012149023148FFF7D8FE002801D08D
:1023E000012000E000202E490978884211D1012106
:1023F00089022A48FFF7CAFE002801D0012000E028
:10240000002028490978884203D100202649087015
:102410003EE025480078401C2349087008460078B3
:10242000052835DB00200870012149021B48FFF711
:10243000ADFE002801D0012000E0002018490870FE
:10244000012189021548FFF7A1FE002801D00120D3
:1024500000E0002013490870144800681449097C02
:102460008900134A50501046007C401C11460874E5
:102470000846007C042801DB002008740C48407CDE
:10248000401C0B49487400200849086000F01AF805
:1024900006480068401C0549086010BD000801405E
:1024A00059020020580200205A0200205C0200203D
:1024B0008C05002010B5FFF70DFD03F087FDFFF739
:1024C00063FF10BD10B5FFF76FFE0C490870FFF7F2
:1024D000B3FE0B480078002805D10A480068401C6C
:1024E0000849086008E006480078012804D105483A
:1024F0000068401E0349086010BD0000E80200208B
:10250000F0020020F402002000B587B00121042071
:1025100001F0AAFF01A8FFF72BFEFF200130019078
:102520000320029001A90248FFF72EFD07B000BD6D
:102530000008014010B52648407C002839D0002012
:10254000234948740846006849684018204989684A
:1025500040181F49C96840181E4908601C48006897
:1025600000280BD01A484068002807D01848806817
:10257000002803D01648C068002803D10020154960
:10258000486016E013480068002812D0114A11680C
:1025900012685208104BD018FDF7ACFD04460D48E8
:1025A000406870214843210140184030C009094962
:1025B000486008488089142808DB00200549888184
:1025C000012003F071FC642001F070FA10BD0000DE
:1025D0008C05002090080020C027090010B50020BD
:1025E00006F0A0FF0020FFF7E1FEFFF78DFF10BD12
:1025F00010B5FFF75FFF10BD00BFFEE7014988601F
:1026000070470000003000400148024908607047F0
:10261000CCCC0000003000400148024908607047FF
:10262000AAAA00000030004001494860704700003D
:102630000030004001490860704700000030004051
:10264000F8B5054600260027012D1EDA00240CE00F
:10265000204600F01FF8002805D0701CC6B20120EB
:10266000A0403843C7B2601CC4B2012CF0DB680044
:102670000749085CB04206D1680040184078B8426B
:1026800001D10120F8BD0020FCE70020FAE700009E
:102690000896000810B50446E2001E4BD218918837
:1026A000E2009858FFF772FDE1001A4A891889790B
:1026B000884211D1E0001146401880791649097806
:1026C000884202D015A005F0F6FDE000114940183F
:1026D00080791149087011E0E0000E4940188079B6
:1026E0000D490978884202D10DA005F0E4FDE00013
:1026F000084940188079C04307490870E00005493F
:102700004018807904490978884201D1012010BD20
:102710000020FCE7009600082A0200206B640A00F3
:102720006B750A000148007870470000960200208F
:1027300010B504F0A3FF10BD10B5002003490870C8
:102740000120487004F0DAFB10BD00009402002064
:102750000848007800280AD106484078C007C00F12
:10276000002804D000200349487001207047002051
:10277000FCE70000940200200848007800280AD0F6
:1027800006484078C007C00F002804D00020034945
:102790004870012070470020FCE7000094020020F0
:1027A00001480078704700009402002010B5022014
:1027B000044908700120487004F0A0FB00F0FCFD03
:1027C00010BD00009402002010B5012002490870DD
:1027D000487004F093FB10BD9402002008B503205C
:1027E000074908700120487004F088FB0120FF238E
:1027F0002D33C82202210090002005F0FDF808BD0D
:102800009402002008B5A148008902210840002850
:102810001ED09E48008988439C49088108468079DB
:10282000012810D19A49087006F08AFD002806D0C8
:10283000642001F079FA01209649087008BD002053
:102840009449087002E000209149087000F054FE9D
:1028500005F09AFE012833D18C488089052805D1DE
:102860008A48008908210840002807D105F034FC77
:10287000022803D005F030FC032820D183480089CA
:1028800008218843814908810021804881810020F6
:1028900005F080FE06F000FE012109037E48FFF7E7
:1028A0007FFC03F0B5FB012000237C4A022100904D
:1028B00005F0A2F87A490020085E00F06BFEBDE743
:1028C00072488089012830D1704800890821084069
:1028D00000282AD000216D48818100890821884381
:1028E0006A4908816B480078002803D000206949B4
:1028F0000870A3E700F0AAFB0320FEF751FDFFF7E5
:102900001BFF67490020085E00F044FE0120FF2302
:102910009133642202210090002005F06DF801F04F
:102920005DFC012801D104F0E9FA584880890328A8
:1029300026D15648008908210840002820D00021CF
:10294000524881810089082188435049088104F058
:1029500083FC002803D00020FDF7F0FF02E00120F7
:10296000FDF7ECFF0320FF23913364220221009046
:10297000002005F041F84A490020085E00F00AFEF8
:102980004248808904281BD140480089082108401A
:10299000002815D000213D48818100890821884305
:1029A0003A4908810420FF239133642202210090D8
:1029B000002005F021F83A490020085E00F0EAFD09
:1029C00032488089052825D13048008908210840EF
:1029D00000281FD02D48008988432C4908810021F8
:1029E0002A488181012005F0D5FD0520FF23913380
:1029F000642202210090002004F0FEFF28490020FC
:102A0000085E00F0C7FD012109032348FFF7CAFB58
:102A100006F038FD1D4880880A2815D11B4800891A
:102A20000421084000280FD018480089884317491E
:102A30000881FEF7A7FA0520FF23F5331A46022185
:102A40000090002004F0D8FF10488088142811D18D
:102A50000E4800890421084000280BD00B4800894B
:102A600088430A49088105F003FD0D490020085EEE
:102A700000F090FD05488088082805DD034880881F
:102A80001E2801DA00F038FD00BFD7E6A4040020BC
:102A9000960200209902002000080140B80B0000B7
:102AA0003C96000810B504F045FE10BD10B500F0CE
:102AB00023FD00F0D3FA012809D00848008902213B
:102AC0000840002808D005488079012804D1022058
:102AD000FEF766FCFFF782FE10BD0000A404002094
:102AE00030B5A5B001A8FDF7BDFE8D2201A936487D
:102AF000FDF72AFB35484079F02108400446FEF7EF
:102B000019F90546324833490880A02C06D1012026
:102B10003149087003F078F825B030BD002D2FD171
:102B2000FEF7A0F9002800D1F6E728484079A02157
:102B30000840002809D128480078002801D1402CFD
:102B400003D0FEF7BBF9002811D1002023490870FB
:102B5000FFF72CFE0220FEF723FC00201D49088011
:102B6000102C03D11E49085E00F014FDD4E7102C90
:102B700005D019480078002802D0402C00D1022549
:102B8000102C09D01448007800281BD0402C19D1F3
:102B900004F066FA002815D1284602F0FDFF10491E
:102BA0000020085E00F0F6FC00200C4908700A497D
:102BB0000870FEF757F90220FEF7F2FB7D20C000F7
:102BC0000849088000BFA7E7A0080020680200208D
:102BD0001027000008030020070300200603002040
:102BE0003C9600081203002010B50121234803F091
:102BF000A3FA002841D0FEF7E5FB04F0CDF804F07D
:102C000071F900F035FA04F031F901F0F1FA00F051
:102C10005BFC00F065FCFEF79DF9FDF719FB184819
:102C20000088401C1649088001F0F2FF01F0C4FA48
:102C300014480088002804DD12480088401E11490D
:102C4000088011484079002804DD0F484079401E73
:102C50000D4948710C488079002804DD0A488079C4
:102C6000401E0949887106F0B1FA05F0FBFA06F03A
:102C70001DFC0121014803F023FA10BD00100040A3
:102C80005402002008030020FC0200200021192229
:102C90009201904201D1802100E0C1B2014A11802D
:102CA0007047000000480040002906D0064A12790B
:102CB000C3B21A43044B1A7104E0034A12798243E7
:102CC000014B1A717047000000480040054909890E
:102CD0008904890C034A1181114609890143118134
:102CE000704700000048004005490989054A114025
:102CF000034A11811146098901431181704700007F
:102D000000480040FF4F000010B50121880401F089
:102D10009BFB00210120800401F096FB10BD1CB537
:102D200004460120800500900021684601711021B1
:102D300041718471FEF790F91CBD0000002806D097
:102D40000649098980221143044A118105E003499B
:102D50000989034A1140014A118170470048004027
:102D60007F7F000000B587B00121092001F07CFBC6
:102D700001A8FFF7FDF9082001900220029005202C
:102D8000069001A90748FFF7FFF8102001900120E5
:102D900003900520069001A90248FFF7F5F807B057
:102DA00000BD0000000C014010B5014600230022C8
:102DB00000204C04620E0124944022460A4C2479DF
:102DC00022401924A401A14201D1802300E0CBB20A
:102DD000054C24882340002A03D0002B01D0012079
:102DE00000E0002010BD00000048004010B50120A8
:102DF0008005FEF717F91C48007919218901084060
:102E000000280DD00846FFF7CFFF002808D0192072
:102E10008001FFF73BFF002119208001FFF744FFED
:102E200029204001FFF7C0FF00280BD00E48007991
:102E3000292149010840002804D00846FFF726FF51
:102E400004F062F8FF200330FFF7AEFF00280AD03D
:102E5000FF200330FFF71AFF0021FF200330FFF7A8
:102E600023FF04F07DF810BD00480040F0B58DB0A0
:102E700004460025002600200C900B9000BF00BFE8
:102E8000089000BF3A4805893A480540A088E18883
:102E900008432189084361890843054334490D816A
:102EA00001F0F6FB0646022E01D0032E02D1324875
:102EB0000C9017E0042E02D130480C9012E0052E41
:102EC00003D10120C0030C900CE0012E05D101A814
:102ED00001F0FEFA01980C9004E001A801F0F8FA64
:102EE00003980C9021680C98FDF704F90B900B984F
:102EF0000A2804D801208003FFF7E8FE02E0002042
:102F0000FFF7E4FE1A490B98888121680C98FDF7B9
:102F1000F1F81B4841430F4638462168FDF7EAF8AF
:102F20000A9000250A9809900020079018E0099857
:102F300008900A9908984018099011490998FDF7D6
:102F4000D9F807460E490898FDF7D4F84740002FF6
:102F500003D001200799884005430798401C07903B
:102F600007980828E3D302490D750DB0F0BD0000A5
:102F700000480040F470000000127A003075000034
:102F80001027000010B504460121082001F06CFA5A
:102F9000230004F08FF8063B3704101D2A3B012064
:102FA00001F072FA00BF01F0A7FB0128FBD102205B
:102FB00001F098F92EE00120000401F067F900BF4C
:102FC00001F07CFB0128FBD1032001F08BF921E00B
:102FD000012001F06BFA00BF412001F039FB00280D
:102FE000FAD0042001F07EF914E0042001F08AF9FF
:102FF00000BF432001F02CFB0028FAD0052001F08F
:1030000071F907E0012001F06DF903E0002001F003
:1030100069F900BF00BF0121880401F005FA10BD65
:103020000148007C7047000000480040014A1074CD
:10303000704700000048004010B504F037FC01283C
:1030400001D10149087010BD9702002001480249D2
:103050000880704710270000C40200200348008841
:10306000002801D1012070470020FCE7C4020020A5
:1030700004480088002804D002480088401E014906
:1030800008807047C402002010B505480068022877
:1030900004D1FFF78BFB0220FEF782F910BD000080
:1030A0004C0400200320024908700020487070473B
:1030B0009A02002010B504F057FD10BD10B504466B
:1030C000062221460348FDF73FF8002001494870D9
:1030D00010BD00009A02002008B5B4480078030033
:1030E00003F0E8FF13F70B18242F3A46538EBAC6A5
:1030F000D9E4F8F5F4F3F2F1F700AD48FF23F53326
:103100001A4602210090002004F076FC0020A74916
:10311000087046E1002003467D22D200014600905F
:1031200004F06AFC0020A14908703AE1002003463F
:10313000A04A0146009004F05FFC00209B49087003
:103140002FE10020034602460146009004F054FCA3
:1031500000209649087024E19548C8231A460221A8
:103160000090002004F048FC00209049087018E10D
:103170008F48FF23F5331A4602210090002004F007
:103180003BFC0020894908700BE188484078002802
:103190000BD10120C8231A4602210090002004F020
:1031A0002BFC01208149487029E0804840780128A3
:1031B00011D1002004F0C8FC002820D101207D237B
:1031C000DB00C82202210090002004F015FC022040
:1031D0007649487013E07548407802280FD10020E6
:1031E00004F0B2FC00280AD10120C8231A460221AB
:1031F0000090002004F000FC01206C494870D0E0F1
:103200006A48408800280AD168488088002806D18A
:10321000034602460121009004F0EEFB18E06348EB
:103220004088634988420AD160488088002806D1D6
:10323000034602460146009004F0DEFB08E05C48CD
:1032400000905A48838842880221002004F0D4FB71
:10325000002056490870A4E00620FA231A460221ED
:103260000090002004F0C8FB00205049087098E04E
:103270000020034602460121009004F0BDFB00201F
:103280000346024601210090084604F0B5FB0020E9
:103290004649087085E0002003460246012100905F
:1032A00004F0AAFB0020414908707AE001207D2348
:1032B000DB00C82202210090002004F09DFB0020CA
:1032C0003A4908706DE05FE049E034E020E00CE04E
:1032D00000E065E00020034602460321009004F070
:1032E0008BFB0020314908705BE00020034602465A
:1032F00001210090084604F07FFB002003460246AF
:103300000146009004F078FB00202849087048E04E
:1033100000200346024601460090012004F06CFBA9
:103320000020034602460121009004F065FB0020C6
:103330001E49087035E01E48FF23F5331A46022166
:103340000090012004F058FB0020034602460121B2
:10335000009004F051FB00201449087021E014484B
:10336000FF23F5331A4602210090002004F044FBAD
:1033700000200346024601210090084604F03CFB71
:1033800000200A4908700CE000200346094A014663
:103390000090012004F030FB00200449087000E098
:1033A00000BF00BF04F0B6FC08BD00009A02002078
:1033B000FFFF0000B80B0000032002490870002046
:1033C000487070479A02002010B50446E200044B92
:1033D000D2189188E2009858FEF7E2FE10BD000076
:1033E0000C96000810B50446E200044BD2189188F0
:1033F000E2009858FEF7D6FE10BD00000C960008BB
:1034000010B5064A91881068FEF7CAFE034A9189F2
:103410009068FEF7C5FE04F059FB10BD0C9600083D
:1034200010B5FFF747FE10BD10B521490020FDF78C
:1034300085FB1F4800881F4908801D480088FDF74C
:10344000C3FB1D480078C007C00F002816D01A48DB
:10345000007802210840002810D01748007817494A
:103460000870154800780221884313490870052028
:10347000FDF796FF01201249087018E00E48007809
:10348000C007C00F002812D10B4800780221084065
:1034900000280CD0084800780849087006480078D1
:1034A000022188430449087000200549087010BDB6
:1034B000900200208602002088020020890200205D
:1034C0008D0200207047000004480088002804D0C6
:1034D00002480088401E0149088070478A02002087
:1034E00004480068002804D002480068401E0149D2
:1034F0000860704748020020014802490860704790
:103500008813000048020020014802490860704703
:10351000881300004802002010B504F0E3FD0548C0
:103520000068002805D10448007800F0F9FCFFF796
:10353000EBFF10BD480200204C02002008B500201F
:10354000034602460121009004F056FA0020FFF7DE
:103550003BFF02210848FEF725FE00BF03F0F2FD05
:103560000128FBD103F07EFE0220FDF719FF01F0D8
:10357000A9FB03F027FD08BD000C014010B504466F
:10358000BA21614389000846B430FF216931FCF754
:10359000C7FD10BD7CB504462BA004F08CFE04F0E2
:1035A000A3FE002807D12B48FCF701FE00192A4989
:1035B0000968884225D9002004F09CFE2548001F98
:1035C000FCF7F5FD0546294624A004F074FE012011
:1035D00005F052FE05460020244B2A460146009481
:1035E000019005F03BF8FF2005F046FE054600205F
:1035F0001E4B2A46014600940190012005F02EF84A
:1036000020E01448FCF7D3FD0546294618A004F035
:1036100052FEFF2005F030FE05460020134B2A46DF
:1036200001460094019005F019F8012005F024FEF0
:10363000054600200D4B2A460146009401900120CA
:1036400005F00CF87CBD00006D7420696E63682085
:10365000310A0000A4080020EC0200205550206C24
:10366000696D69742025640A00000000880E00005E
:10367000446F776E206C696D69742025640A0000C0
:10368000FEB505460E46314613A004F014FE002494
:103690001EE0FF2005F0F0FD0746002061060095C2
:1036A0000190080E0F4B3A46002104F0D7FF01208D
:1036B00005F0E2FD074600206100491C00950190DD
:1036C000C8B2084B3A46002104F0C8FF601CC4B2DF
:1036D000B442DEDBFEBD00006D7420696E636820BD
:1036E00025640A00880E000070B5044621461CA01F
:1036F00004F0E1FD1E48FCF75AFDA04205D31C482A
:10370000001DFCF754FDA04200D970BD19480068A7
:1037100084420FD9FEF71CFE85B2012005F0ACFDF6
:10372000064614480068231A2A463146002005F050
:103730002DFC12E00F48006884420ED2FEF708FE0E
:1037400085B2FF2005F098FD06460A480068031B75
:103750002A463146002005F019FC00BFD5E70000DD
:103760006D742072756E20746F2025640A0000004D
:10377000A0080020EC02002070B50446201DFCF7D4
:1037800016FD05462046FCF712FD854209D8204665
:10379000FCF70DFD0546201DFCF709FD281A182829
:1037A0002DD221461648FCF70CFD211DFF20FCF709
:1037B00008FD21460C310120C005FCF702FD214621
:1037C00008310120C005FCF7FCFC2046FCF7EFFCAB
:1037D0000546FDF74DF9201DFCF7E9FC0546FDF710
:1037E0007BF820460830FCF7E2FC0546FDF796F82A
:1037F00020460C30FCF7DBFC0546FDF7C5F870BD34
:1038000000FFFF0070B53548FCF7D1FC04462146A7
:1038100033A004F050FD3148FCF7C9FC0121C90573
:10382000884204D02D48FCF7C2FC002800D170BDAE
:1038300005F066FD002800D1F9E72848FCF7B7FC41
:10384000044626480838FCF7B2FC844209D82348CD
:10385000FCF7ADFC04462148001FFCF7A8FC84429D
:1038600005D21E490120C005FCF7ABFCDFE71B4871
:10387000FCF79DFC1F490968884213D91748FCF7DB
:1038800096FC1C490968441AFEF762FD85B20120C6
:1038900005F0F2FC064623462A463146002005F094
:1038A00075FB19E00D48FCF782FC12490968884253
:1038B00012D20A48FCF77BFC0E4909680C1AFEF785
:1038C00047FD85B2FF2005F0D7FC064623462A4671
:1038D0003146002005F05AFB00BFA8E7A8080020E9
:1038E0006D7420746F206D6964646C652025640AB2
:1038F00000000000EC02002010B500242AA004F013
:10390000DAFC2A480078002829D105F02DFC00288F
:1039100017D127480078002801D00120044325480A
:103920000078002801D0022004432046FCF7E4FF81
:1039300021480068FDF728F8FDF7FCF8FFF7FEFDC9
:1039400030E00021084605F019FC00F041FC0120A0
:103950001649087001031948FEF724FC22E01348B9
:10396000007801281ED100BF00F01CFC0028FBD00D
:103970000F480078002801D0012004430D4800784A
:10398000002801D0022004432046FCF7B5FF0A4876
:103990000068FCF7F9FFFDF7CDF800200349087037
:1039A000FFF7CCFD10BD000070640A00A4020020E7
:1039B0005902002058020020EC02002000080140BB
:1039C000F8B50546002429462DA004F074FC642DAA
:1039D00000DDF8BD05F094FC00284ED02E48FCF721
:1039E000E6FB07462C48001DFCF7E1FB381A68434C
:1039F0000646323664213046FCF77CFB07462648F3
:103A0000001DFCF7D4FB3C18214624A004F053FC15
:103A10002148FCF7CCFBA04205D31F48001DFCF752
:103A2000C6FBA04200D9D4E71F480068001D8442AD
:103A30000FD9FEF78DFC86B2012005F01DFC07466C
:103A400019480068231A32463946002005F09EFACC
:103A500013E0201D1449096888420ED2FEF778FC55
:103A600086B2FF2005F008FC07460F480068031BDC
:103A700032463946002005F089FA00BFA9E7000068
:103A80006D742070657263656E7461676520746F14
:103A9000202564200A000000A0080020706F735FDA
:103AA00073742025640A0000EC020020F8B5044677
:103AB000642C26D17248FCF77AFB724909681E31E2
:103AC000884213D36E48001DFCF771FB1E306D4910
:103AD000096888420AD86B481E2102686AA004F06F
:103AE000EAFB1E21002005F049FBC8E065480021E3
:103AF000026865A004F0DFFB0021084605F03EFBEC
:103B0000BDE0012C29D15E48FCF751FB5D490968F5
:103B1000143188421DD95A48FCF749FB59490968B4
:103B2000451A29465EA004F0C6FB5548FCF73FFB4A
:103B300054490968451AFEF70BFC86B2012005F0CE
:103B40009BFB07462B4632463946002005F01EFAFD
:103B500095E058A004F0AFFB91E0022C2CD148482E
:103B6000001DFCF724FB14304649096888421FD227
:103B70004348001DFCF71BFB424909680D1A294602
:103B800051A004F098FB3E48001DFCF710FB3D4996
:103B900009680D1AFEF7DCFB86B2FF2005F06CFB0E
:103BA00007462B4632463946002005F0EFF966E01D
:103BB0004BA004F080FB62E0032C19D164214EA0DD
:103BC00004F079FB2E48FCF7F2FA2E4909686431BB
:103BD000884254D3FEF7BCFB85B2012005F04CFBB4
:103BE000064664232A463146002005F0CFF946E018
:103BF000042C1AD1642144A004F05DFB2048001D70
:103C0000FCF7D5FA64301F490968884237D8FEF7B7
:103C10009FFB85B2FF2005F02FFB064664232A4652
:103C20003146002005F0B2F929E0052C03D16420CB
:103C3000FFF7B0FC23E0FF2C21D11148FCF7B7FAC5
:103C4000104909681E31884211D30D48001DFCF748
:103C5000AEFA1E300B490968884208D81E210020A0
:103C600005F08CFA1E212CA004F025FB07E00021B2
:103C7000084605F083FA002127A004F01CFBF8BDDC
:103C8000A0080020EC0200206D742073746F702077
:103C9000696E20256420706F732025640A0000007F
:103CA0006D742072756E2075702073746570202598
:103CB000640A00007570206C696D6974206F766508
:103CC00072666C6F770A00006D742072756E2064E6
:103CD0006F776E20737465702025640A0000000001
:103CE000646F776E206C696D6974206F766572669B
:103CF0006C6F770A000000006D742072756E20757D
:103D0000702025640A0000006D742072756E2064B6
:103D10006F776E2025640A006D742073746F7020B5
:103D2000696E2025640A0000014908707047000090
:103D3000F902002010B505F023FB10480078002898
:103D400014D0002400BFEFF310800446012080F35C
:103D5000108800BF09480078FFF7A8FE0020074937
:103D60000870204680F3108800BF00BF002005F0D7
:103D7000FBF9002801D0FFF7BFFB10BDF9020020BE
:103D800010B586B004466846FEF7F2F908200090A8
:103D9000002C04D0022001900320059001E00120B6
:103DA0000190002002900120049069460248FEF72D
:103DB000EBF806B010BD00000008014000B587B068
:103DC00001A8FEF7D5F908200190032002900020F9
:103DD00003900120059001A90248FEF7D5F807B02D
:103DE00000BD00000008014000B589B00120FFF7C8
:103DF000C7FF002168468182C182134901830021E7
:103E00004183017705A9114802F03CFA6021684618
:103E100081800121C180002101810B49491E41811E
:103E2000022181810021C1810182418201A90748CB
:103E300002F0DAF90121054802F053F901210348A3
:103E400002F069F909B000BDAF040000002C014088
:103E500010B586B004466846FEF78AF91020009037
:103E6000002C04D0022001900320059001E00120E5
:103E70000190002002900120049069460248FEF75C
:103E800083F806B010BD00000008014000B587B0FF
:103E900001A8FEF76DF91020019003200290002088
:103EA00003900120059001A90248FEF76DF807B0C4
:103EB00000BD00000008014000B589B00120FFF7F7
:103EC000C7FF002168468182C18213490183002116
:103ED0004183017705A9114802F0D4F960216846B1
:103EE00081800121C180002101810B49491E41814E
:103EF000022181810021C1810182418201A90748FB
:103F000002F02EF90121054802F0EBF801210348E7
:103F100002F001F909B000BDAF040000002C01401F
:103F200070B50546002401F0F5FE11480078AA2876
:103F300017D100200E4908700E480078002801D0E3
:103F4000012004430C480078002801D002200443DB
:103F50002046FCF7D1FC09480068FCF715FDFCF78A
:103F6000E9FD0121002000F0EFF801F0FBFE70BD3B
:103F7000110300205902002058020020EC0200200A
:103F800070470000C206D20E01219140014A116023
:103F90007047000080E200E0C206D20E012191408D
:103FA000014A11607047000080E200E0C206D20EB4
:103FB00001219140014A11607047000000E100E0DA
:103FC00010B5044661780020205600F071F8A07802
:103FD000002809D000202056C206D20E01219140AF
:103FE000074A116000BF0AE000202056C206D20E28
:103FF00001219140024A8032116000BF00BF10BD14
:1040000000E100E010B500211D2000F015F80321AB
:10401000142000F011F80221122000F00DF8012107
:10402000102000F009F80121082000F005F8022115
:10403000152000F001F810BD10B5002819DA1A4A51
:1040400003071B0F083B9B089B00D2588307DC0E1D
:10405000FF23A3409A438B071B0E8407E40EA34063
:104060001A43114B0407240F083CA408A4001A515A
:1040700018E00E4A03231B02D21883089B00D25873
:104080008307DC0EFF23A3409A438B071B0E840794
:10409000E40EA3401A43054B032424021B19840891
:1040A000A4001A5110BD00001CED00E000E100E08A
:1040B00010B5002819DA1A4A03071B0F083B9B08A2
:1040C0009B00D2588307DC0EFF23A3409A438B0743
:1040D0001B0E8407E40EA3401A43114B0407240F60
:1040E000083CA408A4001A5118E00E4A03231B023E
:1040F000D21883089B00D2588307DC0EFF23A3400D
:104100009A438B071B0E8407E40EA3401A43054B0A
:10411000032424021B198408A4001A5110BD0000B6
:104120001CED00E000E100E00146032901D164201C
:104130007047022901D14B20FAE7012901D1322031
:10414000F6E70020F4E7000010B502460020124B0D
:104150001868800880001C150346A34318460346D0
:104160001343184600BF0C4B1B6803430A4C2360E3
:104170000A4B1B6904242343084C2361012901D104
:1041800030BF02E040BF20BF20BF044B1B690424A6
:10419000A343024C236110BD0070004000ED00E01D
:1041A0007047000003480078002801D101207047C3
:1041B0000020FCE78C02002004480078002804D08E
:1041C00002480078401E0149087070478C020020A8
:1041D00096200149087070478C020020034800783F
:1041E000002801D1012070470020FCE7CD0200200B
:1041F00004480078002804D002480078401E014995
:1042000008707047CD02002010B5024600200A4B0E
:10421000D86A1C150346A34318461F24E40203462C
:10422000A343184603461343184603460B43184658
:10423000014BD86210BD0000001002400146002072
:10424000044AD06A0009000102460A431046014AA6
:10425000D06270470010024010B5024600200A4BA1
:10426000D86AFF24F1340346A3431846002903D03B
:1042700003461343184604E0FF2401340346A343D6
:104280001846014BD86210BD00100240144909685D
:10429000012212049143124A116011460968012259
:1042A000920491430E4A116001210904411A04D07D
:1042B00003221204891A10D107E009490968012272
:1042C00012041143064A116008E0054909680522F5
:1042D00012041143024A116000E000BF00BF7047A2
:1042E000001002400649C96A072252069143044A57
:1042F000D1621146C96A42061143014AD162704730
:10430000001002400D49096A142291430B4A1162C0
:10431000042802D010280ED106E00849096A0422B8
:104320001143064A116207E00449096A1422114345
:10433000024A116200E000BF00BF70470010024057
:1043400001460020064A506807231B0202469A4392
:10435000104602460A431046014A5060704700006A
:104360000010024001460020054A50680723DB0286
:1043700002469A431046CA001043014A50607047F3
:1043800000100240F0B5044600200025114E76686A
:104390000327BF05BE430F4F7E603E4670680E4E3A
:1043A0003040002C03D001263606B44204D10E461C
:1043B00016431E43304309E0064E356806461E4349
:1043C00030460126B6053543024E3560014E706019
:1043D000F0BD000000100240FFFFC0FE01460020BB
:1043E000044A5068C008C00002460A431046014A09
:1043F000506070470010024010B501210148FCF7E1
:1044000099FD10BD00140A00002905D0054A526923
:104410000243044B5A6104E0024A52698243014B51
:104420005A61704700100240002905D0054AD26940
:104430000243044BDA6104E0024AD2698243014B31
:10444000DA61704700100240002905D0054A126960
:104450000243044B1A6104E0024A12698243014B91
:104460001A61704700100240002905D0054A926980
:104470000243044B9A6104E0024A92698243014B71
:104480009A61704700100240012806D10649096868
:1044900001221143044A116005E0034909684908F3
:1044A0004900014A1160704700100240012806D1FE
:1044B0000649096A01221143044A116205E00349D1
:1044C000096A49084900014A116270470010024018
:1044D000F0B585B00446002500BF0020039002908F
:1044E000019000900027534840680F2109040840BC
:1044F00003905048406803210905084002904D4848
:1045000040688900084001904A4840680121090636
:10451000084000900398000CC01C03900098000E07
:10452000002804D1444903984843064603E0424921
:104530000398484306460298000D401C02903046FE
:104540000299FBF7D7FD06460198800D401C0190AB
:1045500030460199FBF7CEFD06463648406837499C
:104560000840054601218903681A8D4212D004DCF7
:10457000002D09D0082D16D109E008280CD0012102
:104580008903401A0FD10BE02B4820600EE02A4827
:1045900020600BE0266009E00120C003206005E0F8
:1045A0002748206002E02448206000BF00BF214867
:1045B0004068F021084005462D09082D00D200254D
:1045C0002048475D2068F84060601A48406807212D
:1045D0000902084005462D0A1A48475D6068F84000
:1045E000A06014484068C90008400546ED0A154817
:1045F000475D6068F840E0600E48C06A05072D0F0F
:104600001148475D39466068FBF774FD60610948F1
:10461000C06AFF21F131084005462D092807C00E68
:104620000A490F5A39463046FBF764FD206105B050
:10463000F0BD00000010024000127A0008C0000027
:10464000307500003E9600084E9600085E96000801
:1046500010B501460022002300204A11012A02D190
:104660000A4C236806E0022A02D1084C236A01E0C2
:10467000064C636ACA06D20E012494401C40002CEA
:1046800001D0012000E0002010BD00000010024019
:104690000348C06A072149060840400E70470000E1
:1046A0000010024010B500231A46032109041846E1
:1046B000FFF768FE0220FFF791FE10BD38B500201D
:1046C00000900024002500BF3120FFF7C1FF054600
:1046D0000098401C0090012149030098884201D0B5
:1046E000002DF1D03120FFF7B3FF002801D00124C5
:1046F00000E00024204638BD38B50020009000249A
:10470000002500BF2120FFF7A3FF05460098401CAD
:104710000090052109020098884201D0002DF1D0B7
:104720002120FFF795FF002801D0012400E000249C
:10473000204638BD00B587B001F06AFC002113485F
:1047400001F0CFFC00201149203188800121042094
:10475000FFF78AFE01A8FDF70BFD01200003019081
:104760000120029001A90A48FDF70EFC012109036E
:104770000748FDF715FD0121C902054800F064F85E
:104780000120C002FCF74EFC07B000BD0004004051
:104790000008014030B589B004460D4625488442E2
:1047A00004D101210520FFF75FFE19E02248844271
:1047B00004D101210920FFF757FE11E01F48844270
:1047C00004D101211120FFF74FFE09E01C4884426B
:1047D00004D101218120FFF747FE01E009B030BD7F
:1047E0001848854209DC03A8FDF7C2FC03950020A8
:1047F000059003A92046FDF7C7FB0B210020FDF71C
:1048000049FB0120C0020190002168460172082185
:1048100041720021817201A8FCF71EFC0821684644
:1048200001700121417000218170FFF7C9FB00BFB9
:10483000D4E7000000080140000C014000100140D6
:10484000001C0140FFFF000030B589B004460D4652
:104850002448844204D101210520FFF705FE19E018
:104860002148844204D101210920FFF7FDFD11E018
:104870001E48844204D101211120FFF7F5FD09E013
:104880001B48844204D101218120FFF7EDFD01E0A6
:1048900009B030BD1748854209DC03A8FDF768FC64
:1048A00003950020059003A92046FDF76DFB0B2121
:1048B0000020FDF7EFFA0120C002019000216846B8
:1048C0000172082141720121817201A8FCF7C4FB29
:1048D000082168460170012141708170FFF770FB6B
:1048E00000BFD5E700080140000C01400010014066
:1048F000001C0140FFFF000010B5012109030B4817
:10490000FDF74EFC0A480088401C09490880002138
:10491000084801F0E6FB002006492031888006485F
:1049200088810121034801F0DCFB10BD0008014033
:1049300070020020000400400113000010B50120A7
:1049400006490870064807490880FEF77FFB0320E8
:10495000FCF726FDFDF7F0FE10BD00000603002069
:10496000102700000803002010B504480068FCF779
:104970000BF800200249087010BD0000EC02002076
:104980000603002010B500F0B5F8002862DD3248BB
:1049900000F06AF8401C002800D110BD00202F490B
:1049A00008702D48C0792C49097848402A49C871B7
:1049B0000846807909784840274988710846407937
:1049C00009784840244948710846007909784840E8
:1049D000214908710846C078097848401E49C870C6
:1049E00008468078097848401B49887003F042FBEC
:1049F000002804D00021184A11605160CDE7164804
:104A000040781549897848401349487008464078ED
:104A1000497948401049487011480068402803D03F
:104A20000F480068802802D101F092F80CE00D4890
:104A30000078012802D1FEF753F805E004F042FDAA
:104A4000002801D100F0F4F90020034A1060506002
:104A5000FEF752FD00BFA0E76802002062020020BE
:104A60004C0400200603002010B504460D480078D1
:104A70000D490978884212D00A480078C0000B49D5
:104A8000081803C8616020600A2106480078401CAD
:104A9000FBF746FBC8B203490870002010BD002098
:104AA000C043FBE76402002063020020A005002051
:104AB00013B50A210C480078401CFBF731FBCCB23F
:104AC0000A48007884420CD0074A1278D200084B7A
:104AD0009A180099019811605060034804700020F2
:104AE0001CBD0020C043FBE76302002064020020DD
:104AF000A005002010B5054909780A31044A12784A
:104B0000881A0A21FBF70CFBC8B210BD6302002013
:104B10006402002000220A7082794A7042798A7009
:104B20000279CA70C2780A7182784A7142788A71B1
:104B30000278CA717047000001200149087070476F
:104B40000603002010B500212B4801F0CAFA00200E
:104B5000294920318880294888810121264801F08F
:104B6000C0FA0121C9022648FDF710FB012804D133
:104B700024480078401C2349087023480078401CD2
:104B80002149087008460078C007C00F002832D1BC
:104B90001C480078C007C00F002817D01B480168C8
:104BA000406849184041194A116050600121C9020A
:104BB0001348FDF7EBFA002804D114480078401C94
:104BC0001249087000200F49087014E000210A48BB
:104BD00001F087FA0C480078842803D10B4803C8F9
:104BE000FFF766FF0021094A116051600020064965
:104BF00008700449087010BD000400400C26000035
:104C000000080140610200206002002078020020BC
:104C100009480088002804DD07480088401E06492E
:104C2000088005484088002804DD03484088401E6D
:104C30000149488070470000FC02002010B51B4865
:104C4000C07D012818D11A480079012814D11848CC
:104C5000008800280AD104F087FA002806D06420D2
:104C6000FEF724FF00201249087105E01048408833
:104C7000002801D10E4908710E480088002813D180
:104C80000D480078012803D00C480078002804D093
:104C9000002009490870094908700948007800286F
:104CA00002D000200649087010BD0000A0080020B6
:104CB000FC0200200803002007030020FA02002065
:104CC000FB02002010B5502200210448FBF757FAE0
:104CD0000020034908700349087010BDA00500209A
:104CE000630200206402002070B504460E4615469B
:104CF000072E3FD007DC330002F0DCF9078C141BD1
:104D0000222A31378C00172E4AD006DC082E36D0E6
:104D1000092E39D00A2E7DD13DE0182E4FD01A2E03
:104D200078D151E03F4801192846FCF7F9F80424EE
:104D300075E03C480119281DFCF7F2F804246EE0E8
:104D40003848011928460830FCF7EAF8042466E0E0
:104D5000344801193448FCF7E3F804245FE004F018
:104D6000EFFA30490855012459E0287E2D490855AD
:104D7000012454E0287D2B49085501244FE0687D2B
:104D80002849085501244AE02846FDF797FA2549A5
:104D90000855012443E0A87C2249085501243EE03F
:104DA000224880781F490855204841781D4A601CD8
:104DB00011541E480178A01C115403242FE0FF2039
:104DC0001849085501242AE02846FDF7AFFA15498D
:104DD00008550846005D012804D0022807D00328A2
:104DE00010D10AE00F210F4A601C11540FE014216A
:104DF0000C4A601C11540AE00CE01921094A601C9D
:104E0000115404E00021074A601C115400BF00BF88
:104E1000022404E0FF2003490855012400BF00BF1D
:104E2000204670BD45070020C4060020B2020020C5
:104E3000F8B5FBF77FFF002800D0F8BDFE484479A5
:104E4000F0210C40402C23D104F07AFA002822D122
:104E5000FA48007800281ED0F8480078401EC0B2FA
:104E6000F6490870002816D1F5490870F548FBF797
:104E70009EF9002805D0F348FBF799F961048842B0
:104E800003D16420FEF712FE05E0FEF7BBFC02E052
:104E90000020EB490870202C01D0802C0DD1E9486E
:104EA0000838C07D012808D1E7480079012804D1DD
:104EB000E5490871FF202D300880FBF7D3FF00285B
:104EC00063D0A02C16D16420FEF7F0FD0120DF494D
:104ED000087008460178DEA003F0EDF90020D749FC
:104EE000087000F091FEDF48DF4908800020DF49AC
:104EF0000870A2E7D5480078002803D1DB48007885
:104F0000002804D002F0ACF8002800D095E7CA4889
:104F1000407909280BD1C84880782038C7B264206E
:104F20003D464543EF093846FEF74AFD85E7402CEC
:104F30005AD10A20C1490870C4480078012825D1F7
:104F4000CA4800784006000EC84908700846007834
:104F5000002803D108460078401C0870C348007838
:104F60008021084000280AD0FFF7E8FCC049002053
:104F7000085EFEF70FFB0020BC49087002E06420C9
:104F8000FEF794FDB748B849088085E204F0D8F9E7
:104F9000002807D1B348B4490880A9480078401CCC
:104FA000A74908700020B1490870A548007804217D
:104FB0000840002814D00020A1490870A149091D0B
:104FC000AC480068FBF7FDF89E48083800F028FF61
:104FD0000028DAD0A6490020085EFEF7DBFA5BE283
:104FE0006420FEF763FD57E2802C77D100209749BB
:104FF00008709E480078002856D09C480078C0076A
:10500000C00F002803D00120FBF7B2FC44E0974812
:10501000007802210840002813D08A4908399548B1
:105020000068FBF7CEF88748083800F013FF854882
:105030000838FEF7A1FB8F4801688FA003F03BF909
:105040002AE08A48007810210840002805D0002076
:105050008649087004F076FAEFE684480078082163
:105060000840002802D0FBF7B5FF15E07F48007824
:1050700020210840002802D0FBF70AFC0CE07B4806
:10508000007840210840002802D0FBF7ABFC03E089
:10509000002076490870D0E60020744908707449F1
:1050A000085EFEF777FAF7E166480838C07D012808
:1050B0000FD104F045F9FF2803D163480079012896
:1050C00007D1012060490871FF202D300880704809
:1050D00048800120FEF7EAFCDEE1FFE7202C74D1D6
:1050E0003220594988710020584908705F4800787B
:1050F000002850D05D480078C007C00F002803D0BA
:105100000020FBF735FC3EE05848007802210840BB
:1051100000280ED04B49091F56480068FBF751F88C
:105120004848083800F04EFE46480838FEF724FB91
:1051300029E04E48007810210840002805D00020C2
:105140004A49087004F016FA77E6484800780821C2
:105150000840002802D0FBF733FF14E043480078F2
:105160002021084000280AD036480838FBF792FD75
:105170003448001DFBF71BF83E49086003E000209F
:105180003A49087059E60020384908703849085EE5
:10519000FEF700FA80E12B480838C07D01280FD1C6
:1051A00004F0CEF8012803D127480079012807D15F
:1051B000012025490871FF202D300880344848809F
:1051C0000220FEF773FC67E1FFE7102C62D127484D
:1051D0000078002803D01D48007800280DD0012059
:1051E000224908700020154908701849087000F01D
:1051F0000BFD1C481C4908801FE601F031FF002808
:1052000000D01AE6194800784006000E17490870C9
:105210000846007880210840002809D0FFF78EFB5F
:1052200013490020085EFEF7B5F900200F49087009
:105230000C480D4908802FE168020020040300207B
:10524000FB020020A8080020FC0200200703002029
:105250006252656D6F74655F53747564792025645F
:105260000A0000001027000008030020FA020020B6
:105270003C960008EC0200207570206C696E697421
:10528000207365742E20706F732025640A0000005F
:10529000B80B0000002C96D1804840790007000F21
:1052A000032802D17D48867801E07C48C6793046E3
:1052B0006638030001F0FEFE170D151D262E363F41
:1052C0004D5F676F778A9B9EA7B0B9C1EEC9D2E5E3
:1052D000EE0073480068054629352846FEF704FAB3
:1052E000D9E06F4800680546BA352846FEF7FCF954
:1052F000D1E06B4800680546FF3575352846FEF756
:10530000F3F9C8E0664800680546293D2846FEF7DF
:10531000EBF9C0E0624800680546BA3D2846FEF752
:10532000E3F9B8E05E4800680546FF3D753D284654
:10533000FEF7DAF9AFE05B4959480068FAF741FF38
:10534000584800F087FD58490020085EFEF722F912
:10535000A1E05449091D52480068FAF732FF51484C
:1053600000F030FD4F48FEF707FA4F490020085E75
:10537000FEF710F98FE0FBF72DFE4B490020085E89
:10538000FEF708F987E0FBF71BFE47490020085E9F
:10539000FEF700F97FE0FBF7F5FD43490020085ECA
:1053A000FEF7F8F877E03F48007E00280DD03D4832
:1053B000FBF770FC3B480C30FAF7F9FE38490860FF
:1053C00039490020085EFEF7E5F864E035490C3104
:1053D00033480068FAF7F5FE324800F021FD002856
:1053E00004D031490020085EFEF7D4F853E0FEF700
:1053F00009FA50E03220FBF723FB2B490020085E1E
:10540000FEF7C8F847E04B20FBF71AFB26490020BF
:10541000085EFEF7BFF83EE06420FBF711FB22496F
:105420000020085EFEF7B6F835E0FBF7DBFA1E4910
:105430000020085EFEF7AEF82DE0FBF729FA1A49C6
:105440000020085EFEF7A6F825E00120FBF790FAA1
:1054500015490020085EFEF79DF81CE01148007E0B
:1054600000280DD10F48FBF715FC0E480C30FAF759
:105470009EFE0B4908600C490020085EFEF78AF882
:1054800009E00020FBF774FA07490020085EFEF7E8
:1054900081F800E000BF00BF00BFCEE4680200203A
:1054A000EC020020A00800203C9600080178C27998
:1054B0000270C1714178827942708171817842793C
:1054C00082704171C1780279C27001717047000029
:1054D00000B5FBF769FD1248007E002803D00020CC
:1054E0000F49087602E001200D49087601200C4999
:1054F000887500200875012048754B210848017403
:105500000021417400200649C8758020887408185D
:10551000807C0221084302498031887400BD00006C
:105520001406002038B50025002000902748007898
:1055300001284AD10020254908702549087069468C
:10554000244801F007FA0446012C17D16846027876
:1055500020492148FAF7F8FD20480068401C1F49FF
:10556000086004E0284600F03DF84019C5B26846DE
:1055700000788542F6DBFDF7BFFF26E0022C24D140
:105580006846027813491448FAF7DEFD124800789D
:10559000AA281AD110484078BB2816D10E48807826
:1055A000CC2812D101F044FE01F02EFE0C48FDF78C
:1055B00041F80320FDF738F83220FDF71FF8FDF71A
:1055C0002BF8FDF721F800BFFEE738BDB802002038
:1055D000B50200204D0800200D080020D402002054
:1055E00055550000F0B5CFB00446002500204B9083
:1055F0004A906846FBF736F99022694624A8FAF7E4
:10560000A3FDFE49201D085C4E90601D085C4D9076
:105610000846005D5A2875D1601C085CA528FAD19F
:10562000A01C085C5A28F6D1E01C085CA528F2D121
:105630004D9AD21DD1B2F14A101902F01FFE002876
:10564000E9D14E98012804D002282ED003287CD11D
:10565000F9E0264615E0B01DE849095CA81DE84AB6
:105660001154681CC5B2B01DE44A115CA01D40195C
:10567000C3B224AA1846FFF737FB4019C5B2701C05
:10568000C6B24D982018B042E5DC8120DC49087193
:1056900008464571E81DDB49087001F0F3FBDA4864
:1056A0000068401CD849086044E20125D349A01D88
:1056B000085CD3498871D149A01D085C092809D12B
:1056C00028A8C079D14908700120FEF72DFBFDF70D
:1056D000DBFCADE0C949A01D085C0A2809D128A857
:1056E000C079CA4908700220FEF71EFBFDF7CCFC0A
:1056F0009EE0C249A01D085C0B2804D16420FEF77F
:1057000013FB95E017E2BD49A01D085C0C2828D1C9
:10571000E01D085CBE49087008460078642803D183
:105720000120FEF701FB06E0B9480078002802D10D
:105730006420FEF7F9FAB7492498884208D02598E2
:10574000FF2805D0B248007800E0F2E1FEF738F912
:10575000AA49E01D085CAA49C8710225FDF794FC1E
:1057600066E0A649A01D085C182812D1E01D085C5F
:10577000A349C8710846C079002803D10320FEF769
:10578000D3FA02E00420FEF7CFFA0225FDF77CFCF5
:105790004EE09A49A01D085C192820D10A46E11D57
:1057A000501803F0C9FE07460F2F00DA0F273846BE
:1057B000FDF7E4FE279940184C904C98FDF794FFB4
:1057C0008E49E01D085C8E49C8718C49204608301E
:1057D000085C8B4908720325FDF756FC28E08749D1
:1057E000A01D085C1A2820D10A46E11D501803F0BC
:1057F000A3FE07460F2F00DA0F273846FDF7BEFE3F
:105800002799081A4C904C98FDF76EFF7B49E01DD4
:10581000085C7B49C871794920460830085C7849A2
:1058200008720325FDF730FC02E0FE207449C871C0
:1058300082207349087108464571E81D7149087056
:1058400001F020FB76E102256C49A01D085C6C4943
:1058500088716A49E01D085C6949C8716749A01DE3
:10586000085C0D2812D1E01D085C012806D124A88F
:1058700000F0F0FA24A8FDF77FFF01E0FBF7AAFB98
:1058800065490020085EFDF785FE47E15B49A01DE4
:10589000085C0E2812D1E01D085C012806D124A85E
:1058A00000F090FA24A8FDF767FF01E0FBF788FB02
:1058B00059490020085EFDF76DFE2FE14F49A01DFC
:1058C000085C162807D1FBF75DFB53490020085EF2
:1058D000FDF760FE22E14949A01D085C0F280AD1AE
:1058E0004E4800F09DFA0028CFD04B490020085EBA
:1058F000FDF750FE12E14149A01D085C10280FD1B0
:1059000028A8017A3D4AE01D105C814202D024A8FB
:10591000FBF7C0F940490020085EFDF73BFEFDE0C3
:105920003649A01D085C11280CD1E01D085C28A98F
:1059300008710879FAF7A0FF37490020085EFDF7E3
:1059400029FEEBE02D49A01D085C12280CD1E01DBA
:10595000085C28A948714879FAF7B2FF2E4900205F
:10596000085EFDF717FED9E02449A01D085C132846
:1059700019D1A01D085C224988712049E01D085CEE
:10598000012806DCE01D085C28A988718879FAF7EF
:10599000B9FF28A880791A49C8711F490020085EFC
:1059A000FDF7F8FDBAE01549A01D085C142844D1A4
:1059B00020460830085C1249087210492046093018
:1059C000085C0F4948720D4920460A30085C0C49B2
:1059D00088720846007A00024B900846C1794B98BD
:1059E000081880B24B900648807A00024A9004481A
:1059F000417A4A98081880B24A9011E00D080020B8
:105A000045070020B6020020D8020020C202002074
:105A1000C302002000FFFF003C960008A008002001
:105A2000052540A94B98488440A84A9981840821BB
:105A300048A80170FDF742FB70E04149A01D085CD9
:105A4000152805D1FDF702FB0320FBF7A9FC65E053
:105A50003B49A01D085C17280CD1E01D085C28A953
:105A600088708878FAF720FF36490020085EFDF735
:105A700091FD53E03249A01D085C18280BD1FBF7BB
:105A800093FA0021304AE01D11542E490020085E8F
:105A9000FDF780FD42E02A49A01D085C19280BD1C2
:105AA000FFF716FD0021284AE01D1154254900206A
:105AB000085EFDF76FFD31E02149A01D085C1A2842
:105AC00029D1E01D085C032803DCE01D085C0028E8
:105AD00003D1FD201C49C87120E0194AE11D505C2A
