:020000040800F2
:1000000058150020D900000809400008C125000843
:1000100000000000000000000000000000000000E0
:10002000000000000000000000000000695C000803
:100030000000000000000000294200088D5F000859
:10004000EB000008EB000008EB000008EB000008E4
:10005000EB000008EB000008C10F0008C90F000802
:10006000CB0F0008EB000008EB000008EB000008D5
:10007000EB000008EB000008EB000008EB000008B4
:1000800029600008EB00000849600008EB00000848
:10009000492C000829040008EB000008EB000008C8
:1000A000EB000008EB000008EB000008EB00000884
:1000B000EB000008712E0008EB000008EB000008C0
:1000C0000448854600F086F8004800477D86000811
:1000D000C046C046581500200448804704480047E1
:1000E000FEE7FEE7FEE7FEE7FEE7FEE7B55F000896
:1000F000C100000830B50B46014600202022012433
:1001000009E00D46D5409D4205D31D469540491B4B
:100110002546954040191546521E002DF1DC30BD94
:1001200070B500242546002801DA01244042002948
:1001300001DA01254942FFF7DDFFAC4200D0404221
:10014000002C00D0494270BD03460B439B0703D0EF
:1001500009E008C9121F08C0042AFAD203E00B788C
:100160000370401C491C521EF9D27047D2B201E004
:100170000270401C491EFBD270470022F6E710B502
:1001800013460A4604461946FFF7F0FF204610BD05
:1001900030B505460020034600E05B1C934205D2C3
:1001A000EC5CC85C201A01D1002CF6D130BD0321D3
:1001B000001D401E037812021A43491EF9D510464D
:1001C0007047034603220870000A491C521EFAD5E4
:1001D00018467047064C0125064E05E0E36807CC3B
:1001E0002B430C3C98471034B442F7D3FFF76CFF15
:1001F000B0980008D098000870B58C180578401C9D
:100200006B075B0F01D10378401C2A1106D10278DD
:10021000401C03E006780E70401C491C5B1EF9D19F
:100220002B0705D40023521E0DD40B70491CFAE78E
:100230000378401CCB1A921C03E01D780D70491CFA
:100240005B1C521EF9D5A142D8D3002070BD00001E
:1002500004480088002804D002480088401E014954
:1002600008807047F002002002688A4302607047ED
:1002700070B505460C46002D08D10021FF20013045
:1002800004F02EF8204604F01DF806E00121204677
:1002900004F026F8002004F015F870BDF0B504460F
:1002A00000200025072914DD20690E46083EB7000E
:1002B0000F26BE4035460646AE4330460E46083E43
:1002C000B6001F46B7403D4606462E4330462061E5
:1002D0000FE060698F000F26BE4035460646AE43EC
:1002E00030468E001F46B7403D4606462E433046F8
:1002F0006061072A14DAA06B561EB700F7190F26A3
:10030000BE4035460646AE433046561EB700F61987
:100310000F46B7403D4606462E433046A0632CE0CC
:100320000D2A14DA606BD61FB700F7190F26BE40EE
:1003300035460646AE433046D61FB700F6190F467F
:10034000B7403D4606462E433046606315E0206BBD
:1003500016460D3EB700F7190F26BE403546064635
:10036000AE43304616460D3EB700F6190F46B7406D
:100370003D4606462E4330462063F0BD002904D09A
:10038000826801231A43826003E0826852085200A7
:1003900082607047002905D0826805231B051A4337
:1003A000826004E0826805231B059A4382607047DF
:1003B00000B587B001210C2004F0A8F801A801F0D5
:1003C000BDFE40200190032002900020039001A96F
:1003D000074801F0BFFD012001900320029000209A
:1003E000039001A9034801F0B5FD07B000BD00006E
:1003F00000080140000C01400146086D80B27047C2
:100400000246002013680B40002B01D0012000E0C1
:100410000020704702460020536D0B40002B01D096
:10042000012000E00020704710B502218448FFF74A
:100430001BFF10218248FFF717FF8148FFF7DCFF01
:1004400080490880084602887F48407B1221484343
:100450007D49183943187C48417B122041437A4832
:1004600018380818007C40001A527748407B122147
:100470004843754918394018007C401CC2B2724884
:10048000407B1221484370491839401802746E4865
:10049000407B122148436C4918394018007C0828D9
:1004A0007ED100226848407B1221484366491839B2
:1004B000401802746448407B12214843624918394D
:1004C000095A6148407B12225043604A1268115217
:1004D0005D48407B122148435B49183940184188E8
:1004E0005948407B12225043584A12688018418074
:1004F0005548407B12214843534918394018818898
:100500005148407B12225043504A12688018818023
:100510004D48407B122148434B4918394018C18847
:100520004948407B12225043484A12688018C180D3
:100530004548407B122148434349183940180189F6
:100540004148407B12225043404A12688018018182
:100550003D48407B122148433B49183940184189A6
:100560003948407B12225043384A12688018418132
:100570003548407B12214843334918394018818956
:100580003148407B12225043304A126880188181E2
:100590002D48407B122148432B491839401800E070
:1005A00031E0C1892848407B12225043274A126813
:1005B0008018C1812448407B1221484322491839C0
:1005C0004018017C2048407B122250431F4A126889
:1005D000801801741C48407B122148431A4918397D
:1005E0004018417C1848407B12225043174A126839
:1005F0008018417401211448407B12225043134A51
:100600001268801841741048407B401CC1B20E48EB
:100610004173407B022802DB00210B4841730A48EA
:10062000407B0B49095C084801730246107B203A65
:1006300011688847044920394868804710BD000088
:100640000008024028020020B404002078020020A4
:100650002C98000830B50246002000235068FF2582
:1006600001350446AC4320460C78240220435060F8
:1006700090680C4C20404D688C682C434D786D0080
:100680002C4320439060106B0F252D050446AC438E
:1006900020460C7B641EE4B223431C0520431063F8
:1006A00030BD0000FDF7F1FF10B502460020506D8F
:1006B0000B78002B02D00123184301E040084000D2
:1006C0004B78002B02D00223184303E00224034698
:1006D000A34318468B78002B03D001235B021843F9
:1006E00004E0012464020346A3431846CB78002BA0
:1006F00003D0FF230133184304E0FF2401340346F1
:10070000A343184610240346A34318460B79012B34
:1007100001D110231843506510BD000070B5044688
:1007200002211048FFF76CFE0546012D17D102216A
:100730000C48FFF799FD10210A48FFF795FD09487D
:10074000FFF75AFE20800623012208210548FFF703
:10075000A5FD01210348FFF71DFE012070BD00200B
:10076000FCE700000008024001460A48814205DB20
:1007700009480088401C084A108002E00020064A10
:10078000108005480088642801DB012070470020A4
:10079000FCE70000BD0200008A02002000B587B01F
:1007A00001A801F0CBFC0220019003200290002060
:1007B000039001A9024801F0CDFB07B000BD000085
:1007C000000C014000B587B001A801F0B7FC022081
:1007D0000190012002900020039001A9024801F03D
:1007E000B9FB07B000BD0000000C014010B5044685
:1007F000002C04D00221044801F0BAFC03E00221DD
:10080000014801F0B3FC10BD000C014010B50121FE
:10081000082003F07BFE10BD10B501210C2003F071
:1008200075FE0121080303F041FE012003F07EFE66
:1008300003F0B4FF0446012C01D000BFFEE70721FE
:10084000C902002003F024FD08210020FFF710FD5D
:1008500010BD000010B504468D2202492046FFF766
:1008600073FC10BD340600200449897C0222114328
:10087000024A91741146803908757047B406002009
:1008800010B501F0F9F80348807C022108430149C2
:10089000887410BDB40600200449897C02221143EB
:1008A000024A91741146803988747047B40600205A
:1008B0000449897C02221143024A9174114680390D
:1008C00048757047B406002010B504460548807C82
:1008D00002210843034988747C392046FFF771FCE4
:1008E00010BD0000B40600200149C8717047000027
:1008F000B40600200449897C02221143024A917403
:100900001146803988757047B406002010B504463A
:100910000548807C022108430349887478392046C1
:10092000FFF74FFC10BD0000B40600200449897C8D
:1009300002221143024A91741146803908767047A9
:10094000B40600200449897C02221143024A9174B2
:1009500011468039C8757047B406002010B50446AA
:100960000548807C01210843034988747439204676
:10097000FFF727FC10BD0000B406002030B5A5B07D
:100980000546284604F0E4FD002404E0295D08A89B
:100990000155601CC4B2072CF8DB01A801F078F8FF
:1009A000012805D10348807C02210843014988744D
:1009B00025B030BDB406002010B501F08DF8034815
:1009C000807C022108430149887410BDB4060020D0
:1009D00010B5A4B00446204604F0BAFD00230DE093
:1009E000E15C07A8C154C15C09488079C200121AB1
:1009F000074864381018C154581CC3B2072BEFDBEA
:100A00000348807C022108430149887424B010BD4A
:100A1000B40600200449897C02221143024A9174E1
:100A20001146803948767047B40600200449897C15
:100A300002221143024A917411468039C8767047E8
:100A4000B406002010B504460548807C0221084306
:100A50000349887480392046FFF7B3FB10BD0000BE
:100A6000B40600200449897C02221143024A917491
:100A70001146887170470000B40600200449897946
:100A8000CA00521A0249643951188871704700002F
:100A9000B406002010B5002406F016FC002800D192
:100AA00010BD00BFEFF310800446012006F0EAFB02
:100AB0001448007B012803D1204606F0E3FBEFE752
:100AC000012110480173204606F0DCFB0D48807CB4
:100AD00002210840002806D00A48807C8843094942
:100AE000887401F087F800BFEFF3108004460120FE
:100AF00006F0C8FB002103480173204606F0C2FB44
:100B000000BFCDE7B406002010B501F03FF910BDDD
:100B1000F3B583B004460025022C02DB002005B0AB
:100B2000F0BD00BFEFF310800546012006F0A7FBE3
:100B30001220604318494018407C0190284606F076
:100B40009EFB0198002825D000BFEFF310800546DA
:100B5000012006F094FB0021122060430E4A801809
:100B600041740027002608E0122060430A4940181B
:100B70007100405AC719701CC6B2082EF4DB284613
:100B800006F07DFB7803000C02900499029808801F
:100B90000120C4E70020C2E7100600202A49097896
:100BA000002906D001290FD0022923D0032948D1DA
:100BB0002AE0A1218900884205DC0121224A117026
:100BC0000A21224A11803DE020490988002910D1DC
:100BD000A1218900884209DC02211B4A11701C49AD
:100BE0000978032211431A4A117002E00021164AC3
:100BF000117027E01749884205DD0321124A117060
:100C00006421124A11801DE010490988002917D17A
:100C10001049884211DD00210B4A11700C490978F6
:100C2000022211430A4A1170114609784908490005
:100C300011700021044A117002E00221024A117071
:100C400000E000BF00BF70477C020020820200204D
:100C500080020020BD02000010B5024808F0BAFD75
:100C600010BD0000D000002070B50446207E012891
:100C700002D10020207601E001202076207EFFF7BF
:100C800055FE201DFFF793FAFF2805D02046FFF7F9
:100C90008EFA1C49884202D100F05EF931E020460C
:100CA000FFF785FA0646201DFFF781FA3618204621
:100CB0000C30FFF77CFA351A21460C312846FFF735
:100CC00080FA2046FFF773FA0646201DFFF76FFAF9
:100CD000361820460830FFF76AFA351A21460831DF
:100CE0002846FFF76EFA20460C30FFF760FA0546FB
:100CF000FFF734FE20460830FFF759FA0546FFF7A4
:100D000005FE70BD00FFFF001CB5454840790F2867
:100D100002DD00214248417141484079002801D15B
:100D200001201CBD002474E0E1000A1B3C49643929
:100D30005018694603F040FF3A484079C007C00F99
:100D4000002806D16846807836498978884200D0E4
:100D50005DE06846C0783349C978884200D056E0E3
:100D6000684600792F490979884200D04FE06846EB
:100D700040790007000F2B4949790907090F88427C
:100D800000D044E028480078002807D027480078A1
:100D9000401EA04202D0002023490870601C234955
:100DA0000870234800780978884206D01F480078E8
:100DB0001F4908702046FFF755FE6846807919499B
:100DC0008979884207D16846C0791649C97988422D
:100DD00001D10020A5E76846807912498979084049
:100DE000002806D16846C0790E49C9790840002814
:100DF00001D0002095E70B494878FFF73FFE0D48EA
:100E00000078012801D102208BE7032089E7601CCC
:100E1000C4B203484079A04286DC012081E700008B
:100E20003C090020600200202F0300202E03002038
:100E3000430300202703002010B5114800780F2835
:100E400003DA0F480078012801DA002010BD0D48B0
:100E500040780D490A4A1278895C88420ED00948C8
:100E600040780949064A1278885406494878FFF7BD
:100E700005FEAA20054908700120E7E70020E5E704
:100E80002E030020600200203403002031030020E4
:100E900030B510480078401EC5002D1A0E4828189D
:100EA000827912020D4883791B02012100240DE092
:100EB00010460840002805D118460840002801D0F7
:100EC000012030BD4804010C601CC4B2102CEFDBC3
:100ED0000020F6E72E030020D80800206002002042
:100EE0000246002003E0135C0B54431CD8B20228D6
:100EF000F9DB70470246002003E0135C0B54431CEF
:100F0000D8B20428F9DB7047002905D0054A126BD6
:100F10000243044B1A6304E0024A126B8243014B02
:100F20001A6370470070004004480088002804D00D
:100F300002480088401E014908807047EE020020E8
:100F400000B5034604E07D20C00007F027FB5B1ED0
:100F5000002BF8D100BD000010B50748FFF772FD67
:100F6000FF20FFF7B1FC0120C005FFF7CFFC0120F7
:100F7000C005FFF7F3FC10BD00FFFF00002104488F
:100F800041718171807C0221084301498874704756
:100F9000B406002010B5FF20FFF796FC0120C00525
:100FA000FFF7B4FC10BD000010B50448FFF74AFD80
:100FB0000120C005FFF7AAFC10BD000000FFFF00E4
:100FC00010B504F06DFF10BD704710B50120C002D0
:100FD00000F01CF8002805D00120C00200F010F835
:100FE00003F0DCFC202000F011F8002806D02020BF
:100FF00000F006F807F054F807F042F810BD0000C2
:10100000014948617047000000040140014600208A
:101010000022074B1B680B401A46054B5B690B40CF
:10102000002B03D0002A01D0012000E000207047EF
:1010300000040140002120498279002A35D00A4667
:10104000126803689A430B461A600A46526803689E
:101050009A430B465A60027951180A6803681A438A
:101060000A60154A926803689A43134B9A601A46BD
:10107000D26803689A43104BDA604279102A0CD187
:101080001A46926803681A430B4B9A601A46D26854
:1010900003681A43084BDA600DE00749427951189A
:1010A0000A6803681A430A6005E0027951180A6861
:1010B00003689A430A607047000401400249C96806
:1010C0000143014AD16070470020024030B5044618
:1010D00007253420FFF7F2FF0B20000400F07EF814
:1010E0000546042D17D10D480069022108430B491C
:1010F00008610846446100694021084307490861C6
:101100000B20000400F06AF8054604480069044911
:10111000084002490861284630BD00000020024016
:10112000FD3F000007200D49C968C907C90F002904
:1011300001D0012010E00949C968042211400029AA
:1011400001D0022008E00549C96810221140002999
:1011500001D0032000E0042070470000002002407E
:101160000348006980210843014908617047000075
:101170000020024078B504460D4607260020009066
:101180003420FFF79BFF0120400300F027F80646BC
:10119000042E10D10948006901210843074908615C
:1011A0002560F00200F01AF8064604480069044978
:1011B000084002490861304678BD00000020024026
:1011C000FE3F0000024803494860034848607047FA
:1011D0002301674500200240AB89EFCD10B50346DF
:1011E0000724FFF79FFF044603E0FFF79BFF044639
:1011F0005B1E012C01D1002BF7D1002B00D106245E
:10120000204610BDFEB504460E46656800272068DE
:1012100001900020009000BF15E00101695AB14221
:101220000FD1010149194A6801998A4209D1012166
:10123000009101014919CF6801014919896802919A
:1012400004E0411C88B221898142E6DC00BF00989D
:10125000002804D0002F00D0B84702982060FEBDBF
:1012600010B50446204600F013F8052801D10020EF
:1012700010BD002020800120FAE710B5044620466A
:1012800000F038F8042801D1002010BD0120FCE74F
:1012900070B504460025002C01D1012070BD00BFAF
:1012A000EFF310800546012005F0E3FF1048407879
:1012B0000F490978884216D0284605F0DAFF0C4815
:1012C000407841000A48801C405A208008494978EB
:1012D000481CC117C90E091849114901411A044A8D
:1012E00051700520DAE7284605F0C3FF0320D5E753
:1012F0002804002070B5044613490978481CC1171A
:10130000C90E091849114901411ACDB200BFEFF3C6
:1013100010800646012005F0ACFF0B484078A8423B
:101320000CD0304605F0A5FF07480078410006487C
:10133000801C4452801E0570042070BD304605F0AC
:1013400098FF0220F9E7000028040020002002494D
:1013500048700870704700002804002008B500207D
:1013600000906846FFF77CFF002804D1684601889A
:101370000148FFF747FF08BD6C04002010B5044684
:101380002046FFF77AFF10BDF8B504460D46164615
:101390001F46656027602681FFF7D8FFF8BD000073
:1013A00010B5024808F016FA10BD0000C000002079
:1013B00010B50D48FEF7FBFE04460B48001FFEF774
:1013C000F6FE84420AD80848001FFEF7F0FE0446E5
:1013D0000548FEF7ECFE201A182803D200F0D6F8D4
:1013E00000F02CF910BD00003806002010B5FF20D9
:1013F000F530FFF7A5FD05F071FF00F0E7F9FFF705
:1014000049FB00F005F800F0A3FB00F0C7F910BDA0
:101410000548407B002803D101210348417302E0C5
:101420000021014841737047B406002010B55648AA
:1014300040790F280DDD0021534841710830FEF737
:10144000B6FE01214903084304464F490831FEF71F
:10145000B8FE4D484079002802D100214A488171E8
:10146000FFF7A6FF48488038807D01280FDD012066
:1014700045498039887508468830FEF798FE012175
:1014800049020843044640490831FEF79AFE3E48A7
:101490008038007D04280EDB00203B498039087528
:1014A00008468830FEF783FE80210843044636490B
:1014B0000831FEF786FE34488038407D04280FDB73
:1014C000012031498039487508468830FEF76FFEA3
:1014D000FF210131084304462B490831FEF771FE14
:1014E00029488038C07C20280EDB0020264980391E
:1014F000C87408468830FEF75AFE40210843044667
:1015000021490831FEF75DFE1F488038007E012822
:101510000FDD00201C498039087608468830FEF728
:1015200046FE0121C9020843044617490831FEF767
:1015300048FE15498039487C097C00020843A028F0
:1015400010DD7D210901104880380174090A4174B9
:101550008830FEF72CFE1021084304460A49083162
:10156000FEF72FFE00F026F807488038407E6428FA
:1015700004DC05488038407E322803DA4B200249DB
:101580008039487610BD0000B406002010B5084927
:101590000120C005FEF715FE05487C30FEF707FE6A
:1015A00008210843044602497C31FEF70AFE10BDBB
:1015B0004006002010B50B48FEF7F9FDFF2806D0C5
:1015C0000848001FFEF7F3FD0749884204D10020B8
:1015D0000449091F887603E001200249091F887623
:1015E00010BD00003806002000FFFF0010B500F01D
:1015F00011F9012803D000F0DFF800F055F800F0F1
:10160000B5F9012804D003490120C005FEF7D9FD32
:1016100010BD00004006002070B504460648C475A1
:101620008830FEF7C4FD01218902084305460249BE
:101630008831FEF7C6FD70BD3406002010B518498C
:101640001848FEF7BEFD1649091DFF20FEF7B9FD3B
:10165000134908310120C005FEF7B3FD104888305A
:10166000FEF7A5FD0121084304460D498831FEF728
:10167000A8FD0B488830FEF79AFD02210843044676
:1016800007498831FEF79DFD05488830FEF78FFD3C
:1016900004210843044602498831FEF792FD10BD3B
:1016A0003406002000FFFF0070B500240DE0002587
:1016B00007E00021E000021B194810184155681C82
:1016C000C5B2072DF5DB601CC4B20F2CEFDBFFF7B2
:1016D000B5FF0021124864304171FFF76BFF002015
:1016E0000F491C39C8740120887500200875012035
:1016F00048757D2000010874000A487480208874B1
:101700004B20C87648760020FFF786FF04486430F7
:10171000807C0221084302496431887470BD000056
:101720005006002000B58BB0202103A8FEF725FD50
:10173000002001900290174800F094F98A21039844
:10174000084303905B2109020398084303901B217F
:1017500089040398084303907D21090603980843F0
:10176000039003A90B4800F0E7F9042201A90948F6
:1017700006F044F8FFF798FF00210748417301463F
:101780000E310020FEF71DFD00F0E2F900F014F824
:101790000BB000BD00EC0008B406002010B50448F2
:1017A000407B4002034A8418204600F05BF910BDDC
:1017B000B406002000E4000810B5FFF7E7FE10BDF6
:1017C0000146088870470146086870471CB500202C
:1017D00000900190042269460D4806F00FF8684613
:1017E00000788A280ED1684640785B280AD168467E
:1017F00080786C2806D16846C0787D2802D1FFF732
:10180000F5FE01E0FFF78EFFFFF710FE1CBD0000A4
:1018100000EC0008F0B5A7B000202690902102A8A7
:10182000FEF7ABFC4F48019000278E2202A90198D9
:1018300005F0E4FF8D2102A806F092FE20A9497D63
:10184000884202D10120269001E0781CC7B2269878
:1018500001287DD11CA90331C97809061CAA0332CD
:101860009278120411431CAA0332527812021143D7
:1018700018AAD27C114308463B49FEF7A2FC1DA9D9
:101880000331C97809061DAA033292781204114364
:101890001DAA033252781202114318AAD27D1143B5
:1018A00008463149091DFEF78CFC1EA90331C97891
:1018B00009061EAA03329278120411431EAA0332AB
:1018C00052781202114318AAD27E114308462649C3
:1018D0000831FEF776FC20AA507823498874501FFF
:1018E0004078000218AAD17E08431F490874000AF4
:1018F000487420AA9078C874D07808751079487513
:10190000507988759079C875D0790876107A4876BC
:10191000507AC876907A887618AA517C124880301E
:101920004171917C81710026002514E000240AE0B9
:10193000A01902A9095CE800421B0B481C301018D2
:101940000155601CC4B2072CF2DBF01DC6B200E0EA
:1019500006E0681CC5B20F2DE8DB012027B0F0BD02
:101960000020FBE700E80008340600207CB50026D4
:1019700000200090019006226946354805F03EFFA0
:101980000521684606F0ECFD69464979884201D098
:1019900000207CBD6A4611782E484173694609795A
:1019A0000906D278120411436A4692781202114352
:1019B0006A4652781143084626490E31FEF701FC6B
:1019C0002448407B4002244A801804460722694686
:1019D000204605F013FF0621684606F0C1FD6A4661
:1019E0009179884201D1012601E0681CC5B2012E1F
:1019F0002CD16A46117817488079C200121A15480E
:101A00006438101881716946097909066A46D278E6
:101A1000120411436A469278120211436A465278C0
:101A2000114308460B497439FEF7CBFB6A465179DE
:101A30000848C171C0793040084908700548C0792C
:101A400002210840064908700120A2E70020A0E713
:101A500000F00008B406002000E400085102002055
:101A60005002002010B50446FFF7ACFB2046FFF7FC
:101A70002DFBFFF775FB10BD10B5002103488171E8
:101A8000417169226438FEF77AFB10BDB40600206C
:101A900010B502460F4840790F2801DD002010BD27
:101AA00000210CE010461C30435C0A484079C40019
:101AB000241A0848643820184354481CC1B2072926
:101AC000F0DB04484079401CC3B202484371012056
:101AD000E5E70000B406002010B5164A5279002A46
:101AE00000D110BD134A907914E000210EE0421C91
:101AF000D3009B1A0F4A643A9A18535CC200141A16
:101B00000C4A643AA21853544A1CD1B20729EEDB9E
:101B1000421CD0B2074A5279521E8242E5DC0023B1
:101B2000044A93715279521ED3B2024A537100BFD4
:101B3000D7E70000B406002070B505460C46FFF755
:101B400041FB28462168FFF715FBFFF709FB70BD35
:101B50001FB50024002002900390009001902348BC
:101B6000FFF780FF2248417B6846017220480E3013
:101B7000FEF71DFBC1B2684641721D480E30FEF7EC
:101B800016FB0004010E6846817219480E30FEF7FC
:101B90000EFB0002010E6846C17215480E30FEF7BA
:101BA00006FB010E68460173052102A806F0D8FC69
:101BB0006946487307E002AA11190C4AA018FFF7FA
:101BC000BBFF201DC4B2062CF5DB06226946074880
:101BD00005F014FE0622694602A8FEF7D9FA00288D
:101BE00002D1012004B010BD0020FBE700F0000886
:101BF000B4060020F0B5C9B000204890902124A878
:101C0000FEF7BBFA90216846FEF7B7FA002048902D
:101C1000002413E000250DE0E000011B59480818DE
:101C2000415D24AA489811544898401CC0B248907D
:101C3000681CC5B2072DEFDB601CC4B20F2CE9DBBA
:101C40003EA903314F481C38FFF754F93FA903312F
:101C50004C481838FFF74EF940A903314948143869
:101C6000FFF748F947481C38407E64280DD04548A6
:101C70001C38407E4B2808D042481C38407E322811
:101C800003D04B203F491C3948763E4864304179A7
:101C900038A841763B486430817938A88176394943
:101CA0001C39487C097C00020843C1B240A8C171BC
:101CB00034491C39487C097C00020843011240A8C1
:101CC000017230481C38817C40A841722D481C3874
:101CD000C17C40A881722B481C38017D40A8C1728C
:101CE00028481C38417D40A8017326481C38817D56
:101CF00040A8417323481C38C17D40A88173214806
:101D00001C38017E40A8C1731E481C38417E40A883
:101D100001741C481C38C17E40A8417419481C3805
:101D2000817E40A881748D2124A806F019FC40A969
:101D300048770026144F00BF3846FFF793FE002473
:101D400006E024AA11193819FFF7F6FE201DC4B2C7
:101D50008E2CF6DB8E226946384605F04FFD8E222A
:101D6000694624A8FEF714FA002804D0701CC0B2FB
:101D700006460328E0DB032E02DB002049B0F0BD5D
:101D80000120FBE75006002000E800087FB5002492
:101D9000002002900390009001902E488079C100AD
:101DA000091A2C4864380818817968460172294854
:101DB0007438FEF7FCF9C1B26846417225487438A0
:101DC000FEF7F5F90004010E684681722148743867
:101DD000FEF7EDF90002010E6846C1721D48743825
:101DE000FEF7E5F9010E684601731A48C1796846A5
:101DF0004173062102A806F0B3FB694688730025EB
:101E00001448407B4002144A861800BF002406E0B4
:101E100002AA11193019FFF78FFE201DC4B2072C3A
:101E2000F6DB07226946304605F0E8FC07226946E2
:101E300002A8FEF7ADF9002804D0681CC0B2054620
:101E40000328E3DB032D02DB002004B070BD01207A
:101E5000FBE70000B406002000E400087047000023
:101E600030B502460D4B8C10A4001B598C07250F72
:101E70000F24AC40A343094C8D10AD0063512346A1
:101E80008C10A4001B598C07250F1446AC4023432B
:101E9000024C8D10AD00635130BD000008000140C0
:101EA00000B587B00121042002F030FB01A800F04A
:101EB00045F9FF20013001900120029001A922483C
:101EC00000F048F8FF2101311F4800F051F90121CD
:101ED000042002F01BFB01A800F030F90120800271
:101EE000019000200290039001A9174800F032F8F9
:101EF0000121042002F00AFB01A800F01FF90120D3
:101F00004002019000200290039001A90E4800F0C9
:101F100021F8012149020C4800F01EF9002801D0E7
:101F2000012000E0002009490870012189020648CB
:101F300000F012F9002801D0012000E0002004493F
:101F4000087007B000BD00000008014051020020E9
:101F50005002002070B503460A46002100240020EC
:101F6000DCE001268E40156835402C46002C7DD0E3
:101F70005568022D02D05568122D20D108250D403C
:101F8000002D0ED0586A4D07EE0E0F25B5400646BF
:101F9000AE4330464E07F60E5569B54028435862A9
:101FA0000DE0186A4D07EE0E0F25B5400646AE430C
:101FB00030464E07F60E5569B540284318625568FD
:101FC000012D08D05568112D05D05568022D02D07D
:101FD0005568122D0BD1586801258D400646AE4339
:101FE00030461579ED06ED0F8D402843586018688E
:101FF0004E000325B5400646AE4330461579AD0781
:10200000AD0F4E00B54028431860D8684E00032538
:10201000B5400646AE4330464E009568B54028436D
:10202000D860986801258D400646AE433046D56895
:102030008D4028439860D86A01258D400646AE43FE
:10204000304615698D402843D86201263607556809
:102050003540B54261D1344D8E08B600A8598D0780
:102060002E0F0F25B5400646AE4300E055E0304642
:102070002E4DAB4201D100250AE02D4DAB4201D1DE
:10208000012505E02B4DAB4201D1022500E00525DD
:102090008E07360FB5402843234D8E08B600A85151
:1020A000254D28680546A54328460126360455686F
:1020B0003540B54202D10546254328461E4D2860CD
:1020C00068680546A54328460126760455683540CC
:1020D000B54202D1054625432846174D6860A868D9
:1020E0000546A54328460126360555683540B542C4
:1020F00002D10546254328460F4DA860E8680546ED
:10210000A54328460126760555683540B54202D1DB
:10211000054625432846084DE860491C1568CD4012
:10212000002D00D01DE770BD0800014000080140EF
:10213000000C01400010014000040140054901600D
:102140000F2141610021416081600121C1600021B6
:1021500001617047FFFF00000246002013690B4039
:10216000002B01D0012000E0002070478162704701
:102170008161704700211D480078012800D101438A
:102180001B480078012801D102200143194800783A
:102190008007800F174A1070104600788006000EE6
:1021A0001070104600784018107013481278805C48
:1021B000012802D1114A107008E00F480D4A127828
:1021C000805CFF2802D100200C4A10700C48007E71
:1021D000002805D00748007810221043054A1070E7
:1021E0000548044A1278805C7047000051020020C4
:1021F00050020020180300204C9800081003002013
:10220000BC08002010B51C48007801280DD11B48DF
:1022100000681B49884205D218480068401C1749CD
:10222000086002E016481549086013480078FF2846
:102230000CD112480068FF2805D910480068401EDC
:102240000E49086002E0FF200C49086007F03CF9E5
:1022500009490978884205D00A488089801C0949C3
:10226000888108E007488089002804DD05488089C6
:10227000401E0449888110BD080300200C03002083
:1022800000FFFF00AC080020F8B5044620460C30E3
:10229000FDF78DFF0646201DFDF789FF864201D818
:1022A000002523E020460C30FDF781FF064620463E
:1022B000FDF77DFF864201D3642517E02046FDF738
:1022C00076FF0746201DFDF772FF3E1A20460C30B0
:1022D000FDF76DFF0746201DFDF769FF381A6421E1
:1022E000484331460090FDF705FFC5B2A07E0028A7
:1022F00000D1FF252846F8BD0146487E642801D15B
:1023000003207047487E4B2801D10220F9E7487E20
:10231000322801D10120F4E70020F2E70A48407E8C
:10232000642802DB7D20000170470748407E4B286F
:1023300002DBE120C000F7E70348407E322801DBE2
:102340000248F1E70148EFE734060020DC05000011
:10235000002005E000218200054B9950411CC8B2C5
:102360000428F7DB0021024A117451747047000001
:10237000AC05002010B50446002C05D0FF2101312A
:102380000448FFF7F5FE04E0FF2101310148FFF7A3
:10239000EDFE10BD0008014010B501214902314891
:1023A000FFF7DAFE002801D0012000E000202E49CE
:1023B0000978884211D1012189022A48FFF7CCFE11
:1023C000002801D0012000E0002028490978884237
:1023D00003D10020264908703EE025480078401CC3
:1023E0002349087008460078052835DB002008706E
:1023F000012149021B48FFF7AFFE002801D0012050
:1024000000E0002018490870012189021548FFF7F3
:10241000A3FE002801D0012000E00020134908702D
:10242000144800681449097C8900134A505010462A
:10243000007C401C114608740846007C042801DB1F
:10244000002008740C48407C401C0B494874002054
:102450000849086000F01AF806480068401C054961
:10246000086010BD00080140510200205002002009
:102470005202002054020020AC05002010B5FFF7E6
:102480000FFD03F017FEFFF763FF10BD10B5FFF758
:1024900071FE0C490870FFF7B5FE0B480078002864
:1024A00005D10A480068401C0849086008E0064851
:1024B0000078012804D105480068401E03490860DF
:1024C00010BD0000080300201003002014030020AA
:1024D00000B587B00121042002F018F801A8FFF729
:1024E0002DFEFF20013001900320029001A9024837
:1024F000FFF730FD07B000BD0008014010B52648C9
:10250000407C002839D000202349487408460068E0
:10251000496840182049896840181F49C96840180F
:102520001E4908601C48006800280BD01A48406803
:10253000002807D018488068002803D01648C068D3
:10254000002803D100201549486016E013480068B0
:10255000002812D0114A116812685208104BD01886
:10256000FDF7C8FD04460D4840687021484321012D
:1025700040184030C009094948600848808914283B
:1025800008DB002005498881012003F001FD64205B
:1025900001F0D0FA10BD0000AC050020AC0800200E
:1025A000C027090010B5002007F0D4F80020FFF77D
:1025B000E1FEFFF78DFF10BD10B5FFF75FFF10BD07
:1025C00000BFFEE70149886070470000003000400E
:1025D0000148024908607047CCCC00000030004040
:1025E0000148024908607047AAAA00000030004074
:1025F0000149486070470000003000400149086010
:102600007047000000300040F8B50546002600275E
:10261000012D1EDA00240CE0204600F01FF80028EF
:1026200005D0701CC6B20120A0403843C7B2601C60
:10263000C4B2012CF0DB68000749085CB04206D147
:10264000680040184078B84201D10120F8BD002050
:10265000FCE70020FAE700003898000810B50446AF
:10266000E2001E4BD2189188E2009858FFF774FDE3
:10267000E1001A4A89188979884211D1E00011468F
:102680004018807916490978884202D015A005F0D3
:1026900084FFE0001149401880791149087011E069
:1026A000E0000E49401880790D490978884202D12E
:1026B0000DA005F072FFE000084940188079C04382
:1026C00007490870E00005494018807904490978F5
:1026D000884201D1012010BD0020FCE7309800089D
:1026E0002A0200206B640A006B750A00014800781A
:1026F000704700008E02002010B505F0E1F810BD13
:1027000010B50020034908700120487004F092FCC5
:1027100010BD00008C0200200848007800280AD173
:1027200006484078C007C00F002804D000200349A5
:102730004870012070470020FCE700008C02002058
:102740000848007800280AD006484078C007C00F23
:10275000002804D000200349487001207047002061
:10276000FCE700008C020020014800787047000060
:102770008C02002010B50220044908700120487026
:1027800004F058FC00F05AFE10BD00008C0200203E
:1027900010B5012002490870487004F04BFC10BDD0
:1027A0008C02002008B503200749087001204870FA
:1027B00004F040FC0120FF232D33C82202210090A9
:1027C000002005F03BFA08BD8C02002008B59F48A8
:1027D00000890221084000281FD09C4880790128E8
:1027E00016D19A4800898843984908810120984960
:1027F000087006F0AFFE002806D0642001F0D8FA79
:1028000001209449087008BD00209249087002E038
:1028100000208F49087000F0B1FE05F0A7FF0128E5
:1028200039D105F093FD02280DD005F08FFD032866
:1028300009D0864800890421084000282AD083480E
:102840008088062826D181480089082188437F494D
:10285000088100217D4881810089042188437B49CA
:1028600008810020888005F087FF06F02DFF0121F8
:1028700009037948FFF77AFC03F03EFC01200023AE
:10288000764A0221009005F0D9F975490020085ECA
:1028900000F0C2FEB7E76D488089012830D16B484F
:1028A00000890821084000282AD00021674881813A
:1028B0000089082188436549088166480078002816
:1028C00003D00020634908709DE700F001FC03205D
:1028D000FEF754FDFFF714FF61490020085E00F089
:1028E0009BFE0120FF2391336422022100900020EF
:1028F00005F0A4F901F0B6FC012801D104F09AFB1F
:102900005248008904210840002844D04F4880885C
:102910000A2812D14D4880885249097888420CD043
:102920004A4880884F4908700120FF23F5331A4632
:1029300002210090002005F081F944488088142885
:1029400012D1424880884749097888420CD03F48D4
:102950008088444908700220FF23F5331A46014657
:102960000090002005F06AF9384880881E2812D1AE
:10297000364880883B49097888420CD033488088A3
:10298000384908700320FF23F5331A4602210090CE
:10299000002005F053F92D48008902210840002845
:1029A00048D02A488079002844D1284800898843A3
:1029B00026490881084600890421084000282ED0B5
:1029C0002248808828282ADA204880881E280FDBA1
:1029D000012005F0D1FE012109031F48FFF7C8FBC4
:1029E00006F05AFE1E490020085E00F015FE16E0B3
:1029F00016488088142807DB05F038FE18490020A7
:102A0000085E00F009FE0AE0104880880A2806DB0C
:102A1000FEF7A2FA12490020085E00F0FDFD00203A
:102A20001049087009480089042188430749088132
:102A30000020888005488088082805DD03488088B4
:102A4000282801DA00F09AFD00BFDCE6C40400206B
:102A50008E0200209202002000080140B80B000006
:102A60006C9800089102002010B504F085FF10BD9D
:102A700010B500F083FD00F033FB012809D00848B1
:102A8000008902210840002808D0054880790128E3
:102A900004D10220FEF772FCFFF784FE10BD000097
:102AA000C404002030B5A5B001A8FDF7D3FE8D22E7
:102AB00001A93648FDF748FB35484079F021084028
:102AC0000446FEF721F90546324833490880A02C18
:102AD00006D101203149087003F000F925B030BD5E
:102AE000002D2FD1FEF7A8F9002800D1F6E72848DD
:102AF0004079A0210840002809D128480078002802
:102B000001D1402C03D0FEF7C3F9002811D10020D9
:102B100023490870FFF72EFE0220FEF72FFC00204D
:102B20001D490880102C03D11E49085E00F074FD79
:102B3000D4E7102C05D019480078002802D0402C8A
:102B400000D10225102C09D01448007800281BD091
:102B5000402C19D104F046FB002815D1284603F07B
:102B600085F810490020085E00F056FD00200C4951
:102B700008700A490870FEF75FF90220FEF7FEFBB5
:102B80007D20C0000849088000BFA7E7BC080020DE
:102B900060020020102700002803002027030020E7
:102BA000260300206C980008320300203EB504463E
:102BB0000120C005FEF724FA0120C0050190002184
:102BC00068460172082141720121817201A8FEF755
:102BD00031FA14216846017001214170847001F0BE
:102BE00033FA3EBD81880222114381807047018AF9
:102BF00049084900018270470189022291430181FD
:102C00007047018A01221143018270470189022223
:102C10001143018170470146088802221040400894
:102C20007047028B01837047828A81827047C26835
:102C300007235B029A430A43C2607047028A062355
:102C40009A430A430282704710B501212B4803F0D2
:102C5000E7FA002841D0FEF7A3FB04F033F904F0B3
:102C6000DDF900F047FA04F09DF901F005FB00F0F2
:102C70006DFC00F077FCFEF757F9FDF7E9FA204804
:102C80000088401C1E49088002F014F801F0D8FAB0
:102C90001C480088002804DD1A480088401E194995
:102CA000088019484079002804DD17484079401E03
:102CB0001549487114488079002804DD124880794C
:102CC000401E1149887106F08BFB05F03DFC06F0B3
:102CD00005FD0121094803F067FA0C48FFF79BFF47
:102CE000002809D0012004F0DBFB0848FFF77AFF39
:102CF0000120C005FEF784F910BD0000001000405F
:102D00004E020020280300201C030020000C00407D
:102D1000002119229201904201D1802100E0C1B22C
:102D2000014A11807047000000480040002906D089
:102D3000064A1279C3B21A43044B1A7104E0034ADB
:102D400012798243014B1A7170470000004800401D
:102D5000054909898904890C034A118111460989A9
:102D6000014311817047000000480040054909896E
:102D7000054A1140034A1181114609890143118115
:102D80007047000000480040FF4F000010B50121CF
:102D9000880401F0ABFB00210120800401F0A6FBB8
:102DA00010BD1CB504460120800500900021684636
:102DB0000171102141718471FEF73CF91CBD0000C6
:102DC000002806D00649098980221143044A11814E
:102DD00005E003490989034A1140014A11817047FE
:102DE000004800407F7F000000B587B00121092026
:102DF00001F08CFB01A8FFF7A1F908200190022047
:102E000002900520069001A90748FFF7A3F81020BB
:102E10000190012003900520069001A90248FFF7C8
:102E200099F807B000BD0000000C014010B5014644
:102E30000023002200204C04620E0124944022460C
:102E40000A4C247922401924A401A14201D18023F3
:102E500000E0CBB2054C24882340002A03D0002B8D
:102E600001D0012000E0002010BD0000004800401B
:102E700010B501208005FEF7C3F81C480079192120
:102E80008901084000280DD00846FFF7CFFF002831
:102E900008D019208001FFF73BFF00211920800195
:102EA000FFF744FF29204001FFF7C0FF00280BD0A7
:102EB0000E480079292149010840002804D008461D
:102EC000FFF726FF04F0BCF8FF200330FFF7AEFF4A
:102ED00000280AD0FF200330FFF71AFF0021FF204F
:102EE0000330FFF723FF04F0D7F810BD004800407F
:102EF000F0B58DB004460025002600200C900B9004
:102F000000BF00BF089000BF3A4805893A48054015
:102F1000A088E18808432189084361890843054363
:102F200034490D8101F006FC0646022E01D0032E25
:102F300002D132480C9017E0042E02D130480C9098
:102F400012E0052E03D10120C0030C900CE0012EED
:102F500005D101A801F00EFB01980C9004E001A836
:102F600001F008FB03980C9021680C98FDF7C2F85B
:102F70000B900B980A2804D801208003FFF7E8FE85
:102F800002E00020FFF7E4FE1A490B9888812168CF
:102F90000C98FDF7AFF81B4841430F4638462168AF
:102FA000FDF7A8F80A9000250A98099000200790DC
:102FB00018E0099808900A99089840180990114952
:102FC0000998FDF797F807460E490898FDF792F81B
:102FD0004740002F03D001200799884005430798F8
:102FE000401C079007980828E3D302490D750DB0DF
:102FF000F0BD000000480040F470000000127A00AC
:10300000307500001027000010B50446012108208B
:1030100001F07CFA230004F00FF9063B3704101D81
:103020002A3B012001F082FA00BF01F0B7FB012822
:10303000FBD1022001F0A8F92EE00120000401F0EC
:1030400069F900BF01F08CFB0128FBD1032001F0DE
:103050009BF921E0012001F07BFA00BF412001F043
:1030600049FB0028FAD0042001F08EF914E0042076
:1030700001F09AF900BF432001F03CFB0028FAD090
:10308000052001F081F907E0012001F07DF903E05E
:10309000002001F079F900BF00BF0121880401F090
:1030A00015FA10BD0148007C704700000048004040
:1030B000014A1074704700000048004010B504F049
:1030C00017FD012801D10149087010BD8F020020B1
:1030D000014802490880704710270000E2020020E2
:1030E00003480088002801D1012070470020FCE738
:1030F000E202002004480088002804D0024800882A
:10310000401E014908807047E202002010B50548C2
:103110000068022804D1FFF72DFB0220FEF72EF9EC
:1031200010BD00006C04002003200249087000203C
:10313000487070479402002010B504F037FE10BDAF
:1031400010B50446062221460348FCF7FDFF002087
:103150000149487010BD00009402002008B5B44831
:103160000078030004F068F813F70B18242F3A4690
:10317000538EBAC6D9E4F8F5F4F3F2F1F700AD488E
:10318000FF23F5331A4602210090002004F056FD7B
:103190000020A749087046E1002003467D22D200A6
:1031A0000146009004F04AFD0020A14908703AE170
:1031B00000200346A04A0146009004F03FFD002095
:1031C0009B4908702FE1002003460246014600900B
:1031D00004F034FD00209649087024E19548C82386
:1031E0001A4602210090002004F028FD002090499A
:1031F000087018E18F48FF23F5331A46022100902A
:10320000002004F01BFD0020894908700BE188486C
:10321000407800280BD10120C8231A4602210090D3
:10322000002004F00BFD01208149487029E080480E
:103230004078012811D1002004F0A8FD002820D1F9
:1032400001207D23DB00C82202210090002004F031
:10325000F5FC02207649487013E075484078022852
:103260000FD1002004F092FD00280AD10120C823CC
:103270001A4602210090002004F0E0FC01206C4975
:103280004870D0E06A48408800280AD168488088A1
:10329000002806D1034602460121009004F0CEFC2E
:1032A00018E063484088634988420AD160488088B2
:1032B000002806D1034602460146009004F0BEFCF9
:1032C00008E05C4800905A48838842880221002028
:1032D00004F0B4FC002056490870A4E00620FA234C
:1032E0001A4602210090002004F0A8FC002050495A
:1032F000087098E00020034602460121009004F087
:103300009DFC00200346024601210090084604F07F
:1033100095FC00204649087085E0002003460246DF
:103320000121009004F08AFC0020414908707AE0F5
:1033300001207D23DB00C82202210090002004F040
:103340007DFC00203A4908706DE05FE049E034E020
:1033500020E00CE000E065E0002003460246032187
:10336000009004F06BFC0020314908705BE0002005
:103370000346024601210090084604F05FFC00204D
:10338000034602460146009004F058FC00202849FC
:10339000087048E0002003460246014600900120E4
:1033A00004F04CFC0020034602460121009004F08A
:1033B00045FC00201E49087035E01E48FF23F53308
:1033C0001A4602210090012004F038FC0020034638
:1033D00002460121009004F031FC002014490870DD
:1033E00021E01448FF23F5331A4602210090002003
:1033F00004F024FC00200346024601210090084608
:1034000004F01CFC00200A4908700CE00020034670
:10341000094A01460090012004F010FC00200449F4
:10342000087000E000BF00BF04F096FD08BD00007A
:1034300094020020FFFF0000B80B000003200249A7
:1034400008700020487070479402002010B50446B0
:10345000E200044BD2189188E2009858FEF786FEED
:1034600010BD00003C98000810B50446E200044B73
:10347000D2189188E2009858FEF77AFE10BD00003D
:103480003C98000810B5064A91881068FEF76EFE59
:10349000034A91899068FEF769FE04F039FC10BD7B
:1034A0003C98000810B5FFF747FE10BD10B5214944
:1034B0000020FDF72DFB1F4800881F4908801D488C
:1034C0000088FDF76BFB1D480078C007C00F00287F
:1034D00016D01A48007802210840002810D017485A
:1034E000007817490870154800780221884313496D
:1034F00008700520FDF742FF01201249087018E00E
:103500000E480078C007C00F002812D10B48007881
:103510000221084000280CD00848007808490870AB
:1035200006480078022188430449087000200549B4
:10353000087010BD880200207E020020800200205A
:1035400081020020850200207047000004480088A6
:10355000002804D002480088401E014908807047B6
:103560008202002004480068002804D00248006855
:10357000401E01490860704740020020014802498E
:10358000086070478813000040020020014802498B
:1035900008607047881300004002002010B504F056
:1035A000DBFE05480068002805D10448007800F0DB
:1035B000FBFCFFF7EBFF10BD40020020440200209F
:1035C00008B50020034602460121009004F036FBB6
:1035D0000020FFF73BFF02210848FEF7C9FD00BFAE
:1035E00003F072FE0128FBD103F0F8FE0220FDF784
:1035F000C5FE01F0B9FB03F081FD08BD000C0140E0
:1036000010B504466421614389000846B430FF21A7
:103610006931FCF785FD10BD7CB504462DA004F092
:10362000BCFF04F0D3FF002807D12D48FCF7BFFDF5
:1036300000192C490968884227D9002004F0CCFFE2
:103640002748001FFCF7B3FD0546294626A004F0D5
:10365000A4FF012005F01AFF054600207D231B0171
:103660002A4601460094019005F0FAF8FF2005F083
:103670000DFF054600207D231B012A4601460094CC
:103680000190012005F0ECF822E01548FCF78FFDD1
:103690000546294618A004F080FFFF2005F0F6FE3D
:1036A000054600207D231B012A4601460094019017
:1036B00005F0D6F8012005F0E9FE054600207D233F
:1036C0001B012A46014600940190012005F0C8F82C
:1036D0007CBD00006D7420696E636820310A0000B3
:1036E000C00800200C0300205550206C696D6974DF
:1036F0002025640A00000000446F776E206C696D1D
:1037000069742025640A0000FEB505460E46314660
:1037100014A004F042FF002420E0FF2005F0B6FED4
:1037200007460020610600950190080E7D231B01CD
:103730003A46002105F094F8012005F0A7FE07465F
:1037400000206100491C00950190C8B27D231B0137
:103750003A46002105F084F8601CC4B2B442DCDBB8
:10376000FEBD00006D7420696E63682025640A0048
:1037700070B5044621461CA004F00FFF1E48FCF75C
:1037800016FDA04205D31C48001DFCF710FDA04209
:1037900000D970BD1948006884420FD9FEF7BEFDFC
:1037A00085B2012005F072FE064614480068231A0F
:1037B0002A463146002005F0F3FC12E00F4800686D
:1037C00084420ED2FEF7AAFD85B2FF2005F05EFE10
:1037D00006460A480068031B2A463146002005F0C9
:1037E000DFFC00BFD5E700006D742072756E207499
:1037F0006F2025640A000000BC0800200C03002094
:1038000070B50446201DFCF7D2FC05462046FCF7A7
:10381000CEFC854209D82046FCF7C9FC0546201D90
:10382000FCF7C5FC281A18282DD221461648FCF7AB
:10383000C8FC211DFF20FCF7C4FC21460C310120EF
:10384000C005FCF7BEFC214608310120C005FCF78D
:10385000B8FC2046FCF7ABFC0546FDF7F3F8201D4D
:10386000FCF7A5FC0546FDF72FF820460830FCF7CD
:103870009EFC0546FDF74AF820460C30FCF797FC05
:103880000546FDF76BF870BD00FFFF0070B53548C9
:10389000FCF78DFC0446214633A004F07EFE31483F
:1038A000FCF785FC0121C905884204D02D48FCF7AE
:1038B0007EFC002800D170BD05F02CFE002800D150
:1038C000F9E72848FCF773FC044626480838FCF75B
:1038D0006EFC844209D82348FCF769FC0446214861
:1038E000001FFCF764FC844205D21E490120C0057C
:1038F000FCF767FCDFE71B48FCF759FC1F49096828
:10390000884213D91748FCF752FC1C490968441A2D
:10391000FEF704FD85B2012005F0B8FD06462346FA
:103920002A463146002005F03BFC19E00D48FCF723
:103930003EFC12490968884212D20A48FCF737FC5B
:103940000E4909680C1AFEF7E9FC85B2FF2005F064
:103950009DFD064623462A463146002005F020FC00
:1039600000BFA8E7C40800206D7420746F206D6943
:1039700064646C652025640A000000000C030020CC
:1039800010B500242AA004F008FE2A480078002878
:1039900029D105F0F3FC002817D12748007800282A
:1039A00001D00120044325480078002801D00220DE
:1039B00004432046FCF798FF21480068FCF7CEFF3F
:1039C000FDF7A2F8FFF7FCFD30E00021084605F006
:1039D000DFFC00F041FC0120164908700103194882
:1039E000FEF7C6FB22E01348007801281ED100BF75
:1039F00000F01CFC0028FBD00F480078002801D004
:103A0000012004430D480078002801D0022004431F
:103A10002046FCF769FF0A480068FCF79FFFFDF7A6
:103A200073F8002003490870FFF7CAFD10BD0000BD
:103A300070640A00BC0200205102002050020020E5
:103A40000C03002000080140F8B505460024294673
:103A50002DA004F0A2FD642D00DDF8BD05F05AFD97
:103A600000284ED02E48FCF7A2FB07462C48001D2C
:103A7000FCF79DFB381A684306463236642130460F
:103A8000FCF738FB07462648001DFCF790FB3C1866
:103A9000214624A004F081FD2148FCF788FBA042C8
:103AA00005D31F48001DFCF782FBA04200D9D4E7D4
:103AB0001F480068001D84420FD9FEF72FFC86B214
:103AC000012005F0E3FC074619480068231A324636
:103AD0003946002005F064FB13E0201D14490968F5
:103AE00088420ED2FEF71AFC86B2FF2005F0CEFC0B
:103AF00007460F480068031B32463946002005F090
:103B00004FFB00BFA9E700006D742070657263650C
:103B10006E7461676520746F202564200A000000C0
:103B2000BC080020706F735F73742025640A000066
:103B30000C030020F8B50446642C26D17248FCF72B
:103B400036FB724909681E31884213D36E48001D46
:103B5000FCF72DFB1E306D49096888420AD86B4876
:103B60001E2102686AA004F018FD1E21002005F045
:103B70000FFCC8E065480021026865A004F00DFD57
:103B80000021084605F004FCBDE0012C29D15E4867
:103B9000FCF70DFB5D490968143188421DD95A486C
:103BA000FCF705FB59490968451A29465EA004F04F
:103BB000F4FC5548FCF7FBFA54490968451AFEF72E
:103BC000ADFB86B2012005F061FC07462B4632466C
:103BD0003946002005F0E4FA95E058A004F0DDFC39
:103BE00091E0022C2CD14848001DFCF7E0FA14307B
:103BF0004649096888421FD24348001DFCF7D7FA9E
:103C0000424909680D1A294651A004F0C6FC3E48F5
:103C1000001DFCF7CCFA3D4909680D1AFEF77EFB42
:103C200086B2FF2005F032FC07462B463246394665
:103C3000002005F0B5FA66E04BA004F0AEFC62E0AF
:103C4000032C19D164214EA004F0A7FC2E48FCF7E8
:103C5000AEFA2E4909686431884254D3FEF75EFB00
:103C600085B2012005F012FC064664232A4631463F
:103C7000002005F095FA46E0042C1AD1642144A0F6
:103C800004F08BFC2048001DFCF791FA64301F49BA
:103C90000968884237D8FEF741FB85B2FF2005F05E
:103CA000F5FB064664232A463146002005F078FAE3
:103CB00029E0052C03D16420FFF7AEFC23E0FF2CA4
:103CC00021D11148FCF773FA104909681E31884266
:103CD00011D30D48001DFCF76AFA1E300B49096824
:103CE000884208D81E21002005F052FB1E212CA07E
:103CF00004F053FC07E00021084605F049FB0021D1
:103D000027A004F04AFCF8BDBC0800200C030020EA
:103D10006D742073746F7020696E20256420706F3D
:103D2000732025640A0000006D742072756E207582
:103D30007020737465702025640A00007570206C13
:103D4000696D6974206F766572666C6F770A000022
:103D50006D742072756E20646F776E207374657059
:103D60002025640A00000000646F776E206C696D86
:103D70006974206F766572666C6F770A00000000C8
:103D80006D742072756E2075702025640A00000025
:103D90006D742072756E20646F776E2025640A0042
:103DA0006D742073746F7020696E2025640A0000A2
:103DB00001490870704700001903002010B505F094
:103DC000E9FB10480078002814D0002400BFEFF36E
:103DD00010800446012080F3108800BF0948007855
:103DE000FFF7A8FE002007490870204680F31088DE
:103DF00000BF00BF002005F0C1FA002801D0FFF786
:103E0000BDFB10BD1903002010B586B004466846FE
:103E1000FEF794F908200090002C04D002200190B5
:103E20000320059001E00120019000200290012074
:103E3000049069460248FEF78DF806B010BD0000F8
:103E40000008014000B587B001A8FEF777F9082007
:103E5000019003200290002003900120059001A909
:103E60000248FEF777F807B000BD000000080140E7
:103E700000B589B00120FFF7C7FF002168468182A5
:103E8000C1821349018300214183017705A91148AB
:103E900002F06CFA6021684681800121C180002116
:103EA00001810B49491E4181022181810021C1818B
:103EB0000182418201A9074802F00AFA012105485E
:103EC00002F083F90121034802F099F909B000BD1D
:103ED000AF040000002C014010B586B004466846CF
:103EE000FEF72CF910200090002C04D00220019045
:103EF0000320059001E001200190002002900120A4
:103F0000049069460248FEF725F806B010BD00008F
:103F10000008014000B587B001A8FEF70FF9102096
:103F2000019003200290002003900120059001A938
:103F30000248FEF70FF807B000BD0000000801407E
:103F400000B589B00120FFF7C7FF002168468182D4
:103F5000C1821349018300214183017705A91148DA
:103F600002F004FA6021684681800121C1800021AD
:103F700001810B49491E4181022181810021C181BA
:103F80000182418201A9074802F05EF9012105483A
:103F900002F01BF90121034802F031F909B000BD1C
:103FA000AF040000002C014070B50546002401F06C
:103FB0001BFF11480078AA2817D100200E4908706D
:103FC0000E480078002801D0012004430C480078F6
:103FD000002801D0022004432046FCF785FC094854
:103FE0000068FCF7BBFCFCF78FFD0121002000F00E
:103FF000EFF801F02BFF70BD3103002051020020CB
:10400000500200200C03002070470000C206D20EB0
:1040100001219140014A11607047000080E200E0F8
:10402000C206D20E01219140014A11607047000082
:1040300080E200E0C206D20E01219140014A1160E7
:104040007047000000E100E010B5044661780020F0
:10405000205600F071F8A078002809D000202056E2
:10406000C206D20E01219140074A116000BF0AE04A
:1040700000202056C206D20E01219140024A803211
:10408000116000BF00BF10BD00E100E010B50021CD
:104090001D2000F015F80321142000F011F8022172
:1040A000122000F00DF80121102000F009F8012184
:1040B000082000F005F80221152000F001F810BDDD
:1040C00010B5002819DA1A4A03071B0F083B9B0892
:1040D0009B00D2588307DC0EFF23A3409A438B0733
:1040E0001B0E8407E40EA3401A43114B0407240F50
:1040F000083CA408A4001A5118E00E4A03231B022E
:10410000D21883089B00D2588307DC0EFF23A340FC
:104110009A438B071B0E8407E40EA3401A43054BFA
:10412000032424021B198408A4001A5110BD0000A6
:104130001CED00E000E100E010B5002819DA1A4A91
:1041400003071B0F083B9B089B00D2588307DC0E1C
:10415000FF23A3409A438B071B0E8407E40EA34062
:104160001A43114B0407240F083CA408A4001A5159
:1041700018E00E4A03231B02D21883089B00D25872
:104180008307DC0EFF23A3409A438B071B0E840793
:10419000E40EA3401A43054B032424021B19840890
:1041A000A4001A5110BD00001CED00E000E100E089
:1041B0000146032901D164207047022901D14B2017
:1041C000FAE7012901D13220F6E70020F4E70000E8
:1041D00010B502460020124B1868800880001C159C
:1041E0000346A343184603461343184600BF0C4B2F
:1041F0001B6803430A4C23600A4B1B6904242343B6
:10420000084C2361012901D130BF02E040BF20BF2B
:1042100020BF044B1B690424A343024C236110BD3F
:104220000070004000ED00E0704700000348007897
:10423000002801D1012070470020FCE78402002003
:1042400004480078002804D002480078401E014944
:10425000087070478402002096200149087070475A
:104260008402002003480078002801D10120704713
:104270000020FCE7ED02002004480078002804D06C
:1042800002480078401E014908707047ED02002086
:1042900010B5024600200A4BD86A1C150346A343FA
:1042A00018461F24E4020346A3431846034613435B
:1042B000184603460B431846014BD86210BD000058
:1042C0000010024001460020044AD06A00090001A3
:1042D00002460A431046014AD0627047001002406D
:1042E00010B5024600200A4BD86AFF24F134034679
:1042F000A3431846002903D003461343184604E09D
:10430000FF2401340346A3431846014BD86210BD75
:104310000010024014490968012212049143124A14
:104320001160114609680122920491430E4A1160FE
:1043300001210904411A04D003221204891A10D160
:1043400007E009490968012212041143064A116075
:1043500008E005490968052212041143024A116068
:1043600000E000BF00BF7047001002400549C96A65
:10437000072252059143034AD1621146C96A01439B
:10438000D1627047001002400649C96A07225206EE
:104390009143044AD1621146C96A42061143014A57
:1043A000D1627047001002400D49096A14229143FE
:1043B0000B4A1162042802D010280ED106E00849E9
:1043C000096A04221143064A116207E00449096A96
:1043D00014221143024A116200E000BF00BF70477F
:1043E0000010024001460020064A506807231B02C5
:1043F00002469A43104602460A431046014A50605C
:10440000704700000010024001460020054A506835
:104410000723DB0202469A431046CA001043014AB2
:104420005060704700100240F0B50446002000259F
:10443000114E76680327BF05BE430F4F7E603E4690
:1044400070680E4E3040002C03D001263606B44270
:1044500004D10E4616431E43304309E0064E35682C
:1044600006461E4330460126B6053543024E3560EA
:10447000014E7060F0BD000000100240FFFFC0FE62
:1044800001460020044A5068C008C00002460A43A2
:104490001046014A506070470010024010B50121DB
:1044A0000148FCF731FD10BD00140A00002905D0B9
:1044B000054A52690243044B5A6104E0024A5269B8
:1044C0008243014B5A61704700100240002905D019
:1044D000054AD2690243044BDA6104E0024AD26918
:1044E0008243014BDA61704700100240002905D079
:1044F000054A12690243044B1A6104E0024A126938
:104500008243014B1A61704700100240002905D018
:10451000054A92690243044B9A6104E0024A926997
:104520008243014B9A61704700100240012806D176
:104530000649096801221143044A116005E0034954
:10454000096849084900014A11607047001002409B
:10455000012806D10649096A01221143044A116261
:1045600005E00349096A49084900014A1162704798
:1045700000100240F0B585B00446002500BF0020C1
:1045800003900290019000900027534840680F214B
:104590000904084003905048406803210905084079
:1045A00002904D4840688900084001904A484068A0
:1045B00001210906084000900398000CC01C0390DC
:1045C0000098000E002804D1444903984843064649
:1045D00003E042490398484306460298000D401CF8
:1045E000029030460299FBF785FD06460198800D42
:1045F000401C019030460199FBF77CFD0646364889
:10460000406837490840054601218903681A8D42F0
:1046100012D004DC002D09D0082D16D109E008289D
:104620000CD001218903401A0FD10BE02B482060E8
:104630000EE02A4820600BE0266009E00120C0035C
:10464000206005E02748206002E02448206000BF89
:1046500000BF21484068F021084005462D09082D7B
:1046600000D200252048475D2068F84060601A4865
:10467000406807210902084005462D0A1A48475D8F
:104680006068F840A06014484068C90008400546CA
:10469000ED0A1548475D6068F840E0600E48C06A62
:1046A00005072D0F1148475D39466068FBF722FD6D
:1046B00060610948C06AFF21F131084005462D09B3
:1046C0002807C00E0A490F5A39463046FBF712FD3B
:1046D000206105B0F0BD00000010024000127A0019
:1046E00008C00000307500006E9800087E98000831
:1046F0008E98000810B501460022002300204A11C0
:10470000012A02D10A4C236806E0022A02D1084C91
:10471000236A01E0064C636ACA06D20E0124944063
:104720001C40002C01D0012000E0002010BD000042
:10473000001002400348C06A072149060840400EA5
:10474000704700000010024010B500231A460321F4
:1047500009041846FFF768FE0220FFF791FE10BD1E
:1047600038B5002000900024002500BF3120FFF75D
:10477000C1FF05460098401C0090012149030098A4
:10478000884201D0002DF1D03120FFF7B3FF00287F
:1047900001D0012400E00024204638BD38B50020B7
:1047A00000900024002500BF2120FFF7A3FF05464D
:1047B0000098401C0090052109020098884201D011
:1047C000002DF1D02120FFF795FF002801D0012412
:1047D00000E00024204638BD00B587B001F08CFC15
:1047E0000021134801F0F1FC00201149203188809C
:1047F00001210420FFF78AFE01A8FDF79FFC01209C
:10480000000301900120029001A90A48FDF7A2FBD4
:10481000012109030748FDF7A9FC0121C902054848
:1048200000F064F80120C002FCF7EAFB07B000BD0D
:10483000000400400008014030B589B004460D4630
:104840002548844204D101210520FFF75FFE19E0CD
:104850002248844204D101210920FFF757FE11E0CC
:104860001F48844204D101211120FFF74FFE09E0C7
:104870001C48844204D101218120FFF747FE01E05A
:1048800009B030BD1848854209DC03A8FDF756FC85
:1048900003950020059003A92046FDF75BFB0B2143
:1048A0000020FDF7DDFA0120C002019000216846DA
:1048B0000172082141720021817201A8FCF7BAFB44
:1048C0000821684601700121417000218170FFF7C5
:1048D000BBFB00BFD4E7000000080140000C014012
:1048E00000100140001C0140FFFF000030B589B0FE
:1048F00004460D462448844204D101210520FFF7D7
:1049000005FE19E02148844204D101210920FFF766
:10491000FDFD11E01E48844204D101211120FFF762
:10492000F5FD09E01B48844204D101218120FFF7F5
:10493000EDFD01E009B030BD1748854209DC03A850
:10494000FDF7FCFB03950020059003A92046FDF729
:1049500001FB0B210020FDF783FA0120C00201902A
:10496000002168460172082141720121817201A86B
:10497000FCF760FB082168460170012141708170DD
:10498000FFF762FB00BFD5E700080140000C0140C3
:1049900000100140001C0140FFFF000010B5012184
:1049A00009030B48FDF7E2FB0A480088401C09494F
:1049B00008800021084801F008FC00200649203149
:1049C0008880064888810121034801F0FEFB10BD64
:1049D00000080140680200200004004001130000AC
:1049E00010B5012006490870064807490880FEF7FF
:1049F0006FFB0320FCF7C2FCFDF782FE10BD000038
:104A000026030020102700002803002010B50448CA
:104A10000068FBF7A3FF00200249087010BD0000EA
:104A20000C0300202603002010B500F0B5F8002884
:104A300062DD324800F06AF8401C002800D110BD49
:104A400000202F4908702D48C0792C49097848402A
:104A50002A49C871084680790978484027498871F1
:104A60000846407909784840244948710846007949
:104A700009784840214908710846C07809784840BB
:104A80001E49C87008468078097848401B498870DC
:104A900003F078FB002804D00021184A116051600F
:104AA000CDE7164840781549897848401349487041
:104AB00008464078497948401049487011480068D4
:104AC000402803D00F480068802802D101F0AAF8DE
:104AD0000CE00D480078012802D1FDF7E3FF05E066
:104AE00004F008FE002801D100F0F6F90020034A86
:104AF00010605060FEF742FD00BFA0E7600200209A
:104B00005A0200206C0400202603002010B5044641
:104B10000D4800780D490978884212D00A4800787B
:104B2000C0000B49081803C8616020600A210648CC
:104B30000078401CFBF7F4FAC8B203490870002063
:104B400010BD0020C043FBE75C0200205B02002098
:104B5000C005002013B50A210C480078401CFBF763
:104B6000DFFACCB20A48007884420CD0074A1278A7
:104B7000D200084B9A1800990198116050600348C0
:104B8000047000201CBD0020C043FBE75B02002036
:104B90005C020020C005002010B5054909780A31E3
:104BA000044A1278881A0A21FBF7BAFAC8B210BD73
:104BB0005B0200205C02002000220A7082794A70A9
:104BC00042798A700279CA70C2780A7182784A7111
:104BD00042788A710278CA71704700000120014949
:104BE000087070472603002010B500212B4801F003
:104BF000ECFA002029492031888029488881012148
:104C0000264801F0E2FA0121C9022648FDF7A4FA7C
:104C1000012804D124480078401C23490870234807
:104C20000078401C2149087008460078C007C00F72
:104C3000002832D11C480078C007C00F002817D0C8
:104C40001B480168406849184041194A116050608A
:104C50000121C9021348FDF77FFA002804D1144846
:104C60000078401C1249087000200F49087014E0B9
:104C700000210A4801F0A9FA0C480078842803D1E1
:104C80000B4803C8FFF766FF0021094A1160516015
:104C90000020064908700449087010BD0004004057
:104CA0000C26000000080140590200205802002094
:104CB0007002002009480088002804DD07480088A9
:104CC000401E0649088005484088002804DD034846
:104CD0004088401E01494880704700001C030020A6
:104CE00010B51B48C07D012818D11A480079012849
:104CF00014D11848008800280AD104F03FFB00288E
:104D000006D06420FEF716FF00201249087105E066
:104D100010484088002801D10E4908710E480088CB
:104D2000002813D10D480078012803D00C480078E2
:104D3000002804D000200949087009490870094872
:104D40000078002802D000200649087010BD00003D
:104D5000BC0800201C03002028030020270300209B
:104D60001A0300201B03002010B550220021044824
:104D7000FBF705FA0020034908700349087010BDCD
:104D8000C00500205B0200205C02002070B50446D4
:104D90000E461546072E3FD007DC330002F04CFAD2
:104DA000078D141B222A31378D00172E4AD006DCBE
:104DB000082E36D0092E39D00A2E7ED13DE0182E8D
:104DC0004FD01A2E79D152E0404801192846FCF7FD
:104DD00091F8042476E03D480119281DFCF78AF873
:104DE00004246FE03948011928460830FCF782F89E
:104DF000042467E0354801193548FCF77BF80424A2
:104E000060E004F0A7FB3149085501245AE0287EF0
:104E10002E490855012455E0287D2C4908550124C8
:104E200050E0687D2949085501244BE02846FDF7EC
:104E30002BFA26490855012444E0A87C234908554B
:104E400001243FE0234880782049085521484178D3
:104E50001E4A601C11541F480178A01C11540324E1
:104E600030E002F0C3FA1949085501242AE0284627
:104E7000FDF742FA154908550846005D012804D09F
:104E8000022807D0032810D10AE00F210F4A601C26
:104E900011540FE012210D4A601C11540AE00CE07D
:104EA00014210A4A601C115404E00021074A601CC6
:104EB000115400BF00BF022404E0FF20034908553D
:104EC000012400BF00BF204670BD00006107002024
:104ED000E0060020CE020020F8B5FBF715FF002801
:104EE00000D0F8BDFE484479F0210C40402C23D17D
:104EF00004F030FB002822D1FA48007800281ED0A8
:104F0000F8480078401EC0B2F6490870002816D153
:104F1000F5490870F548FBF74AF9002805D0F34831
:104F2000FBF745F96104884203D16420FEF702FED5
:104F300005E0FEF7ABFC02E00020EB490870202CF6
:104F400001D0802C0DD1E9480838C07D012808D156
:104F5000E7480079012804D1E5490871FF202D3088
:104F60000880FBF769FF002863D0A02C16D16420CD
:104F7000FEF7E0FD0120DF49087008460178DEA059
:104F800003F00BFB0020D749087000F0A7FEDF48B4
:104F9000DF4908800020DF490870A2E7D548007883
:104FA000002803D1DB480078002804D002F01AF969
:104FB000002800D095E7CA48407909280BD1C84895
:104FC00080782038C7B264203D464543EF09384613
:104FD000FEF73AFD85E7402C5AD10A20C1490870F6
:104FE000C4480078012825D1CA4800784006000E40
:104FF000C849087008460078002803D108460078A0
:10500000401C0870C34800788021084000280AD05E
:10501000FFF7E6FCC0490020085EFEF7FDFA00201D
:10502000BC49087002E06420FEF784FDB748B84927
:10503000088083E204F08EFA002807D1B348B4490F
:105040000880A9480078401CA74908700020B14991
:105050000870A548007804210840002814D00020DA
:10506000A1490870A149091DAC480068FBF7A9F8DF
:105070009E48083800F048FF0028DAD0A6490020F2
:10508000085EFEF7C9FA59E26420FEF753FD55E2C7
:10509000802C77D10020974908709E48007800281E
:1050A00056D09C480078C007C00F002803D00120CC
:1050B000FBF748FC44E097480078022108400028AC
:1050C00013D08A49083995480068FBF77AF8874871
:1050D000083800F033FF85480838FEF791FB8F4809
:1050E00001688FA003F059FA2AE08A48007810215D
:1050F0000840002805D000208649087004F03AFBDB
:10510000EFE68448007808210840002802D0FBF729
:105110004BFF15E07F48007820210840002802D08E
:10512000FBF7AEFB0CE07B480078402108400028EC
:1051300002D0FBF741FC03E0002076490870D0E67E
:105140000020744908707449085EFEF765FAF5E1BD
:1051500066480838C07D01280FD104F0FBF9FF280C
:1051600003D163480079012807D101206049087103
:10517000FF202D300880704848800120FEF7DAFCBF
:10518000DCE1FFE7202C74D13220594988710020DE
:10519000584908705F480078002850D05D48007872
:1051A000C007C00F002803D00020FBF7CBFB3EE078
:1051B000584800780221084000280ED04B49091FAA
:1051C00056480068FAF7FDFF4848083800F06EFEC0
:1051D00046480838FEF714FB29E04E4800781021B5
:1051E0000840002805D000204A49087004F0DAFA87
:1051F00077E64848007808210840002802D0FBF7ED
:10520000C9FE14E0434800782021084000280AD055
:1052100036480838FBF728FD3448001DFAF7C7FF69
:105220003E49086003E000203A49087059E6002032
:10523000384908703849085EFEF7EEF97EE12B48E0
:105240000838C07D01280FD104F084F9012803D16A
:1052500027480079012807D1012025490871FF203E
:105260002D300880344848800220FEF763FC65E159
:10527000FFE7102C62D127480078002803D01D4892
:10528000007800280DD0012022490870002015491F
:1052900008701849087000F021FD1C481C4908805E
:1052A0001FE601F09FFF002800D01AE61948007899
:1052B0004006000E17490870084600788021084013
:1052C000002809D0FFF78CFB13490020085EFEF789
:1052D000A3F900200F4908700C480D4908802DE102
:1052E00060020020240300201B030020C4080020CB
:1052F0001C030020270300206252656D6F74655FF8
:1053000053747564792025640A000000102700009A
:10531000280300201A0300206C9800080C030020CA
:105320007570206C696E6974207365742E20706FBF
:10533000732025640A000000B80B0000002C96D1F1
:105340007F4840790007000F032802D17C48867807
:1053500001E07B48C67930466638030001F06CFFF7
:10536000170D151D252D353D4B5D656D7588999C77
:10537000A5AEB7BFECC7D0E3EC00724800680546A5
:1053800016352846FEF7F4F9D7E06E480068054662
:1053900064352846FEF7ECF9CFE06A480068054618
:1053A000C8352846FEF7E4F9C7E0664800680546B8
:1053B000163D2846FEF7DCF9BFE062480068054666
:1053C000643D2846FEF7D4F9B7E05E48006805461C
:1053D000C83D2846FEF7CCF9AFE05B495948006864
:1053E000FAF7EFFE584800F0A9FD58490020085E82
:1053F000FEF712F9A1E05449091D52480068FAF776
:10540000E0FE514800F052FD4F48FEF7F9F94F49D0
:105410000020085EFEF700F98FE0FBF7C5FD4B4961
:105420000020085EFEF7F8F887E0FBF7B3FD474978
:105430000020085EFEF7F0F87FE0FBF78DFD4349A2
:105440000020085EFEF7E8F877E03F48007E00287D
:105450000DD03D48FBF708FC3B480C30FAF7A7FE9F
:105460003849086039490020085EFEF7D5F864E045
:1054700035490C3133480068FAF7A3FE324800F092
:1054800043FD002804D031490020085EFEF7C4F82F
:1054900053E0FEF7FBF950E03220FBF7BBFA2B4953
:1054A0000020085EFEF7B8F847E04B20FBF7B2FAA1
:1054B00026490020085EFEF7AFF83EE06420FBF7C7
:1054C000A9FA22490020085EFEF7A6F835E0FBF7AE
:1054D00073FA1E490020085EFEF79EF82DE0FBF7E8
:1054E000CFF91A490020085EFEF796F825E0012062
:1054F000FBF728FA15490020085EFEF78DF81CE03E
:105500001148007E00280DD10F48FBF7ADFB0E4877
:105510000C30FAF74CFE0B4908600C490020085E7D
:10552000FEF77AF809E00020FBF70CFA07490020A3
:10553000085EFEF771F800E000BF00BF00BFD0E4D6
:10554000600200200C030020BC0800206C980008BA
:105550000178C2790270C17141788279427081719B
:105560008178427982704171C1780279C27001718B
:105570007047000010B5FBF701FDFBF7EDFC4B2079
:10558000084948760020FBF7D1F900200549C87585
:10559000802088740818807C0221084301498031EA
:1055A000887410BD3406002038B500250020009016
:1055B0002748007801284AD100202549087025494C
:1055C00008706946244801F05BFA0446012C17D1A3
:1055D0006846027820492148FAF7B6FD204800685D
:1055E000401C1F49086004E0284600F03DF84019BF
:1055F000C5B2684600788542F6DBFDF7BFFF26E0BE
:10560000022C24D16846027813491448FAF79CFD0D
:1056100012480078AA281AD110484078BB2816D121
:105620000E488078CC2812D101F0C4FE01F0AEFE05
:105630000C48FCF7E3FF0320FCF7DAFF3220FCF70D
:10564000C1FFFCF7CDFFFCF7C3FF00BFFEE738BD8D
:10565000D4020020D102002069080020290800207F
:10566000F402002055550000F0B5CFB004460025E7
:1056700000204B904A906846FBF7ECF89022694670
:1056800024A8FAF761FDFE49201D085C4E90601DBC
:10569000085C4D900846005D5A2871D1601C085C7A
:1056A000A528FAD1A01C085C5A28F6D1E01C085C99
:1056B000A528F2D14D9AD21DD1B2F14A101902F0AB
:1056C0004FFF0028E9D14E98012809D0022833D095
:1056D000032870D004286FD10120EA49087092E2B3
:1056E000264615E0B01DE649095CA81DE64A11549E
:1056F000681CC5B2B01DE24A115CA01D4019C3B2BE
:1057000024AA1846FFF742FB4019C5B2701CC6B266
:105710004D982018B042E5DC8120DB49087108462D
:105720004571E81DD949087001F048FCD848006867
:10573000401CD749086066E20125D149A01D085CDC
:10574000D1498871CE49A01D085C092809D128A833
:10575000C079D04908700120FEF72AFBFDF7D6FC7E
:10576000ADE0C749A01D085C0A280AD128A8C07965
:10577000C84908700220FEF71BFBFDF7C7FC9EE03E
:1057800042E2BF49A01D085C0B2803D16420FEF74C
:105790000FFB94E0BA49A01D085C0C2828D1E01D3D
:1057A000085CBD49087008460078642805D10120CE
:1057B000FEF7FEFA08E08DE024E2B7480078002802
:1057C00002D16420FEF7F4FAB4492498884206D046
:1057D0002598FF2803D0B0480078FEF735F9A8498E
:1057E000E01D085CA849C8710225FDF78FFC66E042
:1057F000A349A01D085C182812D1E01D085CA2492D
:10580000C8710846C079002803D10320FEF7D0FAFA
:1058100002E00420FEF7CCFA0225FDF777FC4EE00B
:105820009749A01D085C192820D10A46E11D50188F
:1058300003F09AFF07460F2F00DA0F273846FDF7CF
:10584000DFFE279940184C904C98FDF791FF8C494A
:10585000E01D085C8C49C871894920460830085C05
:10586000894908720325FDF751FC28E08449A01DF1
:10587000085C1A2820D10A46E11D501803F074FF75
:1058800007460F2F00DA0F273846FDF7B9FE279994
:10589000081A4C904C98FDF76BFF7949E01D085CA5
:1058A0007949C871764920460830085C7649087203
:1058B0000325FDF72BFC02E0FE207349C87182200E
:1058C0007149087108464571E81D7049087001F07A
:1058D00075FB98E102256A49A01D085C6A49887138
:1058E0006749E01D085C6849C8716549A01D085CEE
:1058F0000D2812D1E01D085C012806D124A800F073
:105900001DFB24A8FDF77CFF01E0FBF74DFB64497C
:105910000020085EFDF780FE69E15949A01D085C82
:105920000E2812D1E01D085C012806D124A800F041
:10593000BDFA24A8FDF764FF01E0FBF72BFB5849F3
:105940000020085EFDF768FE51E14D49A01D085C8E
:10595000162807D1FBF700FB51490020085EFDF730
:105960005BFE44E14649A01D085C0F280AD14D4862
:1059700000F0CAFA0028CFD049490020085EFDF7A0
:105980004BFE34E13E49A01D085C10280FD128A829
:10599000017A3B4AE01D105C814202D024A8FBF74B
:1059A00063F93F490020085EFDF736FE1FE13449E8
:1059B000A01D085C11280CD1E01D085C28A9087105
:1059C0000879FAF751FF36490020085EFDF724FEFA
:1059D0000DE12B49A01D085C12280CD1E01D085CCC
:1059E00028A948714879FAF763FF2D490020085E1D
:1059F000FDF712FEFBE02249A01D085C13281AD116
:105A0000A01D085C204988711D49E01D085C012823
:105A100007DCE01D095C28A8817128A98879FAF7BC
:105A200069FF28A880791849C8711D490020085EBF
:105A3000FDF7F2FDDBE01249A01D085C142846D1F9
:105A400020460830085C104908720D49204609308C
:105A5000085C0D4948720A4920460A30085C0A4928
:105A600088720846007A00024B900846C1794B982C
:105A7000081880B24B900448807A00024A9013E0E4
:105A800029080020D602002061070020D202002051
:105A9000F8020020E0020020E102002000FFFF00E9
:105AA0006C980008BC0800205A48417A4A980818A7
:105AB00080B24A90052540A94B98488440A84A994D
:105AC0008184082148A80170FDF73AFB8FE0524914
:105AD000A01D085C152805D1FDF7FAFA0320FBF795
