:020000040800F2
:1000000050150020D9000008FD3E0008C125000859
:1000100000000000000000000000000000000000E0
:10002000000000000000000000000000195B000854
:1000300000000000000000001D410008355E0008BF
:10004000EB000008EB000008EB000008EB000008E4
:10005000EB000008EB000008D50F0008DD0F0008DA
:10006000DF0F0008EB000008EB000008EB000008C1
:10007000EB000008EB000008EB000008EB000008B4
:10008000D15E0008EB000008F15E0008EB000008FC
:10009000492C00083D040008EB000008EB000008B4
:1000A000EB000008EB000008EB000008EB00000884
:1000B000EB000008712E0008EB000008EB000008C0
:1000C0000448854600F086F800480047358400085B
:1000D000C046C046501500200448804704480047E9
:1000E000FEE7FEE7FEE7FEE7FEE7FEE75D5E0008EF
:1000F000C100000830B50B46014600202022012433
:1001000009E00D46D5409D4205D31D469540491B4B
:100110002546954040191546521E002DF1DC30BD94
:1001200070B500242546002801DA01244042002948
:1001300001DA01254942FFF7DDFFAC4200D0404221
:10014000002C00D0494270BD03460B439B0703D0EF
:1001500009E008C9121F08C0042AFAD203E00B788C
:100160000370401C491C521EF9D27047D2B201E004
:100170000270401C491EFBD270470022F6E710B502
:1001800013460A4604461946FFF7F0FF204610BD05
:1001900030B505460020034600E05B1C934205D2C3
:1001A000EC5CC85C201A01D1002CF6D130BD0321D3
:1001B000001D401E037812021A43491EF9D510464D
:1001C0007047034603220870000A491C521EFAD5E4
:1001D00018467047064C0125064E05E0E36807CC3B
:1001E0002B430C3C98471034B442F7D3FFF76CFF15
:1001F000489600086896000870B58C180578401C71
:100200006B075B0F01D10378401C2A1106D10278DD
:10021000401C03E006780E70401C491C5B1EF9D19F
:100220002B0705D40023521E0DD40B70491CFAE78E
:100230000378401CCB1A921C03E01D780D70491CFA
:100240005B1C521EF9D5A142D8D3002070BD00001E
:1002500004480088002804D002480088401E014954
:1002600008807047E802002002688A4302607047F5
:1002700070B505460C46002D08D10021FF20013045
:1002800003F098FF204603F087FF06E00121204697
:1002900003F090FF002003F07FFF70BDF0B504462F
:1002A00000200025072914DD20690E46083EB7000E
:1002B0000F26BE4035460646AE4330460E46083E43
:1002C000B6001F46B7403D4606462E4330462061E5
:1002D0000FE060698F000F26BE4035460646AE43EC
:1002E00030468E001F46B7403D4606462E433046F8
:1002F0006061072A14DAA06B561EB700F7190F26A3
:10030000BE4035460646AE433046561EB700F61987
:100310000F46B7403D4606462E433046A0632CE0CC
:100320000D2A14DA606BD61FB700F7190F26BE40EE
:1003300035460646AE433046D61FB700F6190F467F
:10034000B7403D4606462E433046606315E0206BBD
:1003500016460D3EB700F7190F26BE403546064635
:10036000AE43304616460D3EB700F6190F46B7406D
:100370003D4606462E4330462063F0BD002904D09A
:10038000826801231A43826003E0826852085200A7
:1003900082607047002905D0826805231B051A4337
:1003A000826004E0826805231B059A4382607047DF
:1003B00000B587B001210C2004F012F801A801F06B
:1003C000BBFE40200190032002900020039001A971
:1003D0000C4801F0BDFD0120019003200290002097
:1003E000039001A9084801F0B3FD202001900320EB
:1003F00002900020039001A9024801F0A9FD07B076
:1004000000BD000000080140000C01400146086DDD
:1004100080B270470246002013680B40002B01D0C9
:10042000012000E00020704702460020536D0B4081
:10043000002B01D0012000E00020704710B5022100
:100440008448FFF711FF10218248FFF70DFF814814
:10045000FFF7DCFF80490880084602887F48407B20
:10046000122148437D49183943187C48417B1220AA
:1004700041437A4818380818007C40001A527748DF
:10048000407B12214843754918394018007C401CB4
:10049000C2B27248407B1221484370491839401853
:1004A00002746E48407B122148436C491839401849
:1004B000007C08287ED100226848407B12214843F6
:1004C00066491839401802746448407B1221484339
:1004D00062491839095A6148407B12225043604AE8
:1004E000126811525D48407B122148435B4918391C
:1004F000401841885948407B12225043584A12689C
:10050000801841805548407B12214843534918398F
:10051000401881885148407B12225043504A12684B
:10052000801881804D48407B122148434B4918393F
:100530004018C1884948407B12225043484A1268FB
:100540008018C1804548407B1221484343491839EF
:10055000401801894148407B12225043404A1268AA
:10056000801801813D48407B122148433B4918399E
:10057000401841893948407B12225043384A12685A
:10058000801841813548407B12214843334918394E
:10059000401881893148407B12225043304A12680A
:1005A000801881812D48407B122148432B491839FE
:1005B000401800E031E0C1892848407B12225043B6
:1005C000274A12688018C1812448407B1221484381
:1005D000224918394018017C2048407B12225043A0
:1005E0001F4A1268801801741C48407B122148433E
:1005F0001A4918394018417C1848407B1222504350
:10060000174A12688018417401211448407B122255
:100610005043134A1268801841741048407B401CB4
:10062000C1B20E484173407B022802DB00210B4817
:1006300041730A48407B0B49095C08480173024634
:10064000107B203A11688847044920394868804760
:1006500010BD00000008024018020020AC04002079
:1006600070020020C495000830B502460020002327
:100670005068FF2501350446AC4320460C7824021F
:100680002043506090680C4C20404D688C682C438F
:100690004D786D002C4320439060106B0F252D0585
:1006A0000446AC4320460C7B641EE4B223431C0585
:1006B0002043106330BD0000FDF7F1FF10B5024686
:1006C0000020506D0B78002B02D00123184301E06D
:1006D000400840004B78002B02D00223184303E06F
:1006E00002240346A34318468B78002B03D0012332
:1006F0005B02184304E0012464020346A343184646
:10070000CB78002B03D0FF230133184304E0FF24F0
:1007100001340346A343184610240346A343184656
:100720000B79012B01D110231843506510BD000037
:1007300070B5044602211048FFF76CFE0546012DF6
:1007400017D102210C48FFF78FFD10210A48FFF74F
:100750008BFD0948FFF75AFE20800623012208215D
:100760000548FFF79BFD01210348FFF713FE012019
:1007700070BD0020FCE700000008024001460A4866
:10078000814205DB09480088401C084A108002E0CD
:100790000020064A108005480088642801DB0120FB
:1007A00070470020FCE70000BD020000820200202C
:1007B00000B587B001A801F0BFFC02200190032022
:1007C00002900020039001A9024801F0C1FB07B08C
:1007D00000BD0000000C014000B587B001A801F089
:1007E000ABFC02200190012002900020039001A99F
:1007F000024801F0ADFB07B000BD0000000C014055
:1008000010B50446002C04D00221044801F0AEFCCF
:1008100003E00221014801F0A7FC10BD000C0140DB
:1008200010B50121082003F0DBFD10BD10B501213A
:100830000C2003F0D5FD0121080303F0A1FD0120E8
:1008400003F0DEFD03F014FF0446012C01D000BFCD
:10085000FEE70721C902002003F084FC08210020E4
:10086000FFF706FD10BD000010B504468D220249B9
:100870002046FFF769FC10BD2C0600200449897C46
:1008800002221143024A917411468039087570475B
:10089000AC06002010B501F0EDF80348807C022181
:1008A00008430149887410BDAC0600200449897CC6
:1008B00002221143024A91741146803988747047AC
:1008C000AC0600200449897C02221143024A91743B
:1008D0001146803948757047AC06002010B50446B3
:1008E0000548807C02210843034988747C392046EE
:1008F000FFF767FC10BD0000AC0600200149C8717D
:1009000070470000AC0600200449897C0222114394
:10091000024A91741146803988757047AC060020F0
:1009200010B504460548807C0221084303498874B9
:1009300078392046FFF745FC10BD0000AC060020CA
:100940000449897C02221143024A9174114680397C
:1009500008767047AC0600200449897C02221143C6
:10096000024A917411468039C8757047AC06002060
:1009700010B504460548807C01210843034988746A
:1009800074392046FFF71DFC10BD0000AC060020A6
:1009900030B5A5B00546284604F032FD002404E039
:1009A000295D08A80155601CC4B2072CF8DB01A81A
:1009B00001F06CF8012805D10348807C022108432E
:1009C0000149887425B030BDAC06002010B501F097
:1009D00081F80348807C022108430149887410BDD6
:1009E000AC06002010B5A4B00446204604F008FD73
:1009F00000230DE0E15C07A8C154C15C094880797F
:100A0000C200121A074864381018C154581CC3B2E7
:100A1000072BEFDB0348807C0221084301498874DF
:100A200024B010BDAC0600200449897C0222114389
:100A3000024A91741146803948767047AC0600200E
:100A40000449897C02221143024A9174114680397B
:100A5000C8767047AC06002010B504460548807C77
:100A6000022108430349887480392046FFF7A9FB17
:100A700010BD0000AC0600200449897C022211430D
:100A8000024A91741146887170470000AC0600203C
:100A900004498979CA00521A024964395118887187
:100AA00070470000AC06002010B5002406F032FBB1
:100AB000002800D110BD00BFEFF3108004460120D4
:100AC00006F006FB1448007B012803D1204606F0FF
:100AD000FFFAEFE7012110480173204606F0F8FA0B
:100AE0000D48807C02210840002806D00A48807CFE
:100AF00088430949887401F07BF800BFEFF3108048
:100B00000446012006F0E4FA002103480173204660
:100B100006F0DEFA00BFCDE7AC06002010B501F00C
:100B200033F910BDF3B583B004460025022C02DB77
:100B3000002005B0F0BD00BFEFF310800546012096
:100B400006F0C3FA1220604318494018407C019017
:100B5000284606F0BAFA0198002825D000BFEFF326
:100B600010800546012006F0B0FA002112206043F3
:100B70000E4A801841740027002608E012206043C6
:100B80000A4940187100405AC719701CC6B2082E95
:100B9000F4DB284606F099FA7803000C02900499D9
:100BA000029808800120C4E70020C2E70806002060
:100BB0002A490978002906D001290FD0022923D01B
:100BC000032948D12AE0A1218900884205DC0121BE
:100BD000224A11700A21224A11803DE020490988E9
:100BE000002910D1A1218900884209DC02211B4A79
:100BF00011701C490978032211431A4A117002E04E
:100C00000021164A117027E01749884205DD0321AB
:100C1000124A11706421124A11801DE0104909889E
:100C2000002917D11049884211DD00210B4A1170AB
:100C30000C490978022211430A4A117011460978B9
:100C40004908490011700021044A117002E0022194
:100C5000024A117000E000BF00BF7047740200201C
:100C60007A02002078020020BD02000010B5024880
:100C700008F07CFC10BD0000D000002070B50446D8
:100C8000207E012802D10020207601E0012020767C
:100C9000207EFFF755FE201DFFF789FAFF2805D0BB
:100CA0002046FFF784FA1C49884202D100F05EF921
:100CB00031E02046FFF77BFA0646201DFFF777FA62
:100CC000361820460C30FFF772FA351A21460C31DF
:100CD0002846FFF776FA2046FFF769FA0646201DF8
:100CE000FFF765FA361820460830FFF760FA351A24
:100CF000214608312846FFF764FA20460C30FFF7FA
:100D000056FA0546FFF734FE20460830FFF74FFA43
:100D10000546FFF705FE70BD00FFFF001CB5454806
:100D200040790F2802DD0021424841714148407955
:100D3000002801D101201CBD002474E0E1000A1B41
:100D40003C4964395018694603F0A0FE3A4840799E
:100D5000C007C00F002806D16846807836498978D8
:100D6000884200D05DE06846C0783349C97888423F
:100D700000D056E0684600792F490979884200D0B2
:100D80004FE0684640790007000F2B494979090771
:100D9000090F884200D044E028480078002807D096
:100DA00027480078401EA04202D000202349087046
:100DB000601C23490870234800780978884206D0CF
:100DC0001F4800781F4908702046FFF755FE684607
:100DD000807919498979884207D16846C0791649CE
:100DE000C979884201D10020A5E768468079124977
:100DF00089790840002806D16846C0790E49C9792A
:100E00000840002801D0002095E70B494878FFF7FB
:100E10003FFE0D480078012801D102208BE7032016
:100E200089E7601CC4B203484079A04286DC0120F7
:100E300081E7000038090020580200202703002025
:100E4000260300203B0300201F03002010B511489B
:100E500000780F2803DA0F480078012801DA002013
:100E600010BD0D4840780D490A4A1278895C8842C5
:100E70000ED0094840780949064A12788854064934
:100E80004878FFF705FEAA20054908700120E7E72A
:100E90000020E5E726030020580200202C03002054
:100EA0002903002030B510480078401EC5002D1AD7
:100EB0000E482818827912020D4883791B020121FD
:100EC00000240DE010460840002805D118460840CF
:100ED000002801D0012030BD4804010C601CC4B2C0
:100EE000102CEFDB0020F6E726030020D4080020BA
:100EF000580200200246002003E0135C0B54431C00
:100F0000D8B20228F9DB70470246002003E0135CE8
:100F10000B54431CD8B20428F9DB7047002905D0D4
:100F2000054A126B0243044B1A6304E0024A126B37
:100F30008243014B1A6370470070004004480088E8
:100F4000002804D002480088401E014908807047EC
:100F5000E602002000B5034604E07D20C00007F053
:100F6000F9F95B1E002BF8D100BD000010B5074851
:100F7000FFF772FDFF20FFF7B1FC0120C005FFF76E
:100F8000CFFC0120C005FFF7F3FC10BD00FFFF0000
:100F90000021044841718171807C0221084301498C
:100FA00088747047AC06002010B5FF20FFF796FC50
:100FB0000120C005FFF7B4FC10BD000010B50448C7
:100FC000FFF74AFD0120C005FFF7AAFC10BD000095
:100FD00000FFFF0010B504F0B7FE10BD704710B55C
:100FE0000120C00200F010F8002805D00120C00246
:100FF00000F004F803F03CFC10BD0000014948611A
:101000007047000000040140014600200022074B09
:101010001B680B401A46054B5B690B40002B03D045
:10102000002A01D0012000E00020704700040140A8
:10103000002120498279002A35D00A4612680368C7
:101040009A430B461A600A46526803689A430B4655
:101050005A60027951180A6803681A430A60154AEF
:10106000926803689A43134B9A601A46D2680368E1
:101070009A43104BDA604279102A0CD11A469268D2
:1010800003681A430B4B9A601A46D26803681A43E6
:10109000084BDA600DE00749427951180A68036885
:1010A0001A430A6005E0027951180A6803689A43F6
:1010B0000A607047000401400249C9680143014ABF
:1010C000D16070470020024030B504460725342027
:1010D000FFF7F2FF0B20000400F07EF80546042D18
:1010E00017D10D480069022108430B4908610846E1
:1010F0004461006940210843074908610B2000044E
:1011000000F06AF8054604480069044908400249AD
:101110000861284630BD000000200240FD3F00006D
:1011200007200D49C968C907C90F002901D001204E
:1011300010E00949C96804221140002901D00220A9
:1011400008E00549C96810221140002901D0032098
:1011500000E00420704700000020024003480069BE
:1011600080210843014908617047000000200240C7
:1011700078B504460D460726002000903420FFF77E
:101180009BFF0120400300F027F80646042E10D1F3
:101190000948006901210843074908612560F002F8
:1011A00000F01AF80646044800690449084002495C
:1011B0000861304678BD000000200240FE3F00007C
:1011C0000248034948600348486070472301674567
:1011D00000200240AB89EFCD10B503460724FFF78E
:1011E0009FFF044603E0FFF79BFF04465B1E012CB4
:1011F00001D1002BF7D1002B00D10624204610BDD1
:10120000FEB504460E466568002720680190002060
:10121000009000BF15E00101695AB1420FD10101F0
:1012200049194A6801998A4209D1012100910101B5
:101230004919CF68010149198968029104E0411CEC
:1012400088B221898142E6DC00BF0098002804D0E2
:10125000002F00D0B84702982060FEBD10B50446AC
:10126000204600F013F8052801D1002010BD002011
:1012700020800120FAE710B50446204600F038F837
:10128000042801D1002010BD0120FCE770B5044600
:101290000025002C01D1012070BD00BFEFF31080AC
:1012A0000546012005F00BFF104840780F490978EA
:1012B000884216D0284605F002FF0C4840784100CD
:1012C0000A48801C405A208008494978481CC117A8
:1012D000C90E091849114901411A044A51700520E3
:1012E000DAE7284605F0EBFE0320D5E720040020CE
:1012F00070B5044613490978481CC117C90E09186E
:1013000049114901411ACDB200BFEFF310800646E2
:10131000012005F0D4FE0B484078A8420CD030469E
:1013200005F0CDFE0748007841000648801C445275
:10133000801E0570042070BD304605F0C0FE0220FE
:10134000F9E70000200400200020024948700870DE
:10135000704700002004002008B500200090684677
:10136000FFF77CFF002804D1684601880148FFF799
:1013700047FF08BD6404002010B504462046FFF76F
:101380007AFF10BDF8B504460D4616461F46656047
:1013900027602681FFF7D8FFF8BD000010B502488E
:1013A00008F0E4F810BD0000C000002010B50D48A2
:1013B000FEF7FDFE04460B48001FFEF7F8FE8442D0
:1013C0000AD80848001FFEF7F2FE04460548FEF75B
:1013D000EEFE201A182803D200F0D6F800F02CF9FF
:1013E00010BD00003006002010B5FF20F530FFF7DB
:1013F000B1FD05F099FE00F0E7F9FFF755FB00F0AD
:1014000005F800F0A3FB00F0C7F910BD0548407BCC
:10141000002803D101210348417302E00021014863
:1014200041737047AC06002010B5564840790F282C
:101430000DDD0021534841710830FEF7B8FE01214F
:101440004903084304464F490831FEF7BAFE4D48A8
:101450004079002802D100214A488171FFF7A6FF98
:1014600048488038807D01280FDD012045498039BA
:10147000887508468830FEF79AFE01214902084324
:10148000044640490831FEF79CFE3E488038007D06
:1014900004280EDB00203B49803908750846883057
:1014A000FEF785FE80210843044636490831FEF7E1
:1014B00088FE34488038407D04280FDB0120314904
:1014C0008039487508468830FEF771FEFF210131EA
:1014D000084304462B490831FEF773FE294880383B
:1014E000C07C20280EDB002026498039C8740846BD
:1014F0008830FEF75CFE402108430446214908314C
:10150000FEF75FFE1F488038007E01280FDD0020B7
:101510001C498039087608468830FEF748FE0121CC
:10152000C9020843044617490831FEF74AFE154927
:101530008039487C097C00020843A02810DD7D2109
:101540000901104880380174090A41748830FEF797
:101550002EFE1021084304460A490831FEF731FEE9
:1015600000F026F807488038407E642804DC0548EF
:101570008038407E322803DA4B2002498039487691
:1015800010BD0000AC06002010B508490120C005C0
:10159000FEF717FE05487C30FEF709FE08210843D8
:1015A000044602497C31FEF70CFE10BD38060020CF
:1015B00010B50B48FEF7FBFDFF2806D00848001FBA
:1015C000FEF7F5FD0749884204D100200449091FB0
:1015D000887603E001200249091F887610BD0000CB
:1015E0003006002000FFFF0010B500F011F90128BF
:1015F00003D000F0DFF800F055F800F0B5F901284D
:1016000004D003490120C005FEF7DBFD10BD00003A
:101610003806002070B504460648C4758830FEF7C9
:10162000C6FD012189020843054602498831FEF7BB
:10163000C8FD70BD2C06002010B518491848FEF7EB
:10164000C0FD1649091DFF20FEF7BBFD13490831F7
:101650000120C005FEF7B5FD10488830FEF7A7FD54
:101660000121084304460D498831FEF7AAFD0B48C5
:101670008830FEF79CFD0221084304460749883163
:10168000FEF79FFD05488830FEF791FD04210843D1
:10169000044602498831FEF794FD10BD2C06002057
:1016A00000FFFF0070B500240DE0002507E00021D9
:1016B000E000021B194810184155681CC5B2072DDF
:1016C000F5DB601CC4B20F2CEFDBFFF7B5FF002188
:1016D000124864304171FFF76BFF00200F491C393D
:1016E000C8740120887500200875012048757D2088
:1016F00000010874000A4874802088744B20C87662
:1017000048760020FFF786FF04486430807C022181
:10171000084302496431887470BD00004806002007
:1017200000B58BB0202103A8FEF727FD0020019013
:101730000290174800F094F98A2103980843039017
:101740005B2109020398084303901B218904039835
:10175000084303907D21090603980843039003A9D9
:101760000B4800F0E7F9042201A9094805F064FFDD
:10177000FFF798FF00210748417301460E31002012
:10178000FEF71FFD00F0E2F900F014F80BB000BD09
:1017900000EC0008AC06002010B50448407B400275
:1017A000034A8418204600F05BF910BDAC06002007
:1017B00000E4000810B5FFF7E7FE10BD01460888F9
:1017C00070470146086870471CB5002000900190E2
:1017D000042269460D4805F02FFF684600788A28E4
:1017E0000ED1684640785B280AD1684680786C281C
:1017F00006D16846C0787D2802D1FFF7F5FE01E0EA
:10180000FFF78EFFFFF710FE1CBD000000EC000884
:10181000F0B5A7B000202690902102A8FEF7ADFCFD
:101820004F48019000278E2202A9019805F004FF7D
:101830008D2102A806F070FD20A9497D884202D1C1
:101840000120269001E0781CC7B2269801287DD19E
:101850001CA90331C97809061CAA03329278120424
:1018600011431CAA033252781202114318AAD27CE7
:10187000114308463B49FEF7A4FC1DA90331C97872
:1018800009061DAA03329278120411431DAA0332DD
:1018900052781202114318AAD27D114308463149E9
:1018A000091DFEF78EFC1EA90331C97809061EAA80
:1018B00003329278120411431EAA033252781202A4
:1018C000114318AAD27E1143084626490831FEF773
:1018D00078FC20AA507823498874501F4078000271
:1018E00018AAD17E08431F490874000A487420AA28
:1018F0009078C874D07808751079487550798875D3
:101900009079C875D0790876107A4876507AC8767A
:10191000907A887618AA517C124880304171917C67
:1019200081710026002514E000240AE0A01902A914
:10193000095CE800421B0B481C3010180155601C64
:10194000C4B2072CF2DBF01DC6B200E006E0681C52
:10195000C5B20F2DE8DB012027B0F0BD0020FBE76A
:1019600000E800082C0600207CB50026002000902E
:10197000019006226946354805F05EFE052168465D
:1019800006F0CAFC69464979884201D000207CBD36
:101990006A4611782E484173694609790906D2785A
:1019A000120411436A469278120211436A46527831
:1019B0001143084626490E31FEF703FC2448407BBC
:1019C0004002244A8018044607226946204605F052
:1019D00033FE0621684606F09FFC6A4691798842EC
:1019E00001D1012601E0681CC5B2012E2CD16A4646
:1019F000117817488079C200121A154864381018F7
:101A000081716946097909066A46D2781204114340
:101A10006A469278120211436A4652781143084688
:101A20000B497439FEF7CDFB6A4651790848C171FC
:101A3000C0793040084908700548C0790221084043
:101A4000064908700120A2E70020A0E700F0000886
:101A5000AC06002000E400084902002048020020F3
:101A600010B50446FFF7ACFB2046FFF72DFBFFF750
:101A700075FB10BD10B500210348817141716922C9
:101A80006438FEF77CFB10BDAC06002010B50246A2
:101A90000F4840790F2801DD002010BD00210CE027
:101AA00010461C30435C0A484079C400241A084898
:101AB000643820184354481CC1B20729F0DB04489D
:101AC0004079401CC3B2024843710120E5E70000A1
:101AD000AC06002010B5164A5279002A00D110BD7C
:101AE000134A907914E000210EE0421CD3009B1AA7
:101AF0000F4A643A9A18535CC200141A0C4A643AAA
:101B0000A21853544A1CD1B20729EEDB421CD0B2B2
:101B1000074A5279521E8242E5DC0023044A93713F
:101B20005279521ED3B2024A537100BFD7E7000068
:101B3000AC06002070B505460C46FFF741FB284671
:101B40002168FFF715FBFFF709FB70BD1FB50024E7
:101B5000002002900390009001902348FFF780FF3F
:101B60002248417B6846017220480E30FEF71FFB79
:101B7000C1B2684641721D480E30FEF718FB0004E2
:101B8000010E6846817219480E30FEF710FB000204
:101B9000010E6846C17215480E30FEF708FB010EB3
:101BA00068460173052102A806F0B6FB6946487332
:101BB00007E002AA11190C4AA018FFF7BBFF201D6D
:101BC000C4B2062CF5DB06226946074805F034FD51
:101BD0000622694602A8FEF7DBFA002802D101209E
:101BE00004B010BD0020FBE700F00008AC060020A8
:101BF000F0B5C9B000204890902124A8FEF7BDFAA6
:101C000090216846FEF7B9FA00204890002413E0BE
:101C100000250DE0E000011B59480818415D24AA89
:101C2000489811544898401CC0B24890681CC5B2EE
:101C3000072DEFDB601CC4B20F2CE9DB3EA903319A
:101C40004F481C38FFF760F93FA903314C4818385A
:101C5000FFF75AF940A9033149481438FFF754F9FE
:101C600047481C38407E64280DD045481C38407ECB
:101C70004B2808D042481C38407E322803D04B20E5
:101C80003F491C3948763E486430417938A841764E
:101C90003B486430817938A8817639491C39487CC1
:101CA000097C00020843C1B240A8C17134491C3903
:101CB000487C097C00020843011240A801723048A8
:101CC0001C38817C40A841722D481C38C17C40A83A
:101CD00081722B481C38017D40A8C17228481C38ED
:101CE000417D40A8017326481C38817D40A841737E
:101CF00023481C38C17D40A8817321481C38017ECF
:101D000040A8C1731E481C38417E40A801741C487D
:101D10001C38C17E40A8417419481C38817E40A8F7
:101D200081748D2124A806F0F7FA40A9487700268F
:101D3000144F00BF3846FFF793FE002406E024AAA4
:101D400011193819FFF7F6FE201DC4B28E2CF6DBF0
:101D50008E226946384605F06FFC8E22694624A81B
:101D6000FEF716FA002804D0701CC0B206460328FD
:101D7000E0DB032E02DB002049B0F0BD0120FBE7D1
:101D80004806002000E800087FB5002400200290EB
:101D90000390009001902E488079C100091A2C48C8
:101DA0006438081881796846017229487438FEF74A
:101DB000FEF9C1B26846417225487438FEF7F7F95A
:101DC0000004010E6846817221487438FEF7EFF96D
:101DD0000002010E6846C1721D487438FEF7E7F92B
:101DE000010E684601731A48C1796846417306219D
:101DF00002A806F091FA6946887300251448407BD2
:101E00004002144A861800BF002406E002AA1119F5
:101E10003019FFF78FFE201DC4B2072CF6DB072216
:101E20006946304605F008FC0722694602A8FEF71D
:101E3000AFF9002804D0681CC0B205460328E3DBD4
:101E4000032D02DB002004B070BD0120FBE7000081
:101E5000AC06002000E400087047000030B50246E0
:101E60000D4B8C10A4001B598C07250F0F24AC4080
:101E7000A343094C8D10AD00635123468C10A40080
:101E80001B598C07250F1446AC402343024C8D1080
:101E9000AD00635130BD00000800014000B587B0BF
:101EA0000121042002F09CFA01A800F045F9FF206E
:101EB000013001900120029001A9224800F048F869
:101EC000FF2101311F4800F051F90121042002F0E7
:101ED00087FA01A800F030F901208002019000206B
:101EE0000290039001A9174800F032F80121042064
:101EF00002F076FA01A800F01FF9012040020190DB
:101F000000200290039001A90E4800F021F8012161
:101F100049020C4800F01EF9002801D0012000E021
:101F200000200949087001218902064800F012F9D1
:101F3000002801D0012000E000200449087007B00B
:101F400000BD0000000801404902002048020020B6
:101F500070B503460A46002100240020DCE001267B
:101F60008E40156835402C46002C7DD05568022DDA
:101F700002D05568122D20D108250D40002D0ED01D
:101F8000586A4D07EE0E0F25B5400646AE43304663
:101F90004E07F60E5569B540284358620DE0186AA1
:101FA0004D07EE0E0F25B5400646AE4330464E07B0
:101FB000F60E5569B540284318625568012D08D0C2
:101FC0005568112D05D05568022D02D05568122D87
:101FD0000BD1586801258D400646AE433046157931
:101FE000ED06ED0F8D402843586018684E0003251C
:101FF000B5400646AE4330461579AD07AD0F4E00ED
:10200000B54028431860D8684E000325B540064601
:10201000AE4330464E009568B5402843D860986876
:1020200001258D400646AE433046D5688D40284395
:102030009860D86A01258D400646AE433046156942
:102040008D402843D8620126360755683540B54291
:1020500061D1344D8E08B600A8598D072E0F0F257B
:10206000B5400646AE4300E055E030462E4DAB424B
:1020700001D100250AE02D4DAB4201D1012505E03B
:102080002B4DAB4201D1022500E005258E07360F0E
:10209000B5402843234D8E08B600A851254D286829
:1020A0000546A54328460126360455683540B54205
:1020B00002D10546254328461E4D2860686805461E
:1020C000A54328460126760455683540B54202D11D
:1020D000054625432846174D6860A8680546A54370
:1020E00028460126360555683540B54202D10546D9
:1020F000254328460F4DA860E8680546A5432846B5
:102100000126760555683540B54202D1054625437E
:102110002846084DE860491C1568CD40002D00D0C8
:102120001DE770BD0800014000080140000C01409F
:102130000010014000040140054901600F21416188
:102140000021416081600121C1600021016170476F
:10215000FFFF00000246002013690B40002B01D056
:10216000012000E000207047816270478161704764
:1021700000211D480078012800D101431B48007848
:10218000012801D102200143194800788007800FFF
:10219000174A1070104600788006000E1070104626
:1021A00000784018107013481278805C012802D122
:1021B000114A107008E00F480D4A1278805CFF2821
:1021C00002D100200C4A10700C48007E002805D077
:1021D0000748007810221043054A10700548044A49
:1021E0001278805C704700004902002048020020FD
:1021F00010030020E495000808030020B808002020
:1022000010B51C48007801280DD11B4800681B49F7
:10221000884205D218480068401C1749086002E04F
:1022200016481549086013480078FF280CD1124859
:102230000068FF2805D910480068401E0E49086054
:1022400002E0FF200C49086007F018F809490978F6
:10225000884205D00A488089801C0949888108E0A5
:1022600007488089002804DD05488089401E04490C
:10227000888110BD000300200403002000FFFF0040
:10228000A8080020F8B5044620460C30FDF78FFF63
:102290000646201DFDF78BFF864201D8002523E06E
:1022A00020460C30FDF783FF06462046FDF77FFFF2
:1022B000864201D3642517E02046FDF778FF0746E4
:1022C000201DFDF774FF3E1A20460C30FDF76FFF0E
:1022D0000746201DFDF76BFF381A6421484331463D
:1022E0000090FDF707FFC5B2A07E002800D1FF25B2
:1022F0002846F8BD0146487E642801D10320704776
:10230000487E4B2801D10220F9E7487E322801D1CE
:102310000120F4E70020F2E70A48407E642801DB50
:10232000094870470748407E4B2801DB0748F8E71B
:102330000448407E322802DB7D200001F1E77D2049
:102340000001EEE72C060020B80B0000C4090000D5
:10235000002005E000218200054B9950411CC8B2C5
:102360000428F7DB0021024A117451747047000001
:10237000A405002010B50446002C05D0FF21013132
:102380000448FFF7F3FE04E0FF2101310148FFF7A5
:10239000EBFE10BD0008014010B501214902314893
:1023A000FFF7D8FE002801D0012000E000202E49D0
:1023B0000978884211D1012189022A48FFF7CAFE13
:1023C000002801D0012000E0002028490978884237
:1023D00003D10020264908703EE025480078401CC3
:1023E0002349087008460078052835DB002008706E
:1023F000012149021B48FFF7ADFE002801D0012052
:1024000000E0002018490870012189021548FFF7F3
:10241000A1FE002801D0012000E00020134908702F
:10242000144800681449097C8900134A505010462A
:10243000007C401C114608740846007C042801DB1F
:10244000002008740C48407C401C0B494874002054
:102450000849086000F01AF806480068401C054961
:10246000086010BD00080140490200204802002019
:102470004A0200204C020020A405002010B5FFF7FE
:102480000DFD03F06BFDFFF763FF10BD10B5FFF707
:102490006FFE0C490870FFF7B3FE0B480078002868
:1024A00005D10A480068401C0849086008E0064851
:1024B0000078012804D105480068401E03490860DF
:1024C00010BD000000030020080300200C030020C2
:1024D00000B587B00121042001F082FF01A8FFF7B9
:1024E0002BFEFF20013001900320029001A9024839
:1024F000FFF72EFD07B000BD0008014010B52648CB
:10250000407C002839D000202349487408460068E0
:10251000496840182049896840181F49C96840180F
:102520001E4908601C48006800280BD01A48406803
:10253000002807D018488068002803D01648C068D3
:10254000002803D100201549486016E013480068B0
:10255000002812D0114A116812685208104BD01886
:10256000FDF7C8FD04460D4840687021484321012D
:1025700040184030C009094948600848808914283B
:1025800008DB002005498881012003F055FC642008
:1025900001F04AFA10BD0000A4050020A8080020A0
:1025A000C027090010B5002006F0A0FF0020FFF7AB
:1025B000E1FEFFF78DFF10BD10B5FFF75FFF10BD07
:1025C00000BFFEE70149886070470000003000400E
:1025D0000148024908607047CCCC00000030004040
:1025E0000148024908607047AAAA00000030004074
:1025F0000149486070470000003000400149086010
:102600007047000000300040F8B50546002600275E
:10261000012D1EDA00240CE0204600F01FF80028EF
:1026200005D0701CC6B20120A0403843C7B2601C60
:10263000C4B2012CF0DB68000749085CB04206D147
:10264000680040184078B84201D10120F8BD002050
:10265000FCE70020FAE70000D095000810B504461A
:10266000E2001E4BD2189188E2009858FFF772FDE5
:10267000E1001A4A89188979884211D1E00011468F
:102680004018807916490978884202D015A005F0D3
:1026900060FEE0001149401880791149087011E08E
:1026A000E0000E49401880790D490978884202D12E
:1026B0000DA005F04EFEE000084940188079C043A7
:1026C00007490870E00005494018807904490978F5
:1026D000884201D1012010BD0020FCE7C895000808
:1026E0001A0200206B640A006B750A00014800782A
:1026F000704700008602002010B504F0FFFF10BDF7
:1027000010B50020034908700120487004F0F8FB60
:1027100010BD0000840200200848007800280AD17B
:1027200006484078C007C00F002804D000200349A5
:102730004870012070470020FCE700008402002060
:102740000848007800280AD006484078C007C00F23
:10275000002804D000200349487001207047002061
:10276000FCE7000084020020014800787047000068
:102770008402002010B5022004490870012048702E
:1027800004F0BEFB00F05AFE10BD000084020020E1
:1027900010B5012002490870487004F0B1FB10BD6B
:1027A0008402002008B50320074908700120487002
:1027B00004F0A6FB0120FF232D33C8220221009044
:1027C000002005F059F908BD8402002008B59F4893
:1027D00000890221084000281FD09C4880790128E8
:1027E00016D19A4800898843984908810120984960
:1027F000087006F089FD002806D0642001F052FA26
:1028000001209449087008BD00209249087002E038
:1028100000208F49087000F0B1FE05F081FE01280C
:1028200039D105F095FC02280DD005F091FC032864
:1028300009D0864800890421084000282AD083480E
:102840008088062826D181480089082188437F494D
:10285000088100217D4881810089042188437B49CA
:1028600008810020888005F061FE06F0F9FD012155
:1028700009037948FFF778FC03F092FB012000235D
:10288000764A0221009005F0F7F875490020085EAD
:1028900000F0A2FEB7E76D488089012830D16B486F
:1028A00000890821084000282AD00021674881813A
:1028B0000089082188436549088166480078002816
:1028C00003D00020634908709DE700F001FC03205D
:1028D000FEF752FDFFF714FF61490020085E00F08B
:1028E0007BFE0120FF23913364220221009000200F
:1028F00005F0C2F801F020FC012801D104F000FB32
:102900005248008904210840002844D04F4880885C
:102910000A2812D14D4880885249097888420CD043
:102920004A4880884F4908700120FF23F5331A4632
:1029300002210090002005F09FF844488088142868
:1029400012D1424880884749097888420CD03F48D4
:102950008088444908700220FF23F5331A46014657
:102960000090002005F088F8384880881E2812D191
:10297000364880883B49097888420CD033488088A3
:10298000384908700320FF23F5331A4602210090CE
:10299000002005F071F82D48008902210840002828
:1029A00048D02A488079002844D1284800898843A3
:1029B00026490881084600890421084000282ED0B5
:1029C0002248808828282ADA204880881E280FDBA1
:1029D000012005F0ABFD012109031F48FFF7C6FBED
:1029E00006F034FD1E490020085E00F0F5FD16E0FB
:1029F00016488088142807DB05F014FD18490020CC
:102A0000085E00F0E9FD0AE0104880880A2806DB2D
:102A1000FEF7ACFA12490020085E00F0DDFD002050
:102A20001049087009480089042188430749088132
:102A30000020888005488088082805DD03488088B4
:102A4000282801DA00F09AFD00BFDCE6BC04002073
:102A5000860200208A02002000080140B80B000016
:102A6000049600088902002010B504F0A3FE10BDF2
:102A700010B500F083FD00F033FB012809D00848B1
:102A8000008902210840002808D0054880790128E3
:102A900004D10220FEF770FCFFF784FE10BD000099
:102AA000BC04002030B5A5B001A8FDF7DDFE8D22E5
:102AB00001A93648FDF748FB35484079F021084028
:102AC0000446FEF72BF90546324833490880A02C0E
:102AD00006D101203149087003F058F825B030BD07
:102AE000002D2FD1FEF7B2F9002800D1F6E72848D3
:102AF0004079A0210840002809D128480078002802
:102B000001D1402C03D0FEF7CDF9002811D10020CF
:102B100023490870FFF72EFE0220FEF72DFC00204F
:102B20001D490880102C03D11E49085E00F054FD99
:102B3000D4E7102C05D019480078002802D0402C8A
:102B400000D10225102C09D01448007800281BD091
:102B5000402C19D104F06CFA002815D1284602F057
:102B6000DDFF10490020085E00F036FD00200C4912
:102B700008700A490870FEF769F90220FEF7FCFBAD
:102B80007D20C0000849088000BFA7E7B8080020E2
:102B90005802002010270000200300201F030020FF
:102BA0001E030020049600082A0300203EB50446B8
:102BB0000120C005FEF722FA0120C0050190002186
:102BC00068460172082141720121817201A8FEF755
:102BD0002FFA14216846017001214170847001F0C0
:102BE000ADF93EBD81880222114381807047018A80
:102BF00049084900018270470189022291430181FD
:102C00007047018A01221143018270470189022223
:102C10001143018170470146088802221040400894
:102C20007047028B01837047828A81827047C26835
:102C300007235B029A430A43C2607047028A062355
:102C40009A430A430282704710B501212B4803F0D2
:102C50003BFA002841D0FEF7A1FB04F099F804F0FC
:102C600043F900F047FA04F003F901F06FFA00F0BD
:102C70006DFC00F077FCFEF761F9FDF7E9FA2048FA
:102C80000088401C1E49088001F07EFF01F048FAD0
:102C90001C480088002804DD1A480088401E194995
:102CA000088019484079002804DD17484079401E03
:102CB0001549487114488079002804DD124880794C
:102CC000401E1149887106F065FA05F019FB06F0FF
:102CD000D1FB0121094803F0BBF90C48FFF79BFF2A
:102CE000002809D0012004F0F9FA0848FFF77AFF1C
:102CF0000120C005FEF782F910BD00000010004061
:102D0000460200202003002014030020000C004095
:102D1000002119229201904201D1802100E0C1B22C
:102D2000014A11807047000000480040002906D089
:102D3000064A1279C3B21A43044B1A7104E0034ADB
:102D400012798243014B1A7170470000004800401D
:102D5000054909898904890C034A118111460989A9
:102D6000014311817047000000480040054909896E
:102D7000054A1140034A1181114609890143118115
:102D80007047000000480040FF4F000010B50121CF
:102D9000880401F015FB00210120800401F010FBE4
:102DA00010BD1CB504460120800500900021684636
:102DB0000171102141718471FEF73AF91CBD0000C8
:102DC000002806D00649098980221143044A11814E
:102DD00005E003490989034A1140014A11817047FE
:102DE000004800407F7F000000B587B00121092026
:102DF00001F0F6FA01A8FFF79FF9082001900220E0
:102E000002900520069001A90748FFF7A1F81020BD
:102E10000190012003900520069001A90248FFF7C8
:102E200097F807B000BD0000000C014010B5014646
:102E30000023002200204C04620E0124944022460C
:102E40000A4C247922401924A401A14201D18023F3
:102E500000E0CBB2054C24882340002A03D0002B8D
:102E600001D0012000E0002010BD0000004800401B
:102E700010B501208005FEF7C1F81C480079192122
:102E80008901084000280DD00846FFF7CFFF002831
:102E900008D019208001FFF73BFF00211920800195
:102EA000FFF744FF29204001FFF7C0FF00280BD0A7
:102EB0000E480079292149010840002804D008461D
:102EC000FFF726FF04F022F8FF200330FFF7AEFFE4
:102ED00000280AD0FF200330FFF71AFF0021FF204F
:102EE0000330FFF723FF04F03DF810BD0048004019
:102EF000F0B58DB004460025002600200C900B9004
:102F000000BF00BF089000BF3A4805893A48054015
:102F1000A088E18808432189084361890843054363
:102F200034490D8101F070FB0646022E01D0032EBC
:102F300002D132480C9017E0042E02D130480C9098
:102F400012E0052E03D10120C0030C900CE0012EED
:102F500005D101A801F078FA01980C9004E001A8CD
:102F600001F072FA03980C9021680C98FDF7C2F8F2
:102F70000B900B980A2804D801208003FFF7E8FE85
:102F800002E00020FFF7E4FE1A490B9888812168CF
:102F90000C98FDF7AFF81B4841430F4638462168AF
:102FA000FDF7A8F80A9000250A98099000200790DC
:102FB00018E0099808900A99089840180990114952
:102FC0000998FDF797F807460E490898FDF792F81B
:102FD0004740002F03D001200799884005430798F8
:102FE000401C079007980828E3D302490D750DB0DF
:102FF000F0BD000000480040F470000000127A00AC
:10300000307500001027000010B50446012108208B
:1030100001F0E6F9230004F035F8063B3704101DF3
:103020002A3B012001F0ECF900BF01F021FB01284F
:10303000FBD1022001F012F92EE00120000401F082
:10304000D3F800BF01F0F6FA0128FBD1032001F00C
:1030500005F921E0012001F0E5F900BF412001F070
:10306000B3FA0028FAD0042001F0F8F814E00420A4
:1030700001F004F900BF432001F0A6FA0028FAD0BD
:10308000052001F0EBF807E0012001F0E7F803E08C
:10309000002001F0E3F800BF00BF0121880401F027
:1030A0007FF910BD0148007C7047000000480040D7
:1030B000014A1074704700000048004010B504F049
:1030C00035FC012801D10149087010BD870200209C
:1030D000014802490880704710270000DA020020EA
:1030E00003480088002801D1012070470020FCE738
:1030F000DA02002004480088002804D00248008832
:10310000401E014908807047DA02002010B50548CA
:103110000068022804D1FFF72DFB0220FEF72CF9EE
:1031200010BD000064040020032002490870002044
:10313000487070478C02002010B504F055FD10BD9A
:1031400010B50446062221460348FCF7FDFF002087
:103150000149487010BD00008C02002008B5B44839
:103160000078030003F08EFF13F70B18242F3A4664
:10317000538EBAC6D9E4F8F5F4F3F2F1F700AD488E
:10318000FF23F5331A4602210090002004F074FC5E
:103190000020A749087046E1002003467D22D200A6
:1031A0000146009004F068FC0020A14908703AE153
:1031B00000200346A04A0146009004F05DFC002078
:1031C0009B4908702FE1002003460246014600900B
:1031D00004F052FC00209649087024E19548C82369
:1031E0001A4602210090002004F046FC002090497D
:1031F000087018E18F48FF23F5331A46022100902A
:10320000002004F039FC0020894908700BE188484F
:10321000407800280BD10120C8231A4602210090D3
:10322000002004F029FC01208149487029E08048F1
:103230004078012811D1002004F0C6FC002820D1DC
:1032400001207D23DB00C82202210090002004F031
:1032500013FC02207649487013E075484078022834
:103260000FD1002004F0B0FC00280AD10120C823AF
:103270001A4602210090002004F0FEFB01206C4958
:103280004870D0E06A48408800280AD168488088A1
:10329000002806D1034602460121009004F0ECFB11
:1032A00018E063484088634988420AD160488088B2
:1032B000002806D1034602460146009004F0DCFBDC
:1032C00008E05C4800905A48838842880221002028
:1032D00004F0D2FB002056490870A4E00620FA232F
:1032E0001A4602210090002004F0C6FB002050493D
:1032F000087098E00020034602460121009004F087
:10330000BBFB00200346024601210090084604F062
:10331000B3FB00204649087085E0002003460246C2
:103320000121009004F0A8FB0020414908707AE0D8
:1033300001207D23DB00C82202210090002004F040
:103340009BFB00203A4908706DE05FE049E034E003
:1033500020E00CE000E065E0002003460246032187
:10336000009004F089FB0020314908705BE00020E8
:103370000346024601210090084604F07DFB002030
:10338000034602460146009004F076FB00202849DF
:10339000087048E0002003460246014600900120E4
:1033A00004F06AFB0020034602460121009004F06D
:1033B00063FB00201E49087035E01E48FF23F533EB
:1033C0001A4602210090012004F056FB002003461B
:1033D00002460121009004F04FFB002014490870C0
:1033E00021E01448FF23F5331A4602210090002003
:1033F00004F042FB002003460246012100900846EB
:1034000004F03AFB00200A4908700CE00020034653
:10341000094A01460090012004F02EFB00200449D7
:10342000087000E000BF00BF04F0B4FC08BD00005D
:103430008C020020FFFF0000B80B000003200249AF
:1034400008700020487070478C02002010B50446B8
:10345000E200044BD2189188E2009858FEF784FEEF
:1034600010BD0000D495000810B50446E200044BDE
:10347000D2189188E2009858FEF778FE10BD00003F
:10348000D495000810B5064A91881068FEF76CFEC6
:10349000034A91899068FEF767FE04F057FB10BD60
:1034A000D495000810B5FFF747FE10BD10B52149AF
:1034B0000020FDF737FB1F4800881F4908801D4882
:1034C0000088FDF775FB1D480078C007C00F002875
:1034D00016D01A48007802210840002810D017485A
:1034E000007817490870154800780221884313496D
:1034F00008700520FDF740FF01201249087018E010
:103500000E480078C007C00F002812D10B48007881
:103510000221084000280CD00848007808490870AB
:1035200006480078022188430449087000200549B4
:10353000087010BD80020020760200207802002072
:10354000790200207D0200207047000004480088B6
:10355000002804D002480088401E014908807047B6
:103560007A02002004480068002804D0024800685D
:10357000401E014908607047380200200148024996
:103580000860704788130000380200200148024993
:1035900008607047881300003802002010B504F05E
:1035A000DDFD05480068002805D10448007800F0DA
:1035B00075FCFFF7EBFF10BD380200203C02002035
:1035C00010B504466421614389000846B430FF21E8
:1035D0006931FCF7A5FD10BD7CB504462BA004F0B5
:1035E000B8FE04F0CFFE002807D12B48FCF7DFFD22
:1035F00000192A490968884225D9002004F0C8FE2C
:103600002548001FFCF7D3FD0546294624A004F0F9
:10361000A0FE012005F014FE05460020244B2A469A
:1036200001460094019004F0F5FFFF2005F008FE2C
:10363000054600201E4B2A460146009401900120B9
:1036400004F0E8FF20E01448FCF7B1FD05462946E8
:1036500018A004F07EFEFF2005F0F2FD05460020D4
:10366000134B2A4601460094019004F0D3FF012039
:1036700005F0E6FD054600200D4B2A460146009464
:103680000190012004F0C6FF7CBD00006D7420692C
:103690006E636820310A0000BC080020040300208B
:1036A0005550206C696D69742025640A0000000083
:1036B000B80B0000446F776E206C696D697420252B
:1036C000640A0000FEB505460E46314613A004F01C
:1036D00040FE00241EE0FF2005F0B2FD074600205A
:1036E000610600950190080E0F4B3A46002104F048
:1036F00091FF012005F0A4FD074600206100491C50
:1037000000950190C8B2084B3A46002104F082FFB0
:10371000601CC4B2B442DEDBFEBD00006D742069E3
:103720006E63682025640A00B80B000070B504467B
:1037300021461CA004F00DFE1E48FCF738FDA042F7
:1037400005D31C48001DFCF732FDA04200D970BD16
:103750001948006884420FD9FEF7DEFD85B20120CA
:1037600005F06EFD064614480068231A2A463146C5
:10377000002005F0EFFB12E00F48006884420ED2F3
:10378000FEF7CAFD85B2FF2005F05AFD06460A483D
:103790000068031B2A463146002005F0DBFB00BF12
:1037A000D5E700006D742072756E20746F2025645B
:1037B0000A000000B80800200403002070B5044689
:1037C000201DFCF7F4FC05462046FCF7F0FC854282
:1037D00009D82046FCF7EBFC0546201DFCF7E7FC6A
:1037E000281A18282DD221461648FCF7EAFC211D7C
:1037F000FF20FCF7E6FC21460C310120C005FCF758
:10380000E0FC214608310120C005FCF7DAFC204627
:10381000FCF7CDFC0546FDF71FF9201DFCF7C7FCA2
:103820000546FDF75BF820460830FCF7C0FC05466E
:10383000FDF776F820460C30FCF7B9FC0546FDF79D
:1038400097F870BD00FFFF0070B53548FCF7AFFC7E
:103850000446214633A004F07CFD3148FCF7A7FC68
:103860000121C905884204D02D48FCF7A0FC00289E
:1038700000D170BD05F028FD002800D1F9E72848E7
:10388000FCF795FC044626480838FCF790FC844277
:1038900009D82348FCF78BFC04462148001FFCF79D
:1038A00086FC844205D21E490120C005FCF789FC34
:1038B000DFE71B48FCF77BFC1F490968884213D9E6
:1038C0001748FCF774FC1C490968441AFEF724FDEC
:1038D00085B2012005F0B4FC064623462A4631464F
:1038E000002005F037FB19E00D48FCF760FC124999
:1038F0000968884212D20A48FCF759FC0E49096847
:103900000C1AFEF709FD85B2FF2005F099FC06466A
:1039100023462A463146002005F01CFB00BFA8E7DD
:10392000C00800206D7420746F206D6964646C653C
:103930002025640A0000000004030020F8B50546B5
:10394000002429462DA004F004FD642D00DDF8BDFF
:1039500005F0BAFC00284ED02E48FCF728FC07469C
:103960002C48001DFCF723FC381A68430646323603
:1039700064213046FCF7BEFB07462648001DFCF7D5
:1039800016FC3C18214624A004F0E3FC2148FCF777
:103990000EFCA04205D31F48001DFCF708FCA04206
:1039A00000D9D4E71F480068001D84420FD9FEF7F4
:1039B000B3FC86B2012005F043FC074619480068B5
:1039C000231A32463946002005F0C4FA13E0201DC0
:1039D0001449096888420ED2FEF79EFC86B2FF2089
:1039E00005F02EFC07460F480068031B3246394697
:1039F000002005F0AFFA00BFA9E700006D74207049
:103A0000657263656E7461676520746F202564203C
:103A10000A000000B8080020706F735F73742025DF
:103A2000640A000004030020F8B50446642C26D183
:103A30007248FCF7BCFB724909681E31884213D3F7
:103A40006E48001DFCF7B3FB1E306D4909688842C3
:103A50000AD86B481E2102686AA004F07AFC1E2175
:103A6000002005F06FFBC8E065480021026865A0F2
:103A700004F06FFC0021084605F064FBBDE0012C5A
:103A800029D15E48FCF793FB5D49096814318842EF
:103A90001DD95A48FCF78BFB59490968451A294634
:103AA0005EA004F056FC5548FCF781FB54490968B8
:103AB000451AFEF731FC86B2012005F0C1FB07462E
:103AC0002B4632463946002005F044FA95E058A0CE
:103AD00004F03FFC91E0022C2CD14848001DFCF77B
:103AE00066FB14304649096888421FD24348001DCE
:103AF000FCF75DFB424909680D1A294651A004F004
:103B000028FC3E48001DFCF752FB3D4909680D1A90
:103B1000FEF702FC86B2FF2005F092FB07462B461B
:103B200032463946002005F015FA66E04BA004F055
:103B300010FC62E0032C19D164214EA004F009FCB2
:103B40002E48FCF734FB2E4909686431884254D36F
:103B5000FEF7E2FB85B2012005F072FB0646642306
:103B60002A463146002005F0F5F946E0042C1AD12A
:103B7000642144A004F0EDFB2048001DFCF717FB76
:103B800064301F490968884237D8FEF7C5FB85B203
:103B9000FF2005F055FB064664232A4631460020E7
:103BA00005F0D8F929E0052C03D16420FFF714FDB6
:103BB00023E0FF2C21D11148FCF7F9FA10490968DC
:103BC0001E31884211D30D48001DFCF7F0FA1E305B
:103BD0000B490968884208D81E21002005F0B2FA76
:103BE0001E212CA004F0B5FB07E00021084605F0DB
:103BF000A9FA002127A004F0ACFBF8BDB80800200A
:103C0000040300206D742073746F7020696E20258A
:103C10006420706F732025640A0000006D742072A8
:103C2000756E20757020737465702025640A00001D
:103C30007570206C696D6974206F766572666C6F43
:103C4000770A00006D742072756E20646F776E20A5
:103C5000737465702025640A00000000646F776E3D
:103C6000206C696D6974206F766572666C6F770A77
:103C7000000000006D742072756E20757020256440
:103C80000A0000006D742072756E20646F776E20DC
:103C900025640A006D742073746F7020696E20258E
:103CA000640A0000014908707047000011030020F9
:103CB00010B505F049FB10480078002814D0002406
:103CC00000BFEFF310800446012080F3108800BF8E
:103CD00009480078FFF7A8FE002007490870204631
:103CE00080F3108800BF00BF002005F021FA0028F3
:103CF00001D0FFF743FC10BD1103002010B586B0C2
:103D000004466846FEF718FA08200090002C04D0FC
:103D1000022001900320059001E001200190002085
:103D200002900120049069460248FEF711F906B09E
:103D300010BD00000008014000B587B001A8FEF7E3
:103D4000FBF908200190032002900020039001203D
:103D5000059001A90248FEF7FBF807B000BD00007E
:103D60000008014000B589B00120FFF7C7FF00211E
:103D700068468182C1821349018300214183017712
:103D800005A9114802F046FA6021684681800121A8
:103D9000C180002101810B49491E4181022181819D
:103DA0000021C1810182418201A9074802F0E4F9A2
:103DB0000121054802F05DF90121034802F073F981
:103DC00009B000BDAF040000002C014010B586B062
:103DD00004466846FEF7B0F910200090002C04D08D
:103DE000022001900320059001E0012001900020B5
:103DF00002900120049069460248FEF7A9F806B037
:103E000010BD00000008014000B587B001A8FEF712
:103E100093F91020019003200290002003900120CC
:103E2000059001A90248FEF793F807B000BD000015
:103E30000008014000B589B00120FFF7C7FF00214D
:103E400068468182C1821349018300214183017741
:103E500005A9114802F0DEF9602168468180012140
:103E6000C180002101810B49491E418102218181CC
:103E70000021C1810182418201A9074802F038F97D
:103E80000121054802F0F5F80121034802F00BF981
:103E900009B000BDAF040000002C014070B505461C
:103EA000002401F0F9FE11480078AA2817D100205B
:103EB0000E4908700E480078002801D00120044304
:103EC0000C480078002801D0022004432046FCF76B
:103ED00015FD09480068FCF74BFDFCF71FFE0121AA
:103EE000002000F0EFF801F005FF70BD290300206D
:103EF000490200204802002004030020704700000F
:103F0000C206D20E01219140014A116070470000A3
:103F100080E200E0C206D20E01219140014A116008
:103F20007047000080E200E0C206D20E01219140FD
:103F3000014A11607047000000E100E010B504463E
:103F400061780020205600F071F8A078002809D090
:103F500000202056C206D20E01219140074A11606E
:103F600000BF0AE000202056C206D20E0121914077
:103F7000024A8032116000BF00BF10BD00E100E0C6
:103F800010B500211D2000F015F80321142000F0C9
:103F900011F80221122000F00DF80121102000F08C
:103FA00009F80121082000F005F80221152000F091
:103FB00001F810BD10B5002819DA1A4A03071B0FC3
:103FC000083B9B089B00D2588307DC0EFF23A340CD
:103FD0009A438B071B0E8407E40EA3401A43114B30
:103FE0000407240F083CA408A4001A5118E00E4A44
:103FF00003231B02D21883089B00D2588307DC0ED0
:10400000FF23A3409A438B071B0E8407E40EA340B3
:104010001A43054B032424021B198408A4001A51D7
:1040200010BD00001CED00E000E100E010B500282C
:1040300019DA1A4A03071B0F083B9B089B00D2584A
:104040008307DC0EFF23A3409A438B071B0E8407D4
:10405000E40EA3401A43114B0407240F083CA408A4
:10406000A4001A5118E00E4A03231B02D218830839
:104070009B00D2588307DC0EFF23A3409A438B0793
:104080001B0E8407E40EA3401A43054B03242402AD
:104090001B198408A4001A5110BD00001CED00E09B
:1040A00000E100E00146032901D1642070470229A4
:1040B00001D14B20FAE7012901D13220F6E7002097
:1040C000F4E7000010B502460020124B1868800883
:1040D00080001C150346A3431846034613431846A5
:1040E00000BF0C4B1B6803430A4C23600A4B1B693F
:1040F00004242343084C2361012901D130BF02E08D
:1041000040BF20BF20BF044B1B690424A343024CC3
:10411000236110BD0070004000ED00E0704700001A
:1041200004480078002804D002480078401E014965
:10413000087070477C02002003480078002801D1F5
:10414000012070470020FCE7E502002004480078C9
:10415000002804D002480078401E014908707047CA
:10416000E502002010B5024600200A4BD86A1C1553
:104170000346A34318461F24E4020346A3431846FC
:1041800003461343184603460B431846014BD862B7
:1041900010BD00000010024001460020044AD06A11
:1041A0000009000102460A431046014AD0627047E6
:1041B0000010024010B5024600200A4BD86AFF24C6
:1041C000F1340346A3431846002903D003461343A2
:1041D000184604E0FF2401340346A3431846014B6C
:1041E000D86210BD0010024014490968012212046F
:1041F0009143124A116011460968012292049143C9
:104200000E4A116001210904411A04D0032212044C
:10421000891A10D107E009490968012212041143E3
:10422000064A116008E00549096805221204114395
:10423000024A116000E000BF00BF7047001002405A
:104240000549C96A072252059143034AD1621146C2
:10425000C96A0143D1627047001002400649C96A29
:10426000072252069143044AD1621146C96A4206A6
:104270001143014AD1627047001002400D49096A9A
:10428000142291430B4A1162042802D010280ED147
:1042900006E00849096A04221143064A116207E050
:1042A0000449096A14221143024A116200E000BF66
:1042B00000BF70470010024001460020064A5068C7
:1042C00007231B0202469A43104602460A43104641
:1042D000014A506070470000001002400146002073
:1042E000054A50680723DB0202469A431046CA007B
:1042F0001043014A5060704700100240F0B5044678
:1043000000200025114E76680327BF05BE430F4FDE
:104310007E603E4670680E4E3040002C03D0012671
:104320003606B44204D10E4616431E43304309E01C
:10433000064E356806461E4330460126B60535430F
:10434000024E3560014E7060F0BD0000001002406A
:10435000FFFFC0FE01460020044A5068C008C000AC
:1043600002460A431046014A50607047001002405E
:1043700010B501210148FCF7D1FD10BD00140A0061
:10438000002905D0054A52690243044B5A6104E0F2
:10439000024A52698243014B5A6170470010024041
:1043A000002905D0054AD2690243044BDA6104E0D2
:1043B000024AD2698243014BDA6170470010024021
:1043C000002905D0054A12690243044B1A6104E032
:1043D000024A12698243014B1A6170470010024081
:1043E000002905D0054A92690243044B9A6104E012
:1043F000024A92698243014B9A6170470010024061
:10440000012806D10649096801221143044A1160B6
:1044100005E00349096849084900014A11607047ED
:1044200000100240012806D10649096A0122114301
:10443000044A116205E00349096A49084900014A32
:104440001162704700100240F0B585B004460025A7
:1044500000BF002003900290019000900027534875
:1044600040680F2109040840039050484068032128
:104470000905084002904D484068890008400190B5
:104480004A48406801210906084000900398000C42
:10449000C01C03900098000E002804D144490398E2
:1044A0004843064603E042490398484306460298BB
:1044B000000D401C029030460299FBF71BFE064699
:1044C0000198800D401C019030460199FBF712FEC7
:1044D00006463648406837490840054601218903A9
:1044E000681A8D4212D004DC002D09D0082D16D197
:1044F00009E008280CD001218903401A0FD10BE0F4
:104500002B4820600EE02A4820600BE0266009E07E
:104510000120C003206005E02748206002E0244815
:10452000206000BF00BF21484068F02108400546D8
:104530002D09082D00D200252048475D2068F8404D
:1045400060601A48406807210902084005462D0AA4
:104550001A48475D6068F840A06014484068C90088
:1045600008400546ED0A1548475D6068F840E06080
:104570000E48C06A05072D0F1148475D394660682F
:10458000FBF7B8FD60610948C06AFF21F1310840BE
:1045900005462D092807C00E0A490F5A39463046EC
:1045A000FBF7A8FD206105B0F0BD0000001002403F
:1045B00000127A0008C0000030750000069600085E
:1045C000169600082696000810B501460022002322
:1045D00000204A11012A02D10A4C236806E0022A6F
:1045E00002D1084C236A01E0064C636ACA06D20E67
:1045F000012494401C40002C01D0012000E0002048
:1046000010BD0000001002400348C06A072149069F
:104610000840400E704700000010024010B5002313
:104620001A46032109041846FFF768FE0220FFF727
:1046300091FE10BD38B5002000900024002500BF79
:104640003120FFF7C1FF05460098401C0090012172
:1046500049030098884201D0002DF1D03120FFF7A6
:10466000B3FF002801D0012400E00024204638BD1B
:1046700038B5002000900024002500BF2120FFF75E
:10468000A3FF05460098401C0090052109020098F0
:10469000884201D0002DF1D02120FFF795FF00289E
:1046A00001D0012400E00024204638BD00B587B0C9
:1046B00001F076FC0021134801F0DBFC00201149D9
:1046C0002031888001210420FFF78AFE01A8FDF730
:1046D00033FD0120000301900120029001A90A4846
:1046E000FDF736FC012109030748FDF73DFD0121D7
:1046F000C902054800F064F80120C002FCF77EFC06
:1047000007B000BD000400400008014030B589B08A
:1047100004460D462548844204D101210520FFF7B7
:104720005FFE19E02248844204D101210920FFF7ED
:1047300057FE11E01F48844204D101211120FFF7E8
:104740004FFE09E01C48844204D101218120FFF77B
:1047500047FE01E009B030BD1848854209DC03A8D6
:10476000FDF7EAFC03950020059003A92046FDF71C
:10477000EFFB0B210020FDF771FB0120C00201902F
:10478000002168460172082141720021817201A84E
:10479000FCF74EFC082168460170012141700021A0
:1047A0008170FFF7CBFB00BFD4E700000008014099
:1047B000000C014000100140001C0140FFFF000000
:1047C00030B589B004460D462448844204D1012105
:1047D0000520FFF705FE19E02148844204D101219C
:1047E0000920FFF7FDFD11E01E48844204D101219C
:1047F0001120FFF7F5FD09E01B48844204D1012197
:104800008120FFF7EDFD01E009B030BD174885427A
:1048100009DC03A8FDF790FC03950020059003A98F
:104820002046FDF795FB0B210020FDF717FB01202B
:10483000C0020190002168460172082141720121E5
:10484000817201A8FCF7F4FB082168460170012180
:1048500041708170FFF772FB00BFD5E7000801408F
:10486000000C014000100140001C0140FFFF00004F
:1048700010B5012109030B48FDF776FC0A480088B2
:10488000401C094908800021084801F0F2FB002083
:10489000064920318880064888810121034801F0BB
:1048A000E8FB10BD00080140600200200004004049
:1048B0000113000010B50120064908700648074999
:1048C0000880FEF705FC0320FCF756FDFDF718FFF6
:1048D00010BD00001E030020102700002003002050
:1048E00010B504480068FCF743F80020024908703E
:1048F00010BD0000040300201E03002010B500F0CE
:10490000B5F8002862DD324800F06AF8401C002843
:1049100000D110BD00202F4908702D48C0792C49C6
:10492000097848402A49C871084680790978484082
:1049300027498871084640790978484024494871D8
:104940000846007909784840214908710846C0782E
:10495000097848401E49C870084680780978484060
:104960001B49887003F014FB002804D00021184A6A
:1049700011605160CDE71648407815498978484064
:1049800013494870084640784979484010494870B2
:1049900011480068402803D00F480068802802D1E1
:1049A00001F098F80CE00D480078012802D1FEF7DC
:1049B00079F805E004F06AFD002801D100F0E4F97F
:1049C0000020034A10605060FEF7D8FD00BFA0E74A
:1049D0005802002052020020640400201E03002020
:1049E00010B504460D4800780D490978884212D068
:1049F0000A480078C0000B49081803C861602060AD
:104A00000A2106480078401CFBF78AFBC8B203491C
:104A10000870002010BD0020C043FBE754020020B6
:104A200053020020B805002013B50A210C48007875
:104A3000401CFBF775FBCCB20A48007884420CD0CE
:104A4000074A1278D200084B9A1800990198116011
:104A500050600348047000201CBD0020C043FBE7E9
:104A60005302002054020020B805002010B505496B
:104A700009780A31044A1278881A0A21FBF750FB98
:104A8000C8B210BD530200205402002000220A7058
:104A900082794A7042798A700279CA70C2780A7142
:104AA00082784A7142788A710278CA717047000030
:104AB00001200149087070471E03002010B5002135
:104AC0002B4801F0D6FA0020294920318880294856
:104AD00088810121264801F0CCFA0121C90226482B
:104AE000FDF738FB012804D124480078401C2349F5
:104AF000087023480078401C214908700846007857
:104B0000C007C00F002832D11C480078C007C00F72
:104B1000002817D01B480168406849184041194ACD
:104B2000116050600121C9021348FDF713FB0028F2
:104B300004D114480078401C1249087000200F4925
:104B4000087014E000210A4801F093FA0C4800783C
:104B5000842803D10B4803C8FFF766FF0021094AE8
:104B6000116051600020064908700449087010BDAA
:104B7000000400400C260000000801405102002003
:104B8000500200206802002009480088002804DD47
:104B900007480088401E06490880054840880028CC
:104BA00004DD03484088401E0149488070470000EA
:104BB0001403002010B51B48C07D012818D11A48E5
:104BC0000079012814D11848008800280AD104F07F
:104BD000AFFA002806D06420FEF726FF0020124915
:104BE000087105E010484088002801D10E4908717D
:104BF0000E480088002813D10D480078012803D002
:104C00000C480078002804D00020094908700949A0
:104C1000087009480078002802D000200649087072
:104C200010BD0000B808002014030020200300205D
:104C30001F030020120300201303002070B5044658
:104C40000E461546072E3FD007DC330002F01AFA55
:104C5000078D141B222A31378D00172E4AD006DC0F
:104C6000082E36D0092E39D00A2E7ED13DE0182EDE
:104C70004FD01A2E79D152E0404801192846FCF74E
:104C800043F9042476E03D480119281DFCF73CF95E
:104C900004246FE03948011928460830FCF734F93C
:104CA000042467E0354801193548FCF72DF9042440
:104CB00060E004F029FB3149085501245AE0287EC0
:104CC0002E490855012455E0287D2C49085501241A
:104CD00050E0687D2949085501244BE02846FDF73E
:104CE000D1FA26490855012444E0A87C23490855F7
:104CF00001243FE023488078204908552148417825
:104D00001E4A601C11541F480178A01C1154032432
:104D100030E002F089FA1949085501242AE02846B2
:104D2000FDF7E8FA154908550846005D012804D04A
:104D3000022807D0032810D10AE014210F4A601C72
:104D400011540FE019210D4A601C11540AE00CE0C7
:104D50001E210A4A601C115404E00021074A601C0D
:104D6000115400BF00BF022404E0FF20034908558E
:104D7000012400BF00BF204670BD00005D07002079
:104D8000DC060020C6020020F8B5FBF7C7FF0028AC
:104D900000D0F8BDFE484479F0210C40402C23D1CE
:104DA00004F0B2FA002822D1FA48007800281ED078
:104DB000F8480078401EC0B2F6490870002816D1A5
:104DC000F5490870F548FBF7F2F9002805D0F348DB
:104DD000FBF7EDF96104884203D16420FEF724FE5D
:104DE00005E0FEF731FD02E00020EB490870202CC1
:104DF00001D0802C0DD1E9480838C07D012808D1A8
:104E0000E7480079012804D1E5490871FF202D30D9
:104E10000880FCF71BF8002863D0A02C16D1642072
:104E2000FEF702FE0120DF49087008460178DEA087
:104E300003F08FFA0020D749087000F0A7FEDF4882
:104E4000DF4908800020DF490870A2E7D5480078D4
:104E5000002803D1DB480078002804D002F0E8F8ED
:104E6000002800D095E7CA48407909280BD1C848E6
:104E700080782038C7B264203D464543EF09384664
:104E8000FEF75CFD85E7402C5AD10A20C149087025
:104E9000C4480078012825D1CA4800784006000E91
:104EA000C849087008460078002803D108460078F1
:104EB000401C0870C34800788021084000280AD0B0
:104EC000FFF7F8FCC0490020085EFEF785FB0020D4
:104ED000BC49087002E06420FEF7A6FDB748B84957
:104EE000088083E204F010FA002807D1B348B449DF
:104EF0000880A9480078401CA74908700020B149E3
:104F00000870A548007804210840002814D000202B
:104F1000A1490870A149091DAC480068FBF751F987
:104F20009E48083800F044FF0028DAD0A649002047
:104F3000085EFEF751FB59E26420FEF775FD55E26D
:104F4000802C77D10020974908709E48007800286F
:104F500056D09C480078C007C00F002803D001201D
:104F6000FBF7FAFC44E0974800780221084000284B
:104F700013D08A49083995480068FBF722F9874819
:104F8000083800F02FFF85480838FEF717FC8F48D7
:104F900001688FA003F0DDF92AE08A48007810212B
:104FA0000840002805D000208649087004F0AEFAB9
:104FB000EFE68448007808210840002802D0FBF77B
:104FC000FDFF15E07F48007820210840002802D02E
:104FD000FBF760FC0CE07B4800784021084000288B
:104FE00002D0FBF7F3FC03E0002076490870D0E61E
:104FF0000020744908707449085EFEF7EDFAF5E187
:1050000066480838C07D01280FD104F07DF9FF28DB
:1050100003D163480079012807D101206049087154
:10502000FF202D300880704848800120FEF7FCFCEE
:10503000DCE1FFE7202C74D132205949887100202F
:10504000584908705F480078002850D05D480078C3
:10505000C007C00F002803D00020FBF77DFC3EE016
:10506000584800780221084000280ED04B49091FFB
:1050700056480068FBF7A5F84848083800F06AFE73
:1050800046480838FEF79AFB29E04E480078102180
:105090000840002805D000204A49087004F04EFA64
:1050A00077E64848007808210840002802D0FBF73E
:1050B0007BFF14E0434800782021084000280AD0F4
:1050C00036480838FBF7DAFD3448001DFBF76FF867
:1050D0003E49086003E000203A49087059E6002084
:1050E000384908703849085EFEF776FA7EE12B48A9
:1050F0000838C07D01280FD104F006F9012803D13A
:1051000027480079012807D1012025490871FF208F
:105110002D300880344848800220FEF785FC65E188
:10512000FFE7102C62D127480078002803D01D48E3
:10513000007800280DD00120224908700020154970
:1051400008701849087000F021FD1C481C490880AF
:105150001FE601F06DFF002800D01AE6194800781C
:105160004006000E17490870084600788021084064
:10517000002809D0FFF79EFB13490020085EFEF7C8
:105180002BFA00200F4908700C480D4908802DE1CA
:10519000580200201C03002013030020C008002038
:1051A000140300201F0300206252656D6F74655F59
:1051B00053747564792025640A00000010270000EC
:1051C000200300201203002004960008040300209E
:1051D0007570206C696E6974207365742E20706F11
:1051E000732025640A000000B80B0000002C96D143
:1051F0007F4840790007000F032802D17C48867859
:1052000001E07B48C67930466638030001F03AFF7A
:10521000170D151D252D353D4B5D656D7588999CC8
:10522000A5AEB7BFECC7D0E3EC00724800680546F6
:1052300016352846FEF77AFAD7E06E48006805462C
:1052400064352846FEF772FACFE06A4800680546E2
:10525000C8352846FEF76AFAC7E066480068054682
:10526000163D2846FEF762FABFE062480068054630
:10527000643D2846FEF75AFAB7E05E4800680546E6
:10528000C83D2846FEF752FAAFE05B49594800682E
:10529000FAF797FF584800F0A5FD58490020085E2E
:1052A000FEF79AF9A1E05449091D52480068FAF73F
:1052B00088FF514800F04EFD4F48FEF77FFA4F49F6
:1052C0000020085EFEF788F98FE0FBF777FE4B4978
:1052D0000020085EFEF780F987E0FBF765FE47498E
:1052E0000020085EFEF778F97FE0FBF73FFE4349B8
:1052F0000020085EFEF770F977E03F48007E002846
:105300000DD03D48FBF7BAFC3B480C30FAF74FFF95
:105310003849086039490020085EFEF75DF964E00D
:1053200035490C3133480068FAF74BFF324800F03A
:105330003FFD002804D031490020085EFEF74CF9FB
:1053400053E0FEF781FA50E03220FBF76DFB2B496A
:105350000020085EFEF740F947E04B20FBF764FBB6
:1053600026490020085EFEF737F93EE06420FBF78F
:105370005BFB22490020085EFEF72EF935E0FBF7C3
:1053800025FB1E490020085EFEF726F92DE0FBF7FD
:1053900081FA1A490020085EFEF71EF925E0012077
:1053A000FBF7DAFA15490020085EFEF715F91CE054
:1053B0001148007E00280DD10F48FBF75FFC0E4816
:1053C0000C30FAF7F4FE0B4908600C490020085E27
:1053D000FEF702F909E00020FBF7BEFA07490020BA
:1053E000085EFEF7F9F800E000BF00BF00BFD0E4A0
:1053F0005802002004030020B8080020049600088A
:105400000178C2790270C1714178827942708171EC
:105410008178427982704171C1780279C2700171DC
:105420007047000010B5FBF7B3FDFBF79FFD4B2065
:10543000084948760020FBF783FA00200549C87523
:10544000802088740818807C02210843014980313B
:10545000887410BD2C06002038B50025002000906F
:105460002748007801284AD100202549087025499D
:1054700008706946244801F069FA0446012C17D1E6
:105480006846027820492148FAF75EFE2048006805
:10549000401C1F49086004E0284600F03DF8401910
:1054A000C5B2684600788542F6DBFEF767F826E06D
:1054B000022C24D16846027813491448FAF744FEB6
:1054C00012480078AA281AD110484078BB2816D173
:1054D0000E488078CC2812D101F092FE01F07CFEBB
:1054E0000C48FDF78BF80320FDF782F83220FDF71A
:1054F00069F8FDF775F8FDF76BF800BFFEE738BDFA
:10550000CC020020C90200206508002025080020E8
:10551000EC02002055550000F0B5CFB00446002540
:1055200000204B904A906846FBF79EF9902269460E
:1055300024A8FAF709FEFE49201D085C4E90601D64
:10554000085C4D900846005D5A2871D1601C085CCB
:10555000A528FAD1A01C085C5A28F6D1E01C085CEA
:10556000A528F2D14D9AD21DD1B2F14A101902F0FC
:10557000D3FE0028E9D14E98012809D0022833D063
:10558000032870D004286FD10120EA49087092E204
:10559000264615E0B01DE649095CA81DE64A1154EF
:1055A000681CC5B2B01DE24A115CA01D4019C3B20F
:1055B00024AA1846FFF742FB4019C5B2701CC6B2B8
:1055C0004D982018B042E5DC8120DB49087108467F
:1055D0004571E81DD949087001F056FCD8480068AB
:1055E000401CD749086066E20125D149A01D085C2E
:1055F000D1498871CE49A01D085C092809D128A885
:10560000C079D04908700120FEF74CFBFDF77EFD04
:10561000ADE0C749A01D085C0A280AD128A8C079B6
:10562000C84908700220FEF73DFBFDF76FFD9EE0C4
:1056300042E2BF49A01D085C0B2803D16420FEF79D
:1056400031FB94E0BA49A01D085C0C2828D1E01D6C
:10565000085CBD49087008460078642805D101201F
:10566000FEF720FB08E08DE024E2B7480078002830
:1056700002D16420FEF716FBB4492498884206D074
:105680002598FF2803D0B0480078FEF757F9A849BD
:10569000E01D085CA849C8710225FDF737FD66E0EA
:1056A000A349A01D085C182812D1E01D085CA2497E
:1056B000C8710846C079002803D10320FEF7F2FA2A
:1056C00002E00420FEF7EEFA0225FDF71FFD4EE092
:1056D0009749A01D085C192820D10A46E11D5018E1
:1056E00003F00EFF07460F2F00DA0F273846FDF7AD
:1056F00067FF279940184C904C98FEF717F88C4993
:10570000E01D085C8C49C871894920460830085C56
:10571000894908720325FDF7F9FC28E08449A01D9A
:10572000085C1A2820D10A46E11D501803F0E8FE53
:1057300007460F2F00DA0F273846FDF741FF27995C
:10574000081A4C904C98FDF7F1FF7949E01D085C70
:105750007949C871764920460830085C7649087254
:105760000325FDF7D3FC02E0FE207349C8718220B7
:105770007149087108464571E81D7049087001F0CB
:1057800083FB98E102256A49A01D085C6A4988717B
:105790006749E01D085C6849C8716549A01D085C3F
:1057A0000D2812D1E01D085C012806D124A800F0C4
:1057B00019FB24A8FEF702F801E0FBF7FFFB6449A0
:1057C0000020085EFDF708FF69E15949A01D085C4B
:1057D0000E2812D1E01D085C012806D124A800F093
:1057E000B9FA24A8FDF7EAFF01E0FBF7DDFB584911
:1057F0000020085EFDF7F0FE51E14D49A01D085C58
:10580000162807D1FBF7B2FB51490020085EFDF7CF
:10581000E3FE44E14649A01D085C0F280AD14D482B
:1058200000F0C6FA0028CFD049490020085EFDF7F5
:10583000D3FE34E13E49A01D085C10280FD128A8F2
:10584000017A3B4AE01D105C814202D024A8FBF79C
:1058500015FA3F490020085EFDF7BEFE1FE13449FE
:10586000A01D085C11280CD1E01D085C28A9087156
:105870000879FBF703F836490020085EFDF7ACFE17
:105880000DE12B49A01D085C12280CD1E01D085C1D
:1058900028A948714879FBF715F82D490020085EC2
:1058A000FDF79AFEFBE02249A01D085C13281AD1DF
:1058B000A01D085C204988711D49E01D085C012875
:1058C00007DCE01D095C28A8817128A98879FBF70D
:1058D0001BF828A880791849C8711D490020085E66
:1058E000FDF77AFEDBE01249A01D085C142846D1C2
:1058F00020460830085C104908720D4920460930DE
:10590000085C0D4948720A4920460A30085C0A4979
:1059100088720846007A00024B900846C1794B987D
:10592000081880B24B900448807A00024A9013E035
:1059300025080020CE0200205D070020CA020020BA
:10594000F0020020D8020020D902002000FFFF0052
:1059500004960008B80800205A48417A4A98081866
:1059600080B24A90052540A94B98488440A84A999E
:105970008184082148A80170FDF7E2FB8FE05249BD
:10598000A01D085C152805D1FDF7A2FB0320FBF73D
:10599000F3FC84E04C49A01D085C17280CD1E01DE5
:1059A000085C28A988708878FAF780FF47490020AA
:1059B000085EFDF711FE72E04349A01D085C18283F
:1059C0000BD1FBF7E5FA00213E4AE01D11543F4997
:1059D0000020085EFDF700FE61E03B49A01D085C69
:1059E00019280BD1FFF71EFD0021364AE01D115486
:1059F00036490020085EFDF7EFFD50E03249A01D5A
:105A0000085C1A2848D1E01D085C032803DCE01D6F
:105A1000085C002803D1FD202A49C8713FE02A4ACA
:105A2000E11D505CFEF73EFB28A9C8722649E01D27
:105A3000095C244A11541146085C012804D002284C
:105A400008D0032812D10BE014211E4A204608304A
:105A5000115411E019211B4A2046083011540BE063
:105A60001E21184A20460830115405E00021154A2D
:105A700020460830115400BF00BF032528A9C87A6A
:105A8000FAF7D2FF28A9C87AFAF7DAFF0F490020FF
:105A9000085EFDF7A1FD02E0FD200A49C8718320E0
:105AA0000849087108464571E81D0949087001F068
:105AB000EBF900E000BF00BF4D98C01DC0B24FB071
:105AC000F0BD00005D0700202508002004960008B6
:105AD000CA02002010B50E484079F0210840044663
