:020000040800F2
:1000000068150020D9000008AD410008E925000866
:1000100000000000000000000000000000000000E0
:10002000000000000000000000000000C95D0008A2
:100030000000000000000000CD430008ED60000853
:10004000EB000008EB000008EB000008EB000008E4
:10005000EB000008EB000008ED0F0008F50F0008AA
:10006000F70F0008EB000008EB000008EB000008A9
:10007000EB000008EB000008EB000008EB000008B4
:1000800089610008EB000008A9610008EB00000886
:10009000E12D00083D040008EB000008EB0000081B
:1000A000EB000008EB000008EB000008EB00000884
:1000B000EB00000805300008EB000008EB0000082A
:1000C0000448854600F086F8004800476988000823
:1000D000C046C046681500200448804704480047D1
:1000E000FEE7FEE7FEE7FEE7FEE7FEE71561000834
:1000F000C100000830B50B46014600202022012433
:1001000009E00D46D5409D4205D31D469540491B4B
:100110002546954040191546521E002DF1DC30BD94
:1001200070B500242546002801DA01244042002948
:1001300001DA01254942FFF7DDFFAC4200D0404221
:10014000002C00D0494270BD03460B439B0703D0EF
:1001500009E008C9121F08C0042AFAD203E00B788C
:100160000370401C491C521EF9D27047D2B201E004
:100170000270401C491EFBD270470022F6E710B502
:1001800013460A4604461946FFF7F0FF204610BD05
:1001900030B505460020034600E05B1C934205D2C3
:1001A000EC5CC85C201A01D1002CF6D130BD0321D3
:1001B000001D401E037812021A43491EF9D510464D
:1001C0007047034603220870000A491C521EFAD5E4
:1001D00018467047064C0125064E05E0E36807CC3B
:1001E0002B430C3C98471034B442F7D3FFF76CFF15
:1001F0003C9B00085C9B000870B58C180578401C7F
:100200006B075B0F01D10378401C2A1106D10278DD
:10021000401C03E006780E70401C491C5B1EF9D19F
:100220002B0705D40023521E0DD40B70491CFAE78E
:100230000378401CCB1A921C03E01D780D70491CFA
:100240005B1C521EF9D5A142D8D3002070BD00001E
:1002500004480088002804D002480088401E014954
:1002600008807047F002002002688A4302607047ED
:1002700070B505460C46002D08D10021FF20013045
:1002800004F000F9204604F0EFF806E001212046D2
:1002900004F0F8F8002004F0E7F870BDF0B504466B
:1002A00000200025072914DD20690E46083EB7000E
:1002B0000F26BE4035460646AE4330460E46083E43
:1002C000B6001F46B7403D4606462E4330462061E5
:1002D0000FE060698F000F26BE4035460646AE43EC
:1002E00030468E001F46B7403D4606462E433046F8
:1002F0006061072A14DAA06B561EB700F7190F26A3
:10030000BE4035460646AE433046561EB700F61987
:100310000F46B7403D4606462E433046A0632CE0CC
:100320000D2A14DA606BD61FB700F7190F26BE40EE
:1003300035460646AE433046D61FB700F6190F467F
:10034000B7403D4606462E433046606315E0206BBD
:1003500016460D3EB700F7190F26BE403546064635
:10036000AE43304616460D3EB700F6190F46B7406D
:100370003D4606462E4330462063F0BD002904D09A
:10038000826801231A43826003E0826852085200A7
:1003900082607047002905D0826805231B051A4337
:1003A000826004E0826805231B059A4382607047DF
:1003B00000B587B001210C2004F07AF901A801F002
:1003C000CFFE40200190032002900020039001A95D
:1003D0000C4801F0D1FD0120019003200290002083
:1003E000039001A9084801F0C7FD202001900320D7
:1003F00002900020039001A9024801F0BDFD07B062
:1004000000BD000000080140000C01400146086DDD
:1004100080B270470246002013680B40002B01D0C9
:10042000012000E00020704702460020536D0B4081
:10043000002B01D0012000E00020704710B5022100
:100440008448FFF711FF10218248FFF70DFF814814
:10045000FFF7DCFF80490880084602887F48407B20
:10046000122148437D49183943187C48417B1220AA
:1004700041437A4818380818007C40001A527748DF
:10048000407B12214843754918394018007C401CB4
:10049000C2B27248407B1221484370491839401853
:1004A00002746E48407B122148436C491839401849
:1004B000007C08287ED100226848407B12214843F6
:1004C00066491839401802746448407B1221484339
:1004D00062491839095A6148407B12225043604AE8
:1004E000126811525D48407B122148435B4918391C
:1004F000401841885948407B12225043584A12689C
:10050000801841805548407B12214843534918398F
:10051000401881885148407B12225043504A12684B
:10052000801881804D48407B122148434B4918393F
:100530004018C1884948407B12225043484A1268FB
:100540008018C1804548407B1221484343491839EF
:10055000401801894148407B12225043404A1268AA
:10056000801801813D48407B122148433B4918399E
:10057000401841893948407B12225043384A12685A
:10058000801841813548407B12214843334918394E
:10059000401881893148407B12225043304A12680A
:1005A000801881812D48407B122148432B491839FE
:1005B000401800E031E0C1892848407B12225043B6
:1005C000274A12688018C1812448407B1221484381
:1005D000224918394018017C2048407B12225043A0
:1005E0001F4A1268801801741C48407B122148433E
:1005F0001A4918394018417C1848407B1222504350
:10060000174A12688018417401211448407B122255
:100610005043134A1268801841741048407B401CB4
:10062000C1B20E484173407B022802DB00210B4817
:1006300041730A48407B0B49095C08480173024634
:10064000107B203A11688847044920394868804760
:1006500010BD00000008024038020020B404002051
:1006600090020020B89A000830B50246002000230E
:100670005068FF2501350446AC4320460C7824021F
:100680002043506090680C4C20404D688C682C438F
:100690004D786D002C4320439060106B0F252D0585
:1006A0000446AC4320460C7B641EE4B223431C0585
:1006B0002043106330BD0000FDF7F1FF10B5024686
:1006C0000020506D0B78002B02D00123184301E06D
:1006D000400840004B78002B02D00223184303E06F
:1006E00002240346A34318468B78002B03D0012332
:1006F0005B02184304E0012464020346A343184646
:10070000CB78002B03D0FF230133184304E0FF24F0
:1007100001340346A343184610240346A343184656
:100720000B79012B01D110231843506510BD000037
:1007300070B5044602211048FFF76CFE0546012DF6
:1007400017D102210C48FFF78FFD10210A48FFF74F
:100750008BFD0948FFF75AFE20800623012208215D
:100760000548FFF79BFD01210348FFF713FE012019
:1007700070BD0020FCE70000000802400146012097
:100780008002814205DB08480088401C064A108030
:1007900002E00020044A108003480088642801DB3E
:1007A000012070470020FCE7A202002000B587B0BE
:1007B00001A801F0D5FC0220019003200290002046
:1007C000039001A9024801F0D7FB07B000BD00006B
:1007D000000C014000B587B001A801F0C1FC022067
:1007E0000190012002900020039001A9024801F02D
:1007F000C3FB07B000BD0000000C014010B504466B
:10080000002C04D00221044801F0C4FC03E00221C2
:10081000014801F0BDFC10BD000C014010B50121E4
:10082000082003F045FF10BD10B501210C2003F096
:100830003FFF0121080303F00BFF012003F048FFF5
:1008400004F07EF80446012C01D000BFFEE707212A
:10085000C902002003F0EEFD08210020FFF708FD8B
:1008600010BD000010B504468D2202492046FFF756
:100870006BFC10BD3E0600200449897C0222114316
:10088000024A91741146803908757047BE060020EF
:1008900010B501F0F7F80348807C022108430149B4
:1008A000887410BDBE0600200449897C02221143D1
:1008B000024A91741146803988747047BE06002040
:1008C0000449897C02221143024A917411468039FD
:1008D00048757047BE06002010B504460548807C68
:1008E00002210843034988747C392046FFF769FCDC
:1008F00010BD0000BE0600200149C871704700000D
:10090000BE0600200449897C02221143024A9174E8
:100910001146803988757047BE06002010B5044620
:100920000548807C022108430349887478392046B1
:10093000FFF747FC10BD0000BE0600200449897C7B
:1009400002221143024A9174114680390876704799
:10095000BE0600200549897C02221143034A917496
:10096000114680390874020A4A747047BE06002096
:100970000449897C02221143024A9174114680394C
:10098000C8757047BE06002010B504460548807C37
:10099000012108430349887474392046FFF711FC8C
:1009A00010BD0000BE06002030B5A5B005462846A3
:1009B00004F09AFE002404E0295D08A80155601C9B
:1009C000C4B2072CF8DB01A801F068F8012805D1B2
:1009D0000348807C022108430149887425B030BD5A
:1009E000BE06002010B501F07DF80348807C02218E
:1009F00008430149887410BDBE06002010B5A4B09C
:100A00000446204604F070FE00230DE0E15C07A8D8
:100A1000C154C15C09488079C200121A0748643881
:100A20001018C154581CC3B2072BEFDB0348807C5D
:100A3000022108430149887424B010BDBE0600207D
:100A40000449897C02221143024A9174114680397B
:100A500048767047BE0600200449897C0222114373
:100A6000024A917411468039C8767047BE0600204C
:100A700010B504460548807C022108430349887468
:100A800080392046FFF79DFB10BD0000BE06002008
:100A90000449897C02221143024A917411468871EB
:100AA00070470000BE06002004498979CA00521A26
:100AB000024964395118887170470000BE06002051
:100AC00010B5002406F062FC002800D110BD00BF64
:100AD000EFF310800446012006F036FC1448007B3A
:100AE000012803D1204606F02FFCEFE70121104832
:100AF0000173204606F028FC0D48807C0221084046
:100B0000002806D00A48807C88430949887401F08F
:100B100077F800BFEFF310800446012006F014FCC4
:100B2000002103480173204606F00EFC00BFCDE70C
:100B3000BE06002010B501F03BF910BDF3B583B03F
:100B400004460025022C02DB002005B0F0BD00BFEA
:100B5000EFF310800546012006F0F3FB12206043FE
:100B600018494018407C0190284606F0EAFB01989D
:100B7000002825D000BFEFF310800546012006F0C5
:100B8000E0FB0021122060430E4A801841740027C8
:100B9000002608E0122060430A4940187100405ABC
:100BA000C719701CC6B2082EF4DB284606F0C9FB34
:100BB0007803000C02900499029808800120C4E791
:100BC0000020C2E7100600202A490978002906D033
:100BD00001290ED0022921D0032948D129E0264934
:100BE000884205DC0121234A11700A21234A118021
:100BF0003EE02249098800290FD11F49884209DCBB
:100C000002211C4A11701E490978032211431C4A13
:100C1000117002E00021174A117029E001218902B8
:100C2000884205DD0321134A11706421134A1180A3
:100C30001EE012490988002918D101218902884241
:100C400011DD00210B4A11700D4909780222114370
:100C50000B4A1170114609784908490011700021AA
:100C6000044A117002E00221024A117000E000BF44
:100C700000BF704794020020C70300009A020020C2
:100C80009802002010B5024808F0EAFE10BD0000EE
:100C9000D000002070B50446207E012802D100203B
:100CA000207601E001202076207EFFF747FE201D00
:100CB000FFF77DFAFF2805D02046FFF778FA1C4998
:100CC000884202D100F05EF931E02046FFF76FFA6A
:100CD0000646201DFFF76BFA361820460C30FFF74A
:100CE00066FA351A21460C312846FFF76AFA204683
:100CF000FFF75DFA0646201DFFF759FA3618204621
:100D00000830FFF754FA351A214608312846FFF714
:100D100058FA20460C30FFF74AFA0546FFF734FE32
:100D200020460830FFF743FA0546FFF7F7FD70BD90
:100D300000FFFF001CB5454840790F2802DD002167
:100D40004248417141484079002801D101201CBD31
:100D5000002474E0E1000A1B3C49643950186946DC
:100D600003F0F8FF3A484079C007C00F002806D1C9
:100D70006846807836498978884200D05DE06846C8
:100D8000C0783349C978884200D056E06846007977
:100D90002F490979884200D04FE068464079000722
:100DA000000F2B4949790907090F884200D044E018
:100DB00028480078002807D027480078401EA04225
:100DC00002D0002023490870601C23490870234882
:100DD00000780978884206D01F4800781F490870BB
:100DE0002046FFF755FE684680791949897988427F
:100DF00007D16846C0791649C979884201D10020D7
:100E0000A5E768468079124989790840002806D10B
:100E10006846C0790E49C9790840002801D00020F1
:100E200095E70B494878FFF73FFE0D480078012809
:100E300001D102208BE7032089E7601CC4B203487C
:100E40004079A04286DC012081E700004C090020A7
:100E5000780200202F0300202E03002041030020F1
:100E60002703002010B5114800780F2803DA0F4837
:100E70000078012801DA002010BD0D4840780D49A6
:100E80000A4A1278895C88420ED00948407809499C
:100E9000064A1278885406494878FFF705FEAA20CA
:100EA000054908700120E7E70020E5E72E03002050
:100EB00078020020320300203103002030B51048B2
:100EC0000078401EC5002D1A0E482818827912029B
:100ED0000D4883791B02012100240DE010460840D3
:100EE000002805D118460840002801D0012030BD57
:100EF0004804010C601CC4B2102CEFDB0020F6E7A4
:100F00002E030020E808002078020020024600207E
:100F100003E0135C0B54431CD8B20228F9DB704782
:100F20000246002003E0135C0B54431CD8B2042893
:100F3000F9DB7047002905D0054A126B0243044BC8
:100F40001A6304E0024A126B8243014B1A63704732
:100F50000070004004480088002804D0024800883F
:100F6000401E014908807047EE02002000B503468C
:100F700004E07D20C00007F00FFC5B1E002BF8D1C1
:100F800000BD000010B50748FFF772FDFF20FFF716
:100F9000A3FC0120C005FFF7C1FC0120C005FFF73D
:100FA000F3FC10BD00FFFF00002104484171817176
:100FB000807C02210843014988747047BE060020E6
:100FC00010B5FF20FFF788FC0120C005FFF7A6FC45
:100FD00010BD000010B50448FFF74AFD0120C00510
:100FE000FFF79CFC10BD000000FFFF0010B505F0EE
:100FF00007F810BD704710B50120C00200F010F8CE
:10100000002805D00120C00200F004F803F098FD8C
:1010100010BD000001494861704700000004014014
:10102000014600200022074B1B680B401A46054B67
:101030005B690B40002B03D0002A01D0012000E0A7
:101040000020704700040140002120498279002AD5
:1010500035D00A46126803689A430B461A600A465E
:10106000526803689A430B465A60027951180A681D
:1010700003681A430A60154A926803689A43134B3F
:101080009A601A46D26803689A43104BDA60427934
:10109000102A0CD11A46926803681A430B4B9A60C7
:1010A0001A46D26803681A43084BDA600DE0074914
:1010B000427951180A6803681A430A6005E0027908
:1010C00051180A6803689A430A6070470004014097
:1010D0000249C9680143014AD160704700200240BB
:1010E00030B5044607253420FFF7F2FF0B2000043B
:1010F00000F07EF80546042D17D10D480069022145
:1011000008430B49086108464461006940210843CF
:10111000074908610B20000400F06AF805460448FE
:1011200000690449084002490861284630BD0000B2
:1011300000200240FD3F000007200D49C968C90793
:10114000C90F002901D0012010E00949C968042213
:101150001140002901D0022008E00549C968102289
:101160001140002901D0032000E004207047000056
:1011700000200240034800698021084301490861BA
:10118000704700000020024078B504460D4607264F
:10119000002000903420FFF79BFF0120400300F067
:1011A00027F80646042E10D109480069012108439A
:1011B000074908612560F00200F01AF80646044865
:1011C00000690449084002490861304678BD0000C2
:1011D00000200240FE3F00000248034948600348E7
:1011E000486070472301674500200240AB89EFCD7E
:1011F00010B503460724FFF79FFF044603E0FFF7FF
:101200009BFF04465B1E012C01D1002BF7D1002B64
:1012100000D10624204610BDFEB504460E46656882
:101220000027206801900020009000BF15E0010118
:10123000695AB1420FD1010149194A6801998A429C
:1012400009D10121009101014919CF680101491912
:101250008968029104E0411C88B221898142E6DC60
:1012600000BF0098002804D0002F00D0B847029893
:101270002060FEBD10B50446204600F013F8052896
:1012800001D1002010BD002020800120FAE710B518
:101290000446204600F038F8042801D1002010BD93
:1012A0000120FCE770B504460025002C01D1012087
:1012B00070BD00BFEFF310800546012006F03BF83B
:1012C000104840780F490978884216D0284606F021
:1012D00032F80C48407841000A48801C405A20806F
:1012E00008494978481CC117C90E09184911490114
:1012F000411A044A51700520DAE7284606F01BF827
:101300000320D5E72804002070B504461349097866
:10131000481CC117C90E091849114901411ACDB21B
:1013200000BFEFF310800646012006F004F80B48DA
:101330004078A8420CD0304605F0FDFF0748007801
:1013400041000648801C4452801E0570042070BD78
:10135000304605F0F0FF0220F9E7000028040020E5
:1013600000200249487008707047000028040020DF
:1013700008B5002000906846FFF77CFF002804D1E4
:10138000684601880148FFF747FF08BD6C0400204C
:1013900010B504462046FFF77AFF10BDF8B50446A5
:1013A0000D4616461F46656027602681FFF7D8FF69
:1013B000F8BD000010B5024808F052FB10BD000057
:1013C000C000002010B50D48FEF7F1FE04460B48A2
:1013D000001FFEF7ECFE84420AD80848001FFEF703
:1013E000E6FE04460548FEF7E2FE201A182803D25E
:1013F00000F0D4F800F02AF910BD000042060020E9
:1014000010B5FF20F530FFF7B1FD05F0C9FF00F082
:10141000E3F9FFF755FB00F005F800F09FFB00F043
:10142000C3F910BD0548407B002803D101210348C2
:10143000417302E00021014841737047BE0600205D
:1014400010B5554840790F280DDD002152484171F3
:101450000830FEF7ACFE01214903084304464E491B
:101460000831FEF7AEFE4C484079002802D1002139
:1014700049488171FFF7A6FF47488038807D0128E1
:101480000FDD012044498039887508468830FEF711
:101490008EFE01214902084304463F490831FEF708
:1014A00090FE3D488038007D04280EDB00203A493C
:1014B0008039087508468830FEF779FE8021084398
:1014C000044635490831FEF77CFE33488038407DBC
:1014D00004280FDB012030498039487508468830E0
:1014E000FEF765FEFF210131084304462A49083111
:1014F000FEF767FE28488038C07C20280EDB0020DD
:1015000025498039C87408468830FEF750FE4021CE
:101510000843044620490831FEF753FE1E48803830
:10152000007E01280FDD00201B498039087608461F
:101530008830FEF73CFE0121C902084304461649E3
:101540000831FEF73EFE14498039487C097C0002D0
:101550000843A0280FDD4B210F488038017400217B
:1015600041748830FEF723FE1021084304460A49DF
:101570000831FEF726FE00F025F807488038407E47
:10158000642804DC04488038407E322803DA4B208B
:1015900001498039487610BDBE06002010B50849C3
:1015A0000120C005FEF70DFE05487C30FEF7FFFD6B
:1015B00008210843044602497C31FEF702FE10BDB3
:1015C0004A06002010B50B48FEF7F1FDFF2806D0B3
:1015D0000848001FFEF7EBFD0749884204D10020B0
:1015E0000449091F887603E001200249091F887613
:1015F00010BD00004206002000FFFF0010B500F003
:101600000FF9012803D000F0DDF800F055F800F0E4
:10161000B3F9012804D003490120C005FEF7D1FD2C
:1016200010BD00004A06002070B504460648C47587
:101630008830FEF7BCFD01218902084305460249B6
:101640008831FEF7BEFD70BD3E06002010B518497A
:101650001848FEF7B6FD1649091DFF20FEF7B1FD3B
:10166000134908310120C005FEF7ABFD1048883052
:10167000FEF79DFD0121084304460D498831FEF720
:10168000A0FD0B488830FEF792FD02210843044676
:1016900007498831FEF795FD05488830FEF787FD3C
:1016A00004210843044602498831FEF78AFD10BD33
:1016B0003E06002000FFFF0070B500240DE000256D
:1016C00007E00021E000021B184810184155681C73
:1016D000C5B2072DF5DB601CC4B20F2CEFDBFFF7A2
:1016E000B5FF0021114864304171FFF76BFF002006
:1016F0000E491C39C8740120887500200875012026
:1017000048754B20087400204874802088744B2052
:10171000C87648760020FFF787FF04486430807C55
:101720000221084301496431887470BD5A060020C3
:1017300000B58BB0202103A8FEF71FFD002001900B
:101740000290174800F094F98A2103980843039007
:101750005B2109020398084303901B218904039825
:10176000084303907D21090603980843039003A9C9
:101770000B4800F0E7F9042201A9094806F02CF90A
:10178000FFF79AFF00210748417301460E31002000
:10179000FEF717FD00F0E2F900F014F80BB000BD01
:1017A00000EC0008BE06002010B50448407B400253
:1017B000034A8418204600F05BF910BDBE060020E5
:1017C00000E4000810B5FFF7E9FE10BD01460888E7
:1017D00070470146086870471CB5002000900190D2
:1017E000042269460D4806F0F7F8684600788A2812
:1017F0000ED1684640785B280AD1684680786C280C
:1018000006D16846C0787D2802D1FFF7F7FE01E0D7
:10181000FFF78EFFFFF714FE1CBD000000EC000870
:10182000F0B5A7B000202690902102A8FEF7A5FCF5
:101830004F48019000278E2202A9019806F0CCF8AB
:101840008D2102A806F08AFF20A9497D884202D195
:101850000120269001E0781CC7B2269801287DD18E
:101860001CA90331C97809061CAA03329278120414
:1018700011431CAA033252781202114318AAD27CD7
:10188000114308463B49FEF79CFC1DA90331C9786A
:1018900009061DAA03329278120411431DAA0332CD
:1018A00052781202114318AAD27D114308463149D9
:1018B000091DFEF786FC1EA90331C97809061EAA78
:1018C00003329278120411431EAA03325278120294
:1018D000114318AAD27E1143084626490831FEF763
:1018E00070FC20AA507823498874501F4078000269
:1018F00018AAD17E08431F490874000A487420AA18
:101900009078C874D07808751079487550798875C2
:101910009079C875D0790876107A4876507AC8766A
:10192000907A887618AA517C124880304171917C57
:1019300081710026002514E000240AE0A01902A904
:10194000095CE800421B0B481C3010180155601C54
:10195000C4B2072CF2DBF01DC6B200E006E0681C42
:10196000C5B20F2DE8DB012027B0F0BD0020FBE75A
:1019700000E800083E0600207CB50026002000900C
:10198000019006226946354806F026F8052168468A
:1019900006F0E4FE69464979884201D000207CBD0A
:1019A0006A4611782E484173694609790906D2784A
:1019B000120411436A469278120211436A46527821
:1019C0001143084626490E31FEF7FBFB2448407BB5
:1019D0004002244A8018044607226946204605F042
:1019E000FBFF0621684606F0B9FE6A4691798842F7
:1019F00001D1012601E0681CC5B2012E2CD16A4636
:101A0000117817488079C200121A154864381018E6
:101A100081716946097909066A46D2781204114330
:101A20006A469278120211436A4652781143084678
:101A30000B497439FEF7C5FB6A4651790848C171F4
:101A4000C0793040084908700548C0790221084033
:101A5000064908700120A2E70020A0E700F0000876
:101A6000BE06002000E40008690200206802002091
:101A700010B50446FFF7B0FB2046FFF731FBFFF738
:101A800079FB10BD10B500210348817141716922B5
:101A90006438FEF774FB10BDBE06002010B5024688
:101AA0000F4840790F2801DD002010BD00210CE017
:101AB00010461C30435C0A484079C400241A084888
:101AC000643820184354481CC1B20729F0DB04488D
:101AD0004079401CC3B2024843710120E5E7000091
:101AE000BE06002010B5164A5279002A00D110BD5A
:101AF000134A907914E000210EE0421CD3009B1A97
:101B00000F4A643A9A18535CC200141A0C4A643A99
:101B1000A21853544A1CD1B20729EEDB421CD0B2A2
:101B2000074A5279521E8242E5DC0023044A93712F
:101B30005279521ED3B2024A537100BFD7E7000058
:101B4000BE06002070B505460C46FFF745FB28464B
:101B50002168FFF719FBFFF70DFB70BD1FB50024CF
:101B6000002002900390009001902348FFF780FF2F
:101B70002248417B6846017220480E30FEF717FB71
:101B8000C1B2684641721D480E30FEF710FB0004DA
:101B9000010E6846817219480E30FEF708FB0002FC
:101BA000010E6846C17215480E30FEF700FB010EAB
:101BB00068460173052102A806F0D0FD6946487306
:101BC00007E002AA11190C4AA018FFF7BBFF201D5D
:101BD000C4B2062CF5DB06226946074805F0FCFE78
:101BE0000622694602A8FEF7D3FA002802D1012096
:101BF00004B010BD0020FBE700F00008BE06002086
:101C0000F0B5C9B000204890902124A8FEF7B5FA9D
:101C100090216846FEF7B1FA00204890002413E0B6
:101C200000250DE0E000011B5F480818415D24AA73
:101C3000489811544898401CC0B24890681CC5B2DE
:101C4000072DEFDB601CC4B20F2CE9DB3EA903318A
:101C500055481C38FFF764F93FA90331524818383A
:101C6000FFF75EF940A903314F481438FFF758F9E0
:101C70004D491C39487C097C00020843642815D072
:101C800049491C39487C097C000208434B280DD087
:101C900045491C39487C097C00020843322805D09C
:101CA0004B2141481C380174002141743E48643086
:101CB000417938A841763C486430817938A88176EA
:101CC00039491C39487C097C00020843C1B240A84C
:101CD000C17135491C39487C097C00020843011256
:101CE00040A8017230481C38817C40A841722E48BF
:101CF0001C38C17C40A881722B481C38017D40A84B
:101D0000C17229481C38417D40A8017326481C38FF
:101D1000817D40A8417324481C38C17D40A881734F
:101D200021481C38017E40A8C1731F481C38417EE1
:101D300040A801741C481C38C17E40A841741A4850
:101D40001C38817E40A881748D2124A806F006FDF0
:101D500040A948770026154F00BF3846FFF788FE98
:101D6000002406E024AA11193819FFF7EBFE201D04
:101D7000C4B28E2CF6DB8E226946384605F02CFE66
:101D80008E22694624A8FEF703FA002804D0701CAE
:101D9000C0B206460328E0DB032E02DB002049B078
:101DA000F0BD0120FBE700005A06002000E8000813
:101DB0007FB50024002002900390009001902E48EF
:101DC0008079C100091A2C4864380818817968465E
:101DD000017229487438FEF7EAF9C1B268464172C7
:101DE00025487438FEF7E3F90004010E6846817255
:101DF00021487438FEF7DBF90002010E6846C17213
:101E00001D487438FEF7D3F9010E684601731A486D
:101E1000C17968464173062102A806F09FFC694615
:101E2000887300251448407B4002144A861800BF7E
:101E3000002406E002AA11193019FFF783FE201DC5
:101E4000C4B2072CF6DB07226946304605F0C4FD14
:101E50000722694602A8FEF79BF9002804D0681CF7
:101E6000C0B205460328E3DB032D02DB002004B0EB
:101E700070BD0120FBE70000BE06002000E4000862
:101E80007047000030B502460D4B8C10A4001B5962
:101E90008C07250F0F24AC40A343094C8D10AD00D7
:101EA000635123468C10A4001B598C07250F144640
:101EB000AC402343024C8D10AD00635130BD000097
:101EC0000800014000B587B00121042002F0F0FBBA
:101ED00001A800F045F9FF20013001900120029097
:101EE00001A9224800F048F8FF2101311F4800F005
:101EF00051F90121042002F0DBFB01A800F030F9C8
:101F000001208002019000200290039001A917484F
:101F100000F032F80121042002F0CAFB01A800F011
:101F20001FF901204002019000200290039001A9B6
:101F30000E4800F021F8012149020C4800F01EF97A
:101F4000002801D0012000E000200949087001218B
:101F50008902064800F012F9002801D0012000E0B3
:101F600000200449087007B000BD000000080140CF
:101F7000690200206802002070B503460A4600216D
:101F800000240020DCE001268E40156835402C46F8
:101F9000002C7DD05568022D02D05568122D20D11D
:101FA00008250D40002D0ED0586A4D07EE0E0F2566
:101FB000B5400646AE4330464E07F60E5569B5406D
:101FC000284358620DE0186A4D07EE0E0F25B54004
:101FD0000646AE4330464E07F60E5569B5402843D7
:101FE00018625568012D08D05568112D05D0556827
:101FF000022D02D05568122D0BD1586801258D4055
:102000000646AE4330461579ED06ED0F8D40284368
:10201000586018684E000325B5400646AE4330466A
:102020001579AD07AD0F4E00B54028431860D8684C
:102030004E000325B5400646AE4330464E00956837
:10204000B5402843D860986801258D400646AE43C8
:102050003046D5688D4028439860D86A01258D4068
:102060000646AE43304615698D402843D8620126A6
:10207000360755683540B54261D1344D8E08B600FB
:10208000A8598D072E0F0F25B5400646AE4300E038
:1020900055E030462E4DAB4201D100250AE02D4DD2
:1020A000AB4201D1012505E02B4DAB4201D1022508
:1020B00000E005258E07360FB5402843234D8E08D6
:1020C000B600A851254D28680546A5432846012697
:1020D000360455683540B54202D1054625432846A9
:1020E0001E4D286068680546A543284601267604EB
:1020F00055683540B54202D1054625432846174D5F
:102100006860A8680546A543284601263605556837
:102110003540B54202D10546254328460F4DA860FB
:10212000E8680546A54328460126760555683540EA
:10213000B54202D1054625432846084DE860491CB2
:102140001568CD40002D00D01DE770BD080001408E
:1021500000080140000C0140001001400004014053
:10216000054901600F214161002141608160012129
:10217000C160002101617047FFFF0000024600209E
:1021800013690B40002B01D0012000E000207047B4
:10219000816270478161704700211D4800780128E5
:1021A00000D101431B480078012801D102200143DE
:1021B000194800788007800F174A10701046007881
:1021C0008006000E107010460078401810701348FA
:1021D0001278805C012802D1114A107008E00F4883
:1021E0000D4A1278805CFF2802D100200C4A107042
:1021F0000C48007E002805D00748007810221043C4
:10220000054A10700548044A1278805C7047000047
:10221000690200206802002018030020D89A0008F4
:1022200010030020CC08002010B51C4800780128BD
:102230000DD11B4800681B49884205D21848006828
:10224000401C1749086002E0164815490860134809
:102250000078FF280CD112480068FF2805D91048E3
:102260000068401E0E49086002E0FF200C4908602B
:1022700007F088FA09490978884205D00A48808918
:10228000801C0949888108E007488089002804DD0E
:1022900005488089401E0449888110BD080300203C
:1022A0000C03002000FFFF00BC080020F8B5044626
:1022B00020460C30FDF77BFF0646201DFDF777FF1B
:1022C000864201D8002523E020460C30FDF76FFF41
:1022D00006462046FDF76BFF864201D3642517E0D2
:1022E0002046FDF764FF0746201DFDF760FF3E1AFC
:1022F00020460C30FDF75BFF0746201DFDF757FF1A
:10230000381A6421484331460090FDF7F3FEC5B208
:10231000A07E002800D1FF252846F8BD0146487E52
:10232000642801D103207047487E4B2801D1022048
:10233000F9E7487E322801D10120F4E70020F2E7D6
:102340000948407E642801DB084870470648407E03
:102350004B2801DB0648F8E70348407E322801DBC2
:102360000448F2E70148F0E73E060020AC0D00000B
:10237000B80B0000C4090000002005E00021820025
:10238000054B9950411CC8B20428F7DB0021024AD2
:102390001174517470470000AC05002010B504465C
:1023A000002C05D0FF2101310448FFF7F3FE04E0C3
:1023B000FF2101310148FFF7EBFE10BD000801408D
:1023C00010B5012149023148FFF7D8FE002801D09D
:1023D000012000E000202E490978884211D1012116
:1023E00089022A48FFF7CAFE002801D0012000E038
:1023F000002028490978884203D100202649087026
:102400003EE025480078401C2349087008460078C3
:10241000052835DB00200870012149021B48FFF721
:10242000ADFE002801D0012000E00020184908700E
:10243000012189021548FFF7A1FE002801D00120E3
:1024400000E0002013490870144800681449097C12
:102450008900134A50501046007C401C11460874F5
:102460000846007C042801DB002008740C48407CEE
:10247000401C0B49487400200849086000F01AF815
:1024800006480068401C0549086010BD000801406E
:1024900069020020680200206A0200206C0200200D
:1024A000AC05002010B5FFF70DFD03F0B3FEFFF7FC
:1024B00063FF10BD10B5FFF76FFE0C490870FFF702
:1024C000B3FE0B480078002805D10A480068401C7C
:1024D0000849086008E006480078012804D105484A
:1024E0000068401E0349086010BD0000080300207A
:1024F000100300201403002000B587B00121042040
:1025000002F0D6F801A8FFF72BFEFF200130019062
:102510000320029001A90248FFF72EFD07B000BD7D
:102520000008014010B52648407C002839D0002022
:10253000234948740846006849684018204989685A
:1025400040181F49C96840181E4908601C480068A7
:1025500000280BD01A484068002807D01848806827
:10256000002803D01648C068002803D10020154970
:10257000486016E013480068002812D0114A11681C
:1025800012685208104BD018FDF7B4FD04460D48F0
:10259000406870214843210140184030C009094972
:1025A000486008488089142808DB00200549888194
:1025B000012003F09DFD642001F08EFB10BD0000A2
:1025C000AC050020BC080020C027090010B5002081
:1025D00007F006FA0020FFF7E1FEFFF78DFF10BDC0
:1025E00010B5FFF75FFF10BD00BFFEE7014988602F
:1025F0007047000000300040014802490860704701
:10260000CCCC00000030004001480249086070470F
:10261000AAAA00000030004001494860704700004D
:102620000030004001490860704700000030004061
:10263000F8B5054600260027012D1EDA00240CE01F
:10264000204600F01FF8002805D0701CC6B20120FB
:10265000A0403843C7B2601CC4B2012CF0DB680054
:102660000749085CB04206D1680040184078B8427B
:1026700001D10120F8BD0020FCE70020FAE70000AE
:10268000C49A000810B50446E2001E4BD218918887
:10269000E2009858FFF772FDE1001A4A891889791B
:1026A000884211D1E0001146401880791649097816
:1026B000884202D015A006F06EF8E00011494018DB
:1026C00080791149087011E0E0000E4940188079C6
:1026D0000D490978884202D10DA006F05CF8E000AF
:1026E000084940188079C04307490870E00005494F
:1026F0004018807904490978884201D1012010BD31
:102700000020FCE7BC9A00083A0200206B640A0033
:102710006B750A000148007870470000A60200208F
:1027200010B505F0BBF910BD10B5002003490870C5
:102730000120487004F006FD10BD0000A402002036
:102740000848007800280AD106484078C007C00F22
:10275000002804D000200349487001207047002061
:10276000FCE70000A40200200848007800280AD0F6
:1027700006484078C007C00F002804D00020034955
:102780004870012070470020FCE70000A4020020F0
:102790000148007870470000A402002010B5022014
:1027A000044908700120487004F0CCFC00F010FFD0
:1027B00010BD0000A402002010B5012002490870DD
:1027C000487004F0BFFC10BDA402002008B503202F
:1027D000074908700120487004F0B4FC0120FF2371
:1027E0002D33C82202210090002005F015FB08BD02
:1027F000A40200200EB506F0B7F8012878D1E2480F
:102800008088042805D1E048008904210840002878
:1028100007D105F0B3FE022803D005F0AFFE032870
:102820002FD1D948008904218843D7490881084617
:10283000008902218843D44908813C208880D3A0A4
:1028400005F0A9FF002006F095F807F095F80121A2
:102850000903D248FFF79CFC03F0FEFC0120FF2394
:102860002D33C82202210090002005F0D5FA012264
:102870001E21142004F092FEC9490020085E00F0D9
:102880009FFFC1484089012807D0BF4840890228DE
:1028900003D0BD484089032812D1BB4800891021CC
:1028A000084000280CD0B84800898843B649088100
:1028B000032064231A4602210090002005F0ACFAA0
:1028C000B14800890221084000280FD0AE48807925
:1028D00001280BD1AC4800898843AB49088100F03E
:1028E00017FFA9488188AFA005F055FF0EBDFFE78F
:1028F000A54800890221084000281ED0A2488079FE
:1029000001281AD1A048008988439F49088106F010
:102910007FFF00280CD0642001F01CFB0120A5499A
:10292000087002206946087101A800F0D3FC02E09B
:102930000020A049087000F0EBFE93484089012870
:1029400035D1914800891021084000282FD000215E
:102950008D4841810089102188438B49088106F008
:1029600037FF002823D006F053FF00281FD19148DD
:10297000007800281BD19048007801280CD1FF2056
:102980008D490870022001F0E5FA022069460871BD
:1029900001A800F09FFC0AE001208749087001F0BF
:1029A000D9FA02206946087101A800F093FC764824
:1029B000808804280FD0744880880C280BD0724877
:1029C0008088142807D070488088202803D06E485B
:1029D0008088282814D16C480089042108400028E8
:1029E0000ED06948808875490978884208D06648C1
:1029F0008088724908706A490020085E00F0E0FE95
:102A0000614800890221084000287DD05E48807915
:102A1000002879D15C48008988435B4908810846D1
:102A200000890421084000286CD05748808832284B
:102A300068DA55488088202810DB05F0FFFE042066
:102A4000FF232D33C82202210090002005F0E4F975
:102A500004221E21142004F0A1FD53E04A4880887E
:102A6000142819DB04F0BCFD002803D00020FDF77A
:102A700065FF02E00120FDF761FF0320FF232D33F6
:102A8000C82202210090002005F0C6F903221E2171
:102A9000142004F083FD35E03B4880880C2812DBCD
:102AA00004F050FB04F03CFB0220FF232D33C8222E
:102AB00001460090002005F0AFF902221E211420EB
:102AC00004F06CFD1EE03048808804281ADB00F01A
:102AD000C9FB0320FEF75CFCFFF726FE01F094FC27
:102AE000012801D104F02EFB0120FF232D33C82241
:102AF00002210090002005F08FF901221E211420F0
:102B000004F04CFD002000E009E02C4908701E484C
:102B10000089042188431C490881002088801A48C4
:102B20008088282824D118480089042108400028DA
:102B30001ED0154800898843134908813C208880AD
:102B4000012005F017FF012109031448FFF722FBBC
:102B500006F008FF0520FF232D33C8220221009034
:102B6000002005F059F905221E21142004F016FD5D
:102B700005488088082805DD03488088282801DA70
:102B800000F0C6FD00BFB1E6C4040020657869749A
:102B90002073746F7265206D640A000000080140A4
:102BA000F89A0008756E697420636E742025640AB3
:102BB00000000000AB020020AA020020A9020020B1
:102BC00010B504F0C7FF10BD08B500F0A1FD1C480A
:102BD0008088062829D11A48008904210840002845
:102BE00023D0174800898843154908813C208880F4
:102BF0000220FEF7CDFBFFF7E9FD012005F0BAFE4C
:102C0000012109030F48FFF7C5FA06F0ABFE0520C6
:102C1000FF232D33C82202210090002005F0FCF88C
:102C200005221E21142004F0B9FC00F023FB01282A
:102C300004D10220FEF7ACFBFFF7C8FD08BD000081
:102C4000C40400200008014030B5A5B001A8FDF77C
:102C500009FE8D2201A93448FDF776FA3348407900
:102C6000F02108400446FEF765F805463048314932
:102C70000880A02C06D101202F49087003F0DEF84F
:102C800025B030BD002D2FD1FEF7ECF8002800D183
:102C9000F6E726484079A0210840002809D12648B7
:102CA0000078002801D1402C03D0FEF707F9002856
:102CB00011D1002021490870FFF770FD0220FEF7B6
:102CC00067FB00201B490880102C03D11C49085EBB
:102CD00000F076FDD4E7102C05D0174800780028C6
:102CE00002D0402C00D10225102C09D012480078C7
:102CF000002817D0402C15D104F0D6FA002811D1A5
:102D0000284603F063F80E490020085E00F058FDE5
:102D100000200A49087008490870FEF7A3F802204D
:102D2000FEF736FB00BFABE7CC080020780200209E
:102D3000102700002803002027030020260300207E
:102D4000F89A00083EB504460120C005FEF762F976
:102D50000120C005019000216846017208214172DE
:102D60000121817201A8FEF76FF9142168460170F4
:102D700001214170847001F039FA3EBD8188022240
:102D8000114381807047018A4908490001827047D8
:102D900001890222914301817047018A0122114376
:102DA0000182704701890222114301817047014667
:102DB00008880222104040087047028B0183704748
:102DC000828A81827047C26807235B029A430A4362
:102DD000C2607047028A06239A430A430282704700
:102DE00010B501212A4803F0CBFA00283FD0FEF7A6
:102DF000E1FA04F0F5F804F099F900F045FA04F06E
:102E000059F901F00BFB00F06BFC00F075FCFEF7CC
:102E1000A1F8FDF71DFA1F480088401C1D490880D5
:102E200002F016F801F0DEFA1B480088002804DDE5
:102E300019480088401E1849088018484079002821
:102E400004DD16484079401E1449487113488079C2
:102E5000002804DD11488079401E1049887106F071
:102E60001DFC05F063FC0121094803F04DFA0C48F4
:102E7000FFF79DFF002809D0012004F0FFFB084860
:102E8000FFF77CFF0120C005FEF7C4F810BD00006D
:102E90000010004066020020280300201C030020D0
:102EA000000C0040002119229201904201D18021A2
:102EB00000E0C1B2014A11807047000000480040A4
:102EC000002906D0064A1279C3B21A43044B1A717C
:102ED00004E0034A12798243014B1A7170470000E3
:102EE00000480040054909898904890C034A118179
:102EF00011460989014311817047000000480040D4
:102F000005490989054A1140034A11811146098979
:102F1000014311817047000000480040FF4F00004E
:102F200010B50121880401F0B3FB002101208004C9
:102F300001F0AEFB10BD1CB50446012080050090D9
:102F4000002168460171102141718471FEF77CF8FF
:102F50001CBD0000002806D00649098980221143C3
:102F6000044A118105E003490989034A1140014AD5
:102F700011817047004800407F7F000000B587B096
:102F80000121092001F094FB01A8FFF7E9F80820CE
:102F90000190022002900520069001A90748FEF743
:102FA000EBFF10200190012003900520069001A95D
:102FB0000248FEF7E1FF07B000BD0000000C014031
:102FC00010B501460023002200204C04620E0124AB
:102FD000944022460A4C247922401924A401A1429B
:102FE00001D1802300E0CBB2054C24882340002A85
:102FF00003D0002B01D0012000E0002010BD000014
:103000000048004010B501208005FEF703F81C4879
:10301000007919218901084000280DD00846FFF7E2
:10302000CFFF002808D019208001FFF73BFF0021C7
:1030300019208001FFF744FF29204001FFF7C0FF5E
:1030400000280BD00E4800792921490108400028AA
:1030500004D00846FFF726FF04F07AF8FF2003307B
:10306000FFF7AEFF00280AD0FF200330FFF71AFF5A
:103070000021FF200330FFF723FF04F095F810BD77
:1030800000480040F0B58DB0044600250026002021
:103090000C900B9000BF00BF089000BF3A48058914
:1030A0003A480540A088E18808432189084361899E
:1030B0000843054334490D8101F00EFC0646022EFB
:1030C00001D0032E02D132480C9017E0042E02D119
:1030D00030480C9012E0052E03D10120C0030C9063
:1030E0000CE0012E05D101A801F016FB01980C900F
:1030F00004E001A801F010FB03980C9021680C98E3
:10310000FCF7F8FF0B900B980A2804D801208003E5
:10311000FFF7E8FE02E00020FFF7E4FE1A490B98F3
:10312000888121680C98FCF7E5FF1B4841430F4656
:1031300038462168FCF7DEFF0A9000250A980990BE
:103140000020079018E0099808900A9908984018FC
:10315000099011490998FCF7CDFF07460E490898D8
:10316000FCF7C8FF4740002F03D001200799884093
:1031700005430798401C079007980828E3D30249A5
:103180000D750DB0F0BD000000480040F470000067
:1031900000127A00307500001027000010B50446B8
:1031A0000121082001F084FA230004F0A7F8063B6F
:1031B0003704101D2A3B012001F08AFA00BF01F0FC
:1031C000BFFB0128FBD1022001F0B0F92EE0012065
:1031D000000401F071F900BF01F094FB0128FBD15C
:1031E000032001F0A3F921E0012001F083FA00BFE0
:1031F000412001F051FB0028FAD0042001F096F99B
:1032000014E0042001F0A2F900BF432001F044FBC8
:103210000028FAD0052001F089F907E0012001F02B
:1032200085F903E0002001F081F900BF00BF012112
:10323000880401F01DFA10BD0148007C70470000B1
:1032400000480040014A10747047000000480040E8
:1032500010B504F03BFD012801D10149087010BDF3
:10326000A70200200148024908807047102700008B
:10327000E402002003480088002801D101207047A3
:103280000020FCE7E402002004480088002804D065
:1032900002480088401E014908807047E40200206F
:1032A00010B505480068022804D1FFF777FA02201C
:1032B000FEF76EF810BD00006C04002003200249E8
:1032C0000870002048707047AC02002010B504F070
:1032D0005BFE10BD10B50446062221460348FCF7EC
:1032E00033FF00200149487010BD0000AC020020EF
:1032F00008B5B4480078030004F000F813F70B1881
:10330000242F3A46538EBAC6D9E4F8F5F4F3F2F115
:10331000F700AD48FF23F5331A4602210090002044
:1033200004F07AFD0020A749087046E1002003461A
:103330007D22D2000146009004F06EFD0020A149DC
:1033400008703AE100200346A04A0146009004F0CC
:1033500063FD00209B4908702FE1002003460246D0
:103360000146009004F058FD00209649087024E1C1
:103370009548C8231A4602210090002004F04CFD15
:1033800000209049087018E18F48FF23F5331A4652
:1033900002210090002004F03FFD002089490870C0
:1033A0000BE18848407800280BD10120C8231A4639
:1033B00002210090002004F02FFD01208149487077
:1033C00029E080484078012811D1002004F0CCFD8C
:1033D000002820D101207D23DB00C822022100909B
:1033E000002004F019FD02207649487013E075486A
:1033F000407802280FD1002004F0B6FD00280AD141
:103400000120C8231A4602210090002004F004FD88
:1034100001206C494870D0E06A48408800280AD1F1
:1034200068488088002806D10346024601210090A2
:1034300004F0F2FC18E063484088634988420AD1EE
:1034400060488088002806D1034602460146009065
:1034500004F0E2FC08E05C4800905A488388428807
:103460000221002004F0D8FC002056490870A4E096
:103470000620FA231A4602210090002004F0CCFC1A
:1034800000205049087098E00020034602460121C0
:10349000009004F0C1FC0020034602460121009088
:1034A000084604F0B9FC00204649087085E0002079
:1034B000034602460121009004F0AEFC0020414981
:1034C00008707AE001207D23DB00C82202210090F1
:1034D000002004F0A1FC00203A4908706DE05FE094
:1034E00049E034E020E00CE000E065E00020034625
:1034F00002460321009004F08FFC0020314908703F
:103500005BE000200346024601210090084604F0DB
:1035100083FC0020034602460146009004F07CFC38
:1035200000202849087048E0002003460246014672
:103530000090012004F070FC0020034602460121A7
:10354000009004F069FC00201E49087035E01E4818
:10355000FF23F5331A4602210090012004F05CFCA1
:103560000020034602460121009004F055FC002093
:103570001449087021E01448FF23F5331A4602214C
:103580000090002004F048FC002003460246012180
:103590000090084604F040FC00200A4908700CE046
:1035A00000200346094A01460090012004F034FC43
:1035B00000200449087000E000BF00BF04F0BAFD1D
:1035C00008BD0000AC020020FFFF0000B80B0000A7
:1035D000032002490870002048707047AC020020A8
:1035E00010B50446E200044BD2189188E2009858C6
:1035F000FEF7CEFD10BD0000C89A000810B50446C5
:10360000E200044BD2189188E2009858FEF7C2FD00
:1036100010BD0000C89A000810B5064A91881068CD
:10362000FEF7B6FD034A91899068FEF7B1FD04F0FC
:103630005DFC10BDC89A000810B5FFF747FE10BD2D
:1036400010B521490020FDF779FA1F4800881F496D
:1036500008801D480088FDF7B7FA1D480078C007AC
:10366000C00F002816D01A48007802210840002810
:1036700010D01748007817490870154800780221C3
:103680008843134908700520FDF782FE0120124986
:10369000087018E00E480078C007C00F002812D14B
:1036A0000B4800780221084000280CD00848007818
:1036B00008490870064800780221884304490870C8
:1036C00000200549087010BDA002002096020020CD
:1036D00098020020990200209D02002070470000FF
:1036E00004480088002804D002480088401E014990
:1036F000088070479A02002004480068002804D01F
:1037000002480068401E01490860704758020020C6
:1037100001480249086070478813000058020020E1
:1037200001480249086070478813000058020020D1
:1037300010B504F029FF05480068002805D10448A9
:10374000007800F003FDFFF7EBFF10BD58020020EA
:103750005C02002008B503F03DFF002804D00022E1
:103760001146104603F01AFF0020034602460121CD
:10377000009004F051FB0020FFF732FF02210948BE
:10378000FEF708FD00BF03F001FE0128FBD103F0A6
:103790002DFF0220FDF7FCFD01F0B4FB03F036FD28
:1037A00008BD0000000C014010B5044664216143CF
:1037B00089000846B430FF216931FCF7B1FC10BD27
:1037C0007CB504462BA004F0E6FF04F0FDFF0028C2
:1037D00007D12B48FCF7EBFC00192A4909688842FD
:1037E00025D9002004F0F6FF2548001FFCF7DFFC78
:1037F0000546294624A004F0CEFF012005F0A4FFD1
:1038000005460020244B2A4601460094019005F00D
:103810008DF9FF2005F098FF054600201E4B2A4633
:10382000014600940190012005F080F920E0144841
:10383000FCF7BDFC0546294618A004F0ACFFFF20AC
:1038400005F082FF05460020134B2A4601460094EE
:10385000019005F06BF9012005F076FF0546002088
:103860000D4B2A46014600940190012005F05EF9B7
:103870007CBD00006D7420696E636820310A000011
:10388000D00800200C0300205550206C696D69742D
:103890002025640A00000000AC0D0000446F776E24
:1038A000206C696D69742025640A0000FEB5054628
:1038B0000E46314613A004F06EFF00241EE0FF20E8
:1038C00005F042FF07460020610600950190080EB2
:1038D0000F4B3A46002105F029F9012005F034FF8D
:1038E000074600206100491C00950190C8B2084BB2
:1038F0003A46002105F01AF9601CC4B2B442DEDB7E
:10390000FEBD00006D7420696E63682025640A00A6
:10391000AC0D000070B5044621461CA004F03BFF2E
:103920001E48FCF744FCA04205D31C48001DFCF7D0
:103930003EFCA04200D970BD1948006884420FD9EE
:10394000FEF7FEFC85B2012005F0FEFE0646144897
:103950000068231A2A463146002005F07FFD12E058
:103960000F48006884420ED2FEF7EAFC85B2FF20C1
:1039700005F0EAFE06460A480068031B2A4631465F
:10398000002005F06BFD00BFD5E700006D742072CC
:10399000756E20746F2025640A000000CC0800209A
:1039A0000C03002070B50446201DFCF700FC054602
:1039B0002046FCF7FCFB854209D82046FCF7F7FBC4
:1039C0000546201DFCF7F3FB281A18282DD22146A6
:1039D0001648FCF7F6FB211DFF20FCF7F2FB214601
:1039E0000C310120C005FCF7ECFB21460831012019
:1039F000C005FCF7E6FB2046FCF7D9FB0546FDF7C2
:103A000037F8201DFCF7D3FB0546FCF765FF204681
:103A10000830FCF7CCFB0546FCF780FF20460C3055
:103A2000FCF7C5FB0546FCF7AFFF70BD00FFFF00CC
:103A300070B53548FCF7BBFB0446214633A004F0C3
:103A4000AAFE3148FCF7B3FB0121C905884204D026
:103A50002D48FCF7ACFB002800D170BD05F0B8FE86
:103A6000002800D1F9E72848FCF7A1FB04462648C6
:103A70000838FCF79CFB844209D82348FCF797FBE5
:103A800004462148001FFCF792FB844205D21E49E0
:103A90000120C005FCF795FBDFE71B48FCF787FB1F
:103AA0001F490968884213D91748FCF780FB1C4955
:103AB0000968441AFEF744FC85B2012005F044FE73
:103AC000064623462A463146002005F0C7FC19E089
:103AD0000D48FCF76CFB12490968884212D20A486B
:103AE000FCF765FB0E4909680C1AFEF729FC85B244
:103AF000FF2005F029FE064623462A4631460020CF
:103B000005F0ACFC00BFA8E7D40800206D74207459
:103B10006F206D6964646C652025640A00000000F4
:103B20000C03002010B500242AA004F034FE2A481B
:103B30000078002829D105F07FFD002817D12748FB
:103B40000078002801D0012004432548007800288F
:103B500001D0022004432046FCF7CEFE2148006835
:103B6000FCF712FFFCF7E6FFFFF7F4FD30E0002161
:103B7000084605F06BFD00F041FC01201649087075
:103B800001031948FEF706FB22E0134800780128DC
:103B90001ED100BF00F01CFC0028FBD00F480078AD
:103BA000002801D0012004430D480078002801D0EE
:103BB000022004432046FCF79FFE0A480068FCF7F9
:103BC000E3FEFCF7B7FF002003490870FFF7C2FDD2
:103BD00010BD000070640A00C002002069020020CD
:103BE000680200200C03002000080140F8B50546DB
:103BF000002429462DA004F0CEFD642D00DDF8BD83
:103C000005F0E6FD00284ED02E48FCF7D0FA074616
:103C10002C48001DFCF7CBFA381A684306463236AA
:103C200064213046FCF766FA07462648001DFCF77B
:103C3000BEFA3C18214624A004F0ADFD2148FCF753
:103C4000B6FAA04205D31F48001DFCF7B0FAA04207
:103C500000D9D4E71F480068001D84420FD9FEF741
:103C60006FFB86B2012005F06FFD0746194800681A
:103C7000231A32463946002005F0F0FB13E0201DE0
:103C80001449096888420ED2FEF75AFB86B2FF201B
:103C900005F05AFD07460F480068031B32463946B7
:103CA000002005F0DBFB00BFA9E700006D74207069
:103CB000657263656E7461676520746F202564208A
:103CC0000A000000CC080020706F735F7374202519
:103CD000640A00000C030020F8B50446642C26D1C9
:103CE0007248FCF764FA724909681E31884213D39E
:103CF0006E48001DFCF75BFA1E306D49096888426A
:103D00000AD86B481E2102686AA004F044FD1E21F7
:103D1000002005F09BFCC8E065480021026865A012
:103D200004F039FD0021084605F090FCBDE0012CAF
:103D300029D15E48FCF73BFA5D4909681431884295
:103D40001DD95A48FCF733FA59490968451A2946DA
:103D50005EA004F020FD5548FCF729FA5449096893
:103D6000451AFEF7EDFA86B2012005F0EDFC074694
:103D70002B4632463946002005F070FB95E058A0EE
:103D800004F009FD91E0022C2CD14848001DFCF7FD
:103D90000EFA14304649096888421FD24348001D74
:103DA000FCF705FA424909680D1A294651A004F0AA
:103DB000F2FC3E48001DFCF7FAF93D4909680D1A6E
:103DC000FEF7BEFA86B2FF2005F0BEFC07462B4682
:103DD00032463946002005F041FB66E04BA004F076
:103DE000DAFC62E0032C19D150214EA004F0D3FC80
:103DF0002E48FCF7DCF92E4909685031884254D32B
:103E0000FEF79EFA85B2012005F09EFC064650237F
:103E10002A463146002005F021FB46E0042C1AD149
:103E2000502144A004F0B7FC2048001DFCF7BFF966
:103E300050301F490968884237D8FEF781FA85B2A9
:103E4000FF2005F081FC064650232A46314600201B
:103E500005F004FB29E0052C03D15020FFF7B0FC4E
:103E600023E0FF2C21D11148FCF7A1F91049096882
:103E70001E31884211D30D48001DFCF798F91E3001
:103E80000B490968884208D81E21002005F0DEFB96
:103E90001E212CA004F07FFC07E00021084605F05D
:103EA000D5FB002127A004F076FCF8BDCC0800204B
:103EB0000C0300206D742073746F7020696E2025D0
:103EC0006420706F732025640A0000006D742072F6
:103ED000756E20757020737465702025640A00006B
:103EE0007570206C696D6974206F766572666C6F91
:103EF000770A00006D742072756E20646F776E20F3
:103F0000737465702025640A00000000646F776E8A
:103F1000206C696D6974206F766572666C6F770AC4
:103F2000000000006D742072756E2075702025648D
:103F30000A0000006D742072756E20646F776E2029
:103F400025640A006D742073746F7020696E2025DB
:103F5000640A00000149087070470000190300203E
:103F600010B505F075FC10480078002814D0002426
:103F700000BFEFF310800446012080F3108800BFDB
:103F800009480078FFF7A8FE00200749087020467E
:103F900080F3108800BF00BF002005F04DFB002813
:103FA00001D0FFF7B5FB10BD1903002010B586B096
:103FB00004466846FEF7D4F808200090002C04D090
:103FC000022001900320059001E0012001900020D3
:103FD00002900120049069460248FDF7CDFF06B02B
:103FE00010BD00000008014000B587B001A8FEF731
:103FF000B7F80820019003200290002003900120D0
:10400000059001A90248FDF7B7FF07B000BD000009
:104010000008014000B589B00120FFF7C7FF00216B
:1040200068468182C182134901830021418301775F
:1040300005A9114802F04AFA6021684681800121F1
:10404000C180002101810B49491E418102218181EA
:104050000021C1810182418201A9074802F0E8F9EB
:104060000121054802F061F90121034802F077F9C6
:1040700009B000BDAF040000002C014010B586B0AF
:1040800004466846FEF76CF810200090002C04D01F
:10409000022001900320059001E001200190002002
:1040A00002900120049069460248FDF765FF06B0C2
:1040B00010BD00000008014000B587B001A8FEF760
:1040C0004FF810200190032002900020039001205F
:1040D000059001A90248FDF74FFF07B000BD0000A1
:1040E0000008014000B589B00120FFF7C7FF00219B
:1040F00068468182C182134901830021418301778F
:1041000005A9114802F0E2F9602168468180012189
:10411000C180002101810B49491E41810221818119
:104120000021C1810182418201A9074802F03CF9C6
:104130000121054802F0F9F80121034802F00FF9C6
:1041400009B000BDAF040000002C014070B5054669
:10415000002401F0F9FE11480078AA2817D10020A8
:104160000E4908700E480078002801D00120044351
:104170000C480078002801D0022004432046FCF7B8
:10418000BBFB09480068FCF7FFFBFCF7D3FC0121EF
:10419000002000F0EFF801F007FF70BD31030020B0
:1041A00069020020680200200C0300207047000014
:1041B000C206D20E01219140014A116070470000F1
:1041C00080E200E0C206D20E01219140014A116056
:1041D0007047000080E200E0C206D20E012191404B
:1041E000014A11607047000000E100E010B504468C
:1041F00061780020205600F071F8A078002809D0DE
:1042000000202056C206D20E01219140074A1160BB
:1042100000BF0AE000202056C206D20E01219140C4
:10422000024A8032116000BF00BF10BD00E100E013
:1042300010B500211D2000F015F80321142000F016
:1042400011F80221122000F00DF80121102000F0D9
:1042500009F80121082000F005F80221152000F0DE
:1042600001F810BD10B5002819DA1A4A03071B0F10
:10427000083B9B089B00D2588307DC0EFF23A3401A
:104280009A438B071B0E8407E40EA3401A43114B7D
:104290000407240F083CA408A4001A5118E00E4A91
:1042A00003231B02D21883089B00D2588307DC0E1D
:1042B000FF23A3409A438B071B0E8407E40EA34001
:1042C0001A43054B032424021B198408A4001A5125
:1042D00010BD00001CED00E000E100E010B500287A
:1042E00019DA1A4A03071B0F083B9B089B00D25898
:1042F0008307DC0EFF23A3409A438B071B0E840722
:10430000E40EA3401A43114B0407240F083CA408F1
:10431000A4001A5118E00E4A03231B02D218830886
:104320009B00D2588307DC0EFF23A3409A438B07E0
:104330001B0E8407E40EA3401A43054B03242402FA
:104340001B198408A4001A5110BD00001CED00E0E8
:1043500000E100E00146032901D1642070470229F1
:1043600001D14B20FAE7012901D13220F6E70020E4
:10437000F4E7000010B502460020124B18688008D0
:1043800080001C150346A3431846034613431846F2
:1043900000BF0C4B1B6803430A4C23600A4B1B698C
:1043A00004242343084C2361012901D130BF02E0DA
:1043B00040BF20BF20BF044B1B690424A343024C11
:1043C000236110BD0070004000ED00E07047000068
:1043D00003480078002801D1012070470020FCE745
:1043E0009C02002004480078002804D0024800788D
:1043F000401E0149087070479C0200209620014928
:10440000087070479C02002003480078002801D102
:10441000012070470020FCE7ED02002004480078EE
:10442000002804D002480078401E014908707047F7
:10443000ED02002010B5024600200A4BD86A1C1578
:104440000346A34318461F24E4020346A343184629
:1044500003461343184603460B431846014BD862E4
:1044600010BD00000010024001460020044AD06A3E
:104470000009000102460A431046014AD062704713
:104480000010024010B5024600200A4BD86AFF24F3
:10449000F1340346A3431846002903D003461343CF
:1044A000184604E0FF2401340346A3431846014B99
:1044B000D86210BD0010024014490968012212049C
:1044C0009143124A116011460968012292049143F6
:1044D0000E4A116001210904411A04D0032212047A
:1044E000891A10D107E00949096801221204114311
:1044F000064A116008E005490968052212041143C3
:10450000024A116000E000BF00BF70470010024087
:104510000549C96A072252059143034AD1621146EF
:10452000C96A0143D1627047001002400649C96A56
:10453000072252069143044AD1621146C96A4206D3
:104540001143014AD1627047001002400D49096AC7
:10455000142291430B4A1162042802D010280ED174
:1045600006E00849096A04221143064A116207E07D
:104570000449096A14221143024A116200E000BF93
:1045800000BF70470010024001460020064A5068F4
:1045900007231B0202469A43104602460A4310466E
:1045A000014A5060704700000010024001460020A0
:1045B000054A50680723DB0202469A431046CA00A8
:1045C0001043014A5060704700100240F0B50446A5
:1045D00000200025114E76680327BF05BE430F4F0C
:1045E0007E603E4670680E4E3040002C03D001269F
:1045F0003606B44204D10E4616431E43304309E04A
:10460000064E356806461E4330460126B60535433C
:10461000024E3560014E7060F0BD00000010024097
:10462000FFFFC0FE01460020044A5068C008C000D9
:1046300002460A431046014A50607047001002408B
:1046400010B501210148FCF775FC10BD00140A00EB
:10465000002905D0054A52690243044B5A6104E01F
:10466000024A52698243014B5A617047001002406E
:10467000002905D0054AD2690243044BDA6104E0FF
:10468000024AD2698243014BDA617047001002404E
:10469000002905D0054A12690243044B1A6104E05F
:1046A000024A12698243014B1A61704700100240AE
:1046B000002905D0054A92690243044B9A6104E03F
:1046C000024A92698243014B9A617047001002408E
:1046D000012806D10649096801221143044A1160E4
:1046E00005E00349096849084900014A116070471B
:1046F00000100240012806D10649096A012211432F
:10470000044A116205E00349096A49084900014A5F
:104710001162704700100240F0B585B004460025D4
:1047200000BF0020039002900190009000275348A2
:1047300040680F2109040840039050484068032155
:104740000905084002904D484068890008400190E2
:104750004A48406801210906084000900398000C6F
:10476000C01C03900098000E002804D1444903980F
:104770004843064603E042490398484306460298E8
:10478000000D401C029030460299FBF7B3FC064630
:104790000198800D401C019030460199FBF7AAFC5E
:1047A00006463648406837490840054601218903D6
:1047B000681A8D4212D004DC002D09D0082D16D1C4
:1047C00009E008280CD001218903401A0FD10BE021
:1047D0002B4820600EE02A4820600BE0266009E0AC
:1047E0000120C003206005E02748206002E0244843
:1047F000206000BF00BF21484068F0210840054606
:104800002D09082D00D200252048475D2068F8407A
:1048100060601A48406807210902084005462D0AD1
:104820001A48475D6068F840A06014484068C900B5
:1048300008400546ED0A1548475D6068F840E060AD
:104840000E48C06A05072D0F1148475D394660685C
:10485000FBF750FC60610948C06AFF21F131084054
:1048600005462D092807C00E0A490F5A3946304619
:10487000FBF740FC206105B0F0BD000000100240D5
:1048800000127A0008C0000030750000FA9A000893
:104890000A9B00081A9B000810B50146002200235D
:1048A00000204A11012A02D10A4C236806E0022A9C
:1048B00002D1084C236A01E0064C636ACA06D20E94
:1048C000012494401C40002C01D0012000E0002075
:1048D00010BD0000001002400348C06A07214906CD
:1048E0000840400E704700000010024010B5002341
:1048F0001A46032109041846FFF768FE0220FFF755
:1049000091FE10BD38B5002000900024002500BFA6
:104910003120FFF7C1FF05460098401C009001219F
:1049200049030098884201D0002DF1D03120FFF7D3
:10493000B3FF002801D0012400E00024204638BD48
:1049400038B5002000900024002500BF2120FFF78B
:10495000A3FF05460098401C00900521090200981D
:10496000884201D0002DF1D02120FFF795FF0028CB
:1049700001D0012400E00024204638BD00B587B0F6
:1049800001F06AFC0021134801F0CFFC002011491E
:104990002031888001210420FFF78AFE01A8FDF75D
:1049A000DFFB0120000301900120029001A90A48C9
:1049B000FDF7E2FA012109030748FDF7E9FB0121B0
:1049C000C902054800F064F80120C002FCF722FB90
:1049D00007B000BD000400400008014030B589B0B8
:1049E00004460D462548844204D101210520FFF7E5
:1049F0005FFE19E02248844204D101210920FFF71B
:104A000057FE11E01F48844204D101211120FFF715
:104A10004FFE09E01C48844204D101218120FFF7A8
:104A200047FE01E009B030BD1848854209DC03A803
:104A3000FDF796FB03950020059003A92046FDF79E
:104A40009BFA0B210020FDF71DFA0120C002019006
:104A5000002168460172082141720021817201A87B
:104A6000FCF7F2FA0821684601700121417000212B
:104A70008170FFF7BBFB00BFD4E7000000080140D6
:104A8000000C014000100140001C0140FFFF00002D
:104A900030B589B004460D462448844204D1012132
:104AA0000520FFF705FE19E02148844204D10121C9
:104AB0000920FFF7FDFD11E01E48844204D10121C9
:104AC0001120FFF7F5FD09E01B48844204D10121C4
:104AD0008120FFF7EDFD01E009B030BD17488542A8
:104AE00009DC03A8FDF73CFB03950020059003A912
:104AF0002046FDF741FA0B210020FDF7C3F9012004
:104B0000C002019000216846017208214172012112
:104B1000817201A8FCF798FA08216846017001210A
:104B200041708170FFF762FB00BFD5E700080140CC
:104B3000000C014000100140001C0140FFFF00007C
:104B400010B5012109030B48FDF722FB0A48008834
:104B5000401C094908800021084801F0E6FB0020BC
:104B6000064920318880064888810121034801F0E8
:104B7000DCFB10BD00080140800200200004004062
:104B80000113000010B501200649087006480749C6
:104B90000880FEF767FB0320FCF7FAFBFDF7C4FD76
:104BA00010BD00002603002010270000280300206D
:104BB00010B504480068FBF7E7FE002002490870C2
:104BC00010BD00000C0300202603002010B500F0EB
:104BD000B1F800285EDD304800F066F8401C00287F
:104BE00000D110BD00202D4908702B48C0792A49FA
:104BF000097848402849C8710846807909784840B2
:104C00002549887108464079097848402249487109
:104C100008460079097848401F4908710846C0785D
:104C2000097848401C49C87008468078097848408F
:104C30001949887003F0C2FB002804D00021164AED
:104C400011605160CDE71448407813498978484095
:104C50001149487008464078497948400E494870E3
:104C60000F480068402803D00D480068802802D112
:104C700001F088F808E00B480078012802D1FDF720
:104C8000E3FF01E000F0F4F90021034A11605160F4
:104C9000FEF73EFD00BFA4E778020020720200206C
:104CA0006C0400202603002010B504460D4800784F
:104CB0000D490978884212D00A480078C0000B4993
:104CC000081803C8616020600A2106480078401C6B
:104CD000FBF726FAC8B203490870002010BD002077
:104CE000C043FBE77402002073020020C0050020CF
:104CF00013B50A210C480078401CFBF711FACCB21E
:104D00000A48007884420CD0074A1278D200084B37
:104D10009A180099019811605060034804700020AF
:104D20001CBD0020C043FBE773020020740200207A
:104D3000C005002010B5054909780A31044A1278E7
:104D4000881A0A21FBF7ECF9C8B210BD73020020E3
:104D50007402002000220A7082794A7042798A70B7
:104D60000279CA70C2780A7182784A7142788A716F
:104D70000278CA717047000001200149087070472D
:104D80002603002010B500212B4801F0CEFA0020A8
:104D9000294920318880294888810121264801F04D
:104DA000C4FA0121C9022648FDF7E8F9012804D117
:104DB00024480078401C2349087023480078401C90
:104DC0002149087008460078C007C00F002832D17A
:104DD0001C480078C007C00F002817D01B48016886
:104DE000406849184041194A116050600121C902C8
:104DF0001348FDF7C3F9002804D114480078401C7B
:104E00001249087000200F49087014E000210A4878
:104E100001F08BFA0C480078842803D10B4803C8B2
:104E2000FFF766FF0021094A116051600020064922
:104E300008700449087010BD000400400C260000F2
:104E4000000801407102002070020020880200204A
:104E500009480088002804DD07480088401E0649EC
:104E6000088005484088002804DD03484088401E2B
:104E700001494880704700001C03002010B51B4802
:104E8000C07D012818D11A480079012814D118488A
:104E9000008800280AD104F0CFFB002806D0642047
:104EA000FEF71AFF00201249087105E010484088FB
:104EB000002801D10E4908710E480088002813D13E
:104EC0000D480078012803D00C480078002804D051
:104ED000002009490870094908700948007800282D
:104EE00002D000200649087010BD0000CC08002048
:104EF0001C03002028030020270300201A030020A1
:104F00001B03002010B5502200210448FBF737F99D
:104F10000020034908700349087010BDC005002037
:104F2000730200207402002070B504460E46154638
:104F3000072E3FD007DC330002F0E0F9078C141B8A
:104F4000222A31378C00172E4AD006DC082E36D0A4
:104F5000092E39D00A2E7DD13DE0182E4FD01A2EC1
:104F600078D151E03F4801192846FBF7D9FF0424C6
:104F700075E03C480119281DFBF7D2FF04246EE0C0
:104F80003848011928460830FBF7CAFF042466E0B8
:104F9000344801193448FBF7C3FF04245FE004F0F0
:104FA00037FC30490855012459E0287E2D49085521
:104FB000012454E0287D2B49085501244FE0687DE9
:104FC0002849085501244AE02846FDF76FF925498C
:104FD0000855012443E0A87C2249085501243EE0FD
:104FE000224880781F490855204841781D4A601C96
:104FF00011541E480178A01C115403242FE0FF20F7
:105000001849085501242AE02846FDF787F9154973
:1050100008550846005D012804D0022807D003285F
:1050200010D10AE00F210F4A601C11540FE0142127
:105030000C4A601C11540AE00CE01921094A601C5A
:10504000115404E00021074A601C115400BF00BF46
:10505000022404E0FF2003490855012400BF00BFDB
:10506000204670BD71070020F0060020D20200200B
:10507000F8B5FBF75FFE002800D0F8BDFE48447984
:10508000F0210C40402C23D104F0C2FB002822D197
:10509000FA48007800281ED0F8480078401EC0B2B8
:1050A000F6490870002816D1F5490870F548FBF755
:1050B0007EF8002805D0F348FBF779F861048842B0
:1050C00003D16420FEF708FE05E0FEF7B1FC02E024
:1050D0000020EB490870202C01D0802C0DD1E9482C
:1050E0000838C07D012808D1E7480079012804D19B
:1050F000E5490871FF202D300880FBF7B3FE00283A
:1051000063D0A02C16D16420FEF7E6FD0120DF4914
:10511000087008460178DEA003F03DFB0020D74967
:10512000087000F08BFEDF48DF4908800020DF496F
:105130000870A2E7D5480078002803D1DB48007842
:10514000002804D002F0B0F8002800D095E7CA4843
:10515000407909280BD1C84880782038C7B264202C
:105160003D464543EF093846FEF740FD85E7402CB4
:105170005AD10A20C1490870C4480078012825D1B5
:10518000CA4800784006000EC849087008460078F2
:10519000002803D108460078401C0870C3480078F6
:1051A0008021084000280AD0FFF7ECFCC04900200D
:1051B000085EFEF705FB0020BC49087002E0642091
:1051C000FEF78AFDB748B849088083E204F020FB67
:1051D000002807D1B348B4490880A9480078401C8A
:1051E000A74908700020B1490870A548007804213B
:1051F0000840002814D00020A1490870A149091DC9
:10520000AC480068FAF7DDFF9E48083800F02CFF34
:105210000028DAD0A6490020085EFEF7D1FA59E24C
:105220006420FEF759FD55E2802C77D10020974984
:1052300008709E480078002856D09C4800780421C9
:105240000840002803D00120FBF792FB44E0974878
:10525000007802210840002813D08A49083995486F
:105260000068FAF7AEFF8748083800F017FF854856
:105270000838FEF797FB8F4801688FA003F08BFA80
:105280002AE08A48007810210840002805D0002034
:105290008649087004F0B4FBEFE6844800780821E2
:1052A0000840002802D0FBF795FE15E07F48007803
:1052B00020210840002802D0FBF7EAFA0CE07B48E6
:1052C000007840210840002802D0FBF78BFB03E068
:1052D000002076490870D0E60020744908707449AF
:1052E000085EFEF76DFAF5E166480838C07D0128D2
:1052F0000FD104F08DFAFF2803D16348007901280B
:1053000007D1012060490871FF202D3008807048C6
:1053100048800120FEF7E0FCDCE1FFE7202C74D19F
:105320003220594988710020584908705F48007838
:10533000002850D05D48007804210840002803D0A0
:105340000020FBF715FB3EE058480078022108409A
:1053500000280ED04B49091F56480068FAF731FF64
:105360004848083800F052FE46480838FEF71AFB55
:1053700029E04E48007810210840002805D0002080
:105380004A49087004F054FB77E648480078082141
:105390000840002802D0FBF713FE14E043480078D1
:1053A0002021084000280AD036480838FBF772FC54
:1053B0003448001DFAF7FBFE3E49086003E0002078
:1053C0003A49087059E60020384908703849085EA3
:1053D000FEF7F6F97EE12B480838C07D01280FD191
:1053E00004F016FA012803D127480079012807D1D3
:1053F000012025490871FF202D300880344848805D
:105400000220FEF769FC65E1FFE7102C62D1274816
:105410000078002803D01D48007800280DD0012016
:10542000224908700020154908701849087000F0DA
:1054300005FD1C481C4908801FE601F035FF0028C7
:1054400000D01AE6194800784006000E1749087087
:105450000846007880210840002809D0FFF792FB19
:1054600013490020085EFEF7ABF900200F490870D1
:105470000C480D4908802DE178020020240300200B
:105480001B030020D40800201C0300202703002059
:105490006252656D6F74655F53747564792025641D
:1054A0000A00000010270000280300201A03002033
:1054B000F89A00080C0300207570206C696E6974FE
:1054C000207365742E20706F732025640A0000001D
:1054D000B80B0000002C96D17F4840790007000FE0
:1054E000032802D17C48867801E07B48C6793046A3
:1054F0006638030001F002FF170D151D252D353DFF
:105500004B5D656D7588999CA5AEB7BFECC7D0E3C0
:10551000EC0072480068054616352846FEF7FAF991
:10552000D7E06E480068054664352846FEF7F2F974
:10553000CFE06A4800680546C8352846FEF7EAF914
:10554000C7E0664800680546163D2846FEF7E2F9C2
:10555000BFE0624800680546643D2846FEF7DAF978
:10556000B7E05E4800680546C83D2846FEF7D2F918
:10557000AFE05B4959480068FAF723FE584800F04D
:105580008DFD58490020085EFEF71AF9A1E0544944
:10559000091D52480068FAF714FE514800F036FD24
:1055A0004F48FEF7FFF94F490020085EFEF708F963
:1055B0008FE0FBF70FFD4B490020085EFEF700F976
:1055C00087E0FBF7FDFC47490020085EFEF7F8F88E
:1055D0007FE0FBF7D7FC43490020085EFEF7F0F8B8
:1055E00077E03F48007E00280DD03D48FBF752FB96
:1055F0003B480C30FAF7DBFD384908603949002098
:10560000085EFEF7DDF864E035490C313348006888
:10561000FAF7D7FD324800F027FD002804D03149C1
:105620000020085EFEF7CCF853E0FEF701FA50E0E8
:105630003220FBF705FA2B490020085EFEF7C0F880
:1056400047E04B20FBF7FCF926490020085EFEF7F7
:10565000B7F83EE06420FBF7F3F922490020085E2A
:10566000FEF7AEF835E0FBF7BDF91E490020085EF5
:10567000FEF7A6F82DE0FBF70BF91A490020085EAB
:10568000FEF79EF825E00120FBF772F9154900208E
:10569000085EFEF795F81CE01148007E00280DD149
:1056A0000F48FBF7F7FA0E480C30FAF780FD0B496C
:1056B00008600C490020085EFEF782F809E000202F
:1056C000FBF756F907490020085EFEF779F800E07D
:1056D00000BF00BF00BFD0E4780200200C03002010
:1056E000CC080020F89A00080178C2790270C171D4
:1056F00041788279427081718178427982704171FA
:10570000C1780279C27001717047000000B5FBF7E3
:105710004BFC1248007E002803D000200F49087679
:1057200002E001200D49087601200C49887500200F
:105730000875012048754B21084801740021417407
:1057400000200649C875802088740818807C0221D2
:10575000084302498031887400BD00003E060020E5
:1057600038B50025002000902748007801284AD14C
:10577000002025490870254908706946244801F031
:105780000DFA0446012C17D16846027820492148B9
:10579000FAF7DAFC20480068401C1F49086004E062
:1057A000284600F03DF84019C5B2684600788542A9
:1057B000F6DBFDF7ADFF26E0022C24D16846027827
:1057C00013491448FAF7C0FC12480078AA281AD1E5
:1057D00010484078BB2816D10E488078CC2812D1CA
:1057E00001F04AFE01F034FE0C48FCF71BFF0320D9
:1057F000FCF712FF3220FCF7F9FEFCF705FFFCF77F
:10580000FBFE00BFFEE738BDD8020020D502002015
:105810007908002039080020F402002055550000C6
:10582000F0B5CFB00446002500204B904A90684662
:10583000FBF718F89022694624A8FAF785FCFE4980
:10584000201D085C4E90601D085C4D900846005D70
:105850005A2875D1601C085CA528FAD1A01C085CE8
:105860005A28F6D1E01C085CA528F2D14D9AD21D29
:10587000D1B2F14A101902F071FF0028E9D14E9817
:10588000012804D002282ED003287CD1F5E026463A
:1058900015E0B01DE849095CA81DE84A1154681CD0
:1058A000C5B2B01DE44A115CA01D4019C3B224AAC0
:1058B0001846FFF739FB4019C5B2701CC6B24D98A7
:1058C0002018B042E5DC8120DC49087108464571AA
:1058D000E81DDB49087001F0F9FBDA480068401C5C
:1058E000D849086040E20125D349A01D085CD3498E
:1058F0008871D149A01D085C092809D128A8C07960
:10590000D14908700120FEF725FBFDF7C9FCA9E08D
:10591000C949A01D085C0A2809D128A8C079CA492C
:1059200008700220FEF716FBFDF7BAFC9AE0C249A8
:10593000A01D085C0B2804D16420FEF70BFB91E04E
:1059400013E2BD49A01D085C0C2828D1E01D085CAD
:10595000BE49087008460078642803D10120FEF78C
:10596000F9FA06E0B9480078002802D16420FEF771
:10597000F1FAB7492498884208D02598FF2805D025
:10598000B248007800E0EEE1FEF730F9AA49E01DE8
:10599000085CAA49C8710225FDF782FC62E0A649AD
:1059A000A01D085C18280ED1E01D085CA349C87131
:1059B0000846C079002802D00420FEF7CBFA022561
:1059C000FDF76EFC4EE09C49A01D085C192820D113
:1059D0000A46E11D501804F00DF807460F2F00DAB3
:1059E0000F273846FDF7E0FE279940184C904C9859
:1059F000FDF790FF9049E01D085C9049C8718E4901
:105A000020460830085C8D4908720325FDF748FCE4
:105A100028E08949A01D085C1A2820D10A46E11D0A
:105A2000501803F0E7FF07460F2F00DA0F2738461C
:105A3000FDF7BAFE2799081A4C904C98FDF76AFFBB
:105A40007D49E01D085C7D49C8717B4920460830CE
:105A5000085C7A4908720325FDF722FC02E0FE206B
:105A60007649C87182207549087108464571E81D5C
:105A70007349087001F02AFB76E102256E49A01DEA
:105A8000085C6E4988716C49E01D085C6B49C871FF
:105A90006949A01D085C0D2812D1E01D085C012891
:105AA00006D124A800F0FAFA24A8FDF77BFF01E054
:105AB000FBF790FA67490020085EFDF781FE47E199
:105AC0005D49A01D085C0E2812D1E01D085C01286C
:105AD00006D124A800F09AFA24A8FDF763FF01E09C
